:0600000000F06BEF00F0C0
:060008003A8271EF0CF0DA
:100018003A80D8CF6FF0E8CF70F0E0CF71F0D9CF49
:1000280072F0DACF73F0F6CF74F0F7CF75F0F8CF3F
:1000380076F0F5CF77F0000E0001786FF0A627EF85
:1000480000F029EF00F02BEF00F0010E786FF05070
:100058007819FE0B7819F06EF050010B0009D8B42E
:1000680038EF00F03AEF00F057EF00F01DEC0EF01B
:10007800230E2E6E0F0E2F6EE6EC0CF083BC47EFAE
:1000880000F04AEF00F0010E4BEF00F0000EFF0AFF
:1000980000016E6F6E3B6E476E4783506E19BF0B43
:1000A8006E19836EF09077C0F5FF76C0F8FF75C0C3
:1000B800F7FF74C0F6FF73C0DAFF72C0D9FF71C0D2
:1000C800E0FF70C0E8FF6FC0D8FF3A90100010EF53
:0200D8000EF028
:100F000000504943313820494E54455252555054AF
:100F100045525300494E54302044657465637465EE
:100F2000642000494E5431204465746563746564DF
:030F30002000009E
:100F34000001816F81C08AF0040E000179197A11D1
:100F4400D8A4A7EF07F0A9EF07F073EF08F08A39E8
:100F54000F0B8A6F000E8C6F000E8B6F8BC07BF0B3
:100F64008BC07CF0010E7D6F7C2BBBEF07F0D8901B
:100F74007D377C2FB9EF07F000017D518A157E6F14
:100F84007B2BC7EF07F0D8907E337B2FC5EF07F09C
:100F940000017E517F6F806BD8908B35D96E8C3574
:100FA400DA6E820ED926000EDA227FC0DEFF80C000
:100FB400DDFF8B4B8C2B8CBFE9EF07F08C5109E1E3
:100FC400040E8B5DD8A0E9EF07F0EBEF07F0B0EF6C
:100FD40007F082B102D0949001D09480000184B1D2
:100FE40002D0949201D09482000186B102D09494EC
:100FF40001D09484000188B102D0949601D09486E3
:101004008882819688800D0E00017B6FC30EE82EC6
:10101400FED77B2FFCD7889081C08AF0000E000198
:101024008E6F000E8D6F8DC07BF08DC07CF0010E35
:101034007D6F7C2B20EF08F0D8907D377C2F1EEF3E
:1010440008F000017D518A157E6F7B2B2CEF08F090
:10105400D8907E337B2F2AEF08F000017E517F6FFA
:10106400806BD8908D35D96E8E35DA6E820ED92686
:10107400000EDA227FC0DEFF80C0DDFF8D4B8E2B99
:101084008EBF4EEF08F08E5109E1040E8D5DD8A09D
:101094004EEF08F050EF08F015EF08F082B102D0DF
:1010A400949001D09480000184B102D0949201D034
:1010B4009482000186B102D0949401D094840001FA
:1010C40088B102D0949601D09486888281968880D3
:1010D4000D0E00017B6FC30EE82EFED77B2FFCD7CD
:1010E400889012000001606F60C069F0040E261839
:1010F4002710D8A480EF08F082EF08F04DEF09F034
:10110400000169390F0B696F000E6B6F000E6A6F77
:101114006AC028F06AC029F0010E2A6E292A95EFC8
:1011240008F0D8902A36292E93EF08F02A500001AF
:1011340069152B6E282AA1EF08F0D8902B32282E9F
:101144009FEF08F02B502C6E2D6AD89000016A3561
:10115400D96E6B35DA6E610ED926000EDA222CC0F8
:10116400DEFF2DC0DDFF6A4B6B2B6BBFC3EF08F0B6
:101174006B5109E1040E6A5DD8A0C3EF08F0C5EF16
:1011840008F08AEF08F061B102D0949001D0948005
:10119400000163B102D0949201D09482000165B140
:1011A40002D0949401D09484000167B102D0949643
:1011B40001D094868882819688800D0E286EC30E95
:1011C400E82EFED7282EFCD700F0889060C069F086
:1011D400000E00016D6F000E6C6F6CC028F06CC0C7
:1011E40029F0010E2A6E292AFAEF08F0D8902A363F
:1011F400292EF8EF08F02A50000169152B6E282AD1
:1012040006EF09F0D8902B32282E04EF09F02B506A
:101214002C6E2D6AD89000016C35D96E6D35DA6E5E
:10122400610ED926000EDA222CC0DEFF2DC0DDFFB0
:101234006C4B6D2B6DBF28EF09F06D5109E1040E65
:101244006C5DD8A028EF09F02AEF09F0EFEF08F061
:1012540061B102D0949001D09480000163B102D0B6
:10126400949201D09482000165B102D0949401D08B
:101274009484000167B102D0949601D09486888248
:10128400819688800D0E286EC30EE82EFED7282E78
:10129400FCD700F08890120000017F6F7FC088F0B7
:1012A400000188390F0B886F000E8A6F000E896F5A
:1012B40089C079F089C07AF0010E7B6F7A2B65EFD3
:1012C40009F0D8907B377A2F63EF09F000017B5146
:1012D40088157C6F792B71EF09F0D8907C33792FC6
:1012E4006FEF09F000017C517D6F7E6BD8908935DA
:1012F400D96E8A35DA6E800ED926000EDA227DC0C8
:10130400DEFF7EC0DDFF894B8A2B8ABF93EF09F095
:101314008A5109E1040E895DD8A093EF09F095EF95
:1013240009F05AEF09F080B102D0949001D0948072
:10133400000182B102D0949201D09482000184B160
:1013440002D0949401D09484000186B102D0949682
:1013540001D094868892819688800D0E0001796F61
:10136400C30EE82EFED7792FFCD788907FC088F073
:10137400000E00018C6F000E8B6F8BC079F08BC058
:101384007AF0010E7B6F7A2BCAEF09F0D8907B3785
:101394007A2FC8EF09F000017B5188157C6F792BF7
:1013A400D6EF09F0D8907C33792FD4EF09F00001FF
:1013B4007C517D6F7E6BD8908B35D96E8C35DA6E0F
:1013C400800ED926000EDA227DC0DEFF7EC0DDFF4E
:1013D4008B4B8C2B8CBFF8EF09F08C5109E1040E78
:1013E4008B5DD8A0F8EF09F0FAEF09F0BFEF09F030
:1013F40080B102D0949001D09480000182B102D0D7
:10140400949201D09482000184B102D0949401D0CA
:101414009484000186B102D0949601D09486889277
:10142400819688800D0E0001796FC30EE82EFED7D9
:10143400792FFCD788901200096E09C012F0040EAF
:1014440001180210D8A429EF0AF02BEF0AF0EAEFF2
:101454000AF012380F0B126E000E146E000E136E8B
:1014640013C003F013C004F0010E056E042A3DEF0F
:101474000AF0D8900536042E3BEF0AF005501214FA
:10148400066E032A48EF0AF0D8900632032E46EF80
:101494000AF00650076E086AD8901334D96E1434D3
:1014A400DA6E0A0ED926000EDA2207C0DEFF08C063
:1014B400DDFF134A142A14BE69EF0AF0145009E13F
:1014C400040E135CD8A069EF0AF06BEF0AF032EF58
:1014D4000AF00AB002D0949001D094800CB002D0EB
:1014E400949201D094820EB002D0949401D094844A
:1014F40010B002D0949601D0948688828196888018
:101504000D0E036EC30EE82EFED7032EFCD700F09B
:10151400889009C012F0000E166E000E156E15C0EC
:1015240003F015C004F0010E056E042A9CEF0AF0C6
:10153400D8900536042E9AEF0AF005501214066E60
:10154400032AA7EF0AF0D8900632032EA5EF0AF07B
:101554000650076E086AD8901534D96E1634DA6EC0
:101564000A0ED926000EDA2207C0DEFF08C0DDFF0E
:10157400154A162A16BEC8EF0AF0165009E1040EE1
:10158400155CD8A0C8EF0AF0CAEF0AF091EF0AF090
:101594000AB002D0949001D094800CB002D09492FE
:1015A40001D094820EB002D0949401D0948410B0EF
:1015B40002D0949601D094868882819688800D0EFC
:1015C400036EC30EE82EFED7032EFCD700F08890DE
:1015D40012002C6E2CC035F035380F0B356E000E12
:1015E400376E000E366E36C026F036C027F0010E78
:1015F400286E272A00EF0BF0D8902836272EFEEF0E
:101604000AF028503514296E262A0BEF0BF0D890D7
:101614002932262E09EF0BF029502A6E2B6AD89016
:101624003634D96E3734DA6E2D0ED926000EDA220E
:101634002AC0DEFF2BC0DDFF364A372A37BE2CEF27
:101644000BF0375009E1040E365CD8A02CEF0BF0F8
:101654002EEF0BF0F5EF0AF02DB002D0949001D0EC
:1016640094802FB002D0949201D0948231B002D0F1
:10167400949401D0948433B002D0949601D094868B
:101684008892819688800D0E266EC30EE82EFED7B2
:10169400262EFCD700F088902CC035F0000E396E51
:1016A400000E386E38C026F038C027F0010E286EC0
:1016B400272A5FEF0BF0D8902836272E5DEF0BF02A
:1016C40028503514296E262A6AEF0BF0D890293257
:1016D400262E68EF0BF029502A6E2B6AD8903834E6
:1016E400D96E3934DA6E2D0ED926000EDA222AC0CC
:1016F400DEFF2BC0DDFF384A392A39BE8BEF0BF0F1
:10170400395009E1040E385CD8A08BEF0BF08DEF53
:101714000BF054EF0BF02DB002D0949001D09480D4
:101724002FB002D0949201D0948231B002D094941C
:1017340001D0948433B002D0949601D094868892D8
:10174400819688800D0E266EC30EE82EFED7262EB7
:10175400FCD700F088901200076E07C010F0103814
:101764000F0B106E000E126E000E116E11C001F000
:1017740011C002F0010E036E022AC3EF0BF0D890E1
:101784000336022EC1EF0BF003501014046E012A2D
:10179400CEEF0BF0D8900432012ECCEF0BF00450B6
:1017A400056E066AD8901134D96E1234DA6E080EBA
:1017B400D926000EDA2205C0DEFF06C0DDFF114A7D
:1017C400122A12BEEFEF0BF0125009E1040E115C65
:1017D400D8A0EFEF0BF0F1EF0BF0B8EF0BF008B07F
:1017E40002D0949001D094800AB002D0949201D097
:1017F40094820CB002D0949401D094840EB002D0A0
:10180400949601D094868892819688800D0E016EFC
:10181400C30EE82EFED7012EFCD700F0889007C037
:1018240010F0000E146E000E136E13C001F013C0FE
:1018340002F0010E036E022A22EF0CF0D890033658
:10184400022E20EF0CF003501014046E012A2DEF29
:101854000CF0D8900432012E2BEF0CF00450056EDE
:10186400066AD8901334D96E1434DA6E080ED92669
:10187400000EDA2205C0DEFF06C0DDFF134A142A7B
:1018840014BE4EEF0CF0145009E1040E135CD8A002
:101894004EEF0CF050EF0CF017EF0CF008B002D044
:1018A400949001D094800AB002D0949201D0948292
:1018B4000CB002D0949401D094840EB002D09496CB
:1018C40001D094868892819688800D0E016EC30E95
:1018D400E82EFED7012EFCD700F088901200D9CF55
:1018E40020F0DACF21F0F6CF22F0F7CF23F0F8CFB3
:1018F40024F0F5CF25F0F2A282EF0CF084EF0CF087
:10190400A6EF0CF0F2A889EF0CF08BEF0CF0A6EF29
:101914000CF021EC0EF0140E176E0F0E186E16EC70
:101924000DF083BE98EF0CF09BEF0CF0010E9CEFD2
:101934000CF0000EFF0A1F6E1F321F3283501F1857
:101944007F0B1F18836EF29225C0F5FF24C0F8FFA9
:1019540023C0F7FF22C0F6FF21C0DAFF20C0D9FF61
:101964003A9211008FC079F090C07AF046EC0DF0F5
:1019740079C093F07AC094F0000E0001966F000EC7
:10198400956FDAEF0CF0000E7A6F040E796F9551B3
:101994008F25916F96519021926F91C0F6FF92C05E
:1019A400F7FF0800F5509AEC07F00001954B962BD1
:1019B4009351955D94519659D8A0E3EF0CF0E5EF5F
:1019C4000CF0C5EF0CF012002EC026F02FC027F04B
:1019D4009FEC0DF026C032F027C033F0000E356EB8
:1019E400000E346E0AEF0DF0000E276E040E266E04
:1019F40034502E24306E35502F20316E30C0F6FF17
:101A040031C0F7FF0800F55074EC08F0344A352A69
:101A14003250345C33503558D8A013EF0DF015EF25
:101A24000DF0F6EF0CF0120017C001F018C002F030
:101A3400BCEC0DF001C01BF002C01CF0000E1E6EC9
:101A4400000E1D6E3AEF0DF0000E026E040E016ED4
:101A54001D501724196E1E5018201A6E19C0F6FF57
:101A64001AC0F7FF0800F5501EEC0AF01D4A1E2AA2
:101A74001B501D5C1C501E58D8A043EF0DF045EFC1
:101A84000DF026EF0DF0120079C07BF07AC07CF0E7
:101A94004FEF0DF000017B4B7C2B7BC0F6FF7CC02D
:101AA400F7FF0800F5500009D8A45BEF0DF05DEFD7
:101AB4000DF04CEF0DF0000179517B5D796F7A5197
:101AC4007C597A6F1200959E959C959A9590938077
:101AD400839E839C839AEDEC0DF0D9EC0DF000EC21
:101AE4000EF082EC0DF019EC0EF0010E00018F6F78
:101AF4000F0E906FB4EC0CF073EF0DF06BEF00F081
:101B04008380030E00017A6F7F0E796F4B0EE82EEF
:101B1400FED7792FFCD77A2FFAD700D08390030E03
:101B240000017A6F7F0E796F4B0EE82EFED7792F66
:101B3400FCD77A2FFAD700D0120026C028F027C08D
:101B440029F0A7EF0DF0284A292A28C0F6FF29C05A
:101B5400F7FF0800F5500009D8A4B3EF0DF0B5EF76
:101B64000DF0A5EF0DF02650285C266E275029585D
:101B7400276E120001C003F002C004F0C4EF0DF0A0
:101B8400034A042A03C0F6FF04C0F7FF0800F55017
:101B94000009D8A4D0EF0DF0D2EF0DF0C2EF0DF094
:101BA4000150035C016E02500458026E1200BA9098
:101BB400BA92BA94BA96BD90BD92BD94BD96C69A97
:101BC400AB9E6B9ECD969A909A9293969490949293
:101BD400949494961200F19CF19EF28EF28CF28809
:101BE400F250F19AF086F08CF090F198F088F09E23
:101BF400F050D08EF28EF28CF09C1200020E4EEC5D
:101C040009F0280E4EEC09F00C0E4EEC09F0060E0D
:101C14004EEC09F0010E4EEC09F012003A903A92A3
:101C2400000EF86E0F0EF76E000165EF0DF0800EDA
:101C34004EEC09F01200940EEBEC0AF01200C00E08
:061C4400AEEC0BF01200F3
:020000040020DA
:08000000FFFFFFFFFFFFFFFF00
:020000040030CA
:0E000000FF220D0E830280FFFFC0FFE0FF40D5
:00000001FF
