:0600000000F024EF00F007
:100008005D82F2A40AEF00F00CEF00F013EF00F0AD
:10001800000ED76E640ED66EF2945B4A5C2A640EAC
:100028005B185C10D8A41BEF00F01DEF00F022EF66
:1000380000F0837E000E5C6E000E5B6E5D92110018
:04004800F2EF1CF0C7
:100F0000000000803F000020410000C84200007A3D
:100F10004400401C460050C3470024744980961882
:100F20004B20BCBE4C286B6E4EF9021550EC78ADD0
:100F300060CAF249710000803FCDCCCC3D0AD72376
:100F40003C6F12833A17B7D138ACC52737BD378607
:100F50003595BFD63377CC2B325F708930FFE6DB17
:100F60002E08E53C1E6042A20D010000000A0000B0
:100F70000064000000E803000010270000A08601C4
:100F80000040420F008096980000E1F50500CA9AE3
:100F90003B50494331382054494D45525300524447
:100FA00030206973204F4646200054494D45522D4C
:100FB00030203A2000524430206973204F4E2000E8
:100FC000524437206973204F4E2000524437206925
:100FD00073204F464600636E7420252E3166000054
:100FE000510E0001646F000E656F74EF0CF0250E5A
:100FF0007819D8B4FEEF07F000EF08F00AEF08F018
:101000004DC0D9FF4EC0DAFF78C0DFFF4D4A4E2AEF
:1010100074EF0CF0000E676F000E666F4FC0F6FFA6
:1010200050C0F7FF000EF86E0800F5502E0AD8A445
:101030001CEF08F01EEF08F061EF08F0678D4F4AD3
:10104000502A000E736F000E726F4EEF08F072C0E0
:1010500001F073C002F0000E046E0A0E036EC1ECC4
:101060001CF001C072F002C073F0D00E556EFF0E7E
:10107000566E4FC0F6FF50C0F7FF000EF86E080026
:10108000F550576E586A55505726565058225750AB
:1010900000017227585073234F4A502A4FC0F6FF61
:1010A00050C0F7FF000EF86E0800F55094EC1CF0ED
:1010B000D8B05DEF08F05FEF08F027EF08F06BEFB6
:1010C00008F0000E736F000E726F67896BEF08F007
:1010D000678582EF08F04FC0F6FF50C0F7FF4F4A18
:1010E000502A000EF86E0800F5CF78F00001785114
:1010F000000AD8B487EF0CF0660AD8B468EF08F09D
:1011000074EF0CF0070E6715D8B489EF08F08BEF79
:1011100008F021EF0CF067A990EF08F092EF08F0CB
:1011200096EF08F0000E736F060E726F64C0D9FF61
:1011300065C0DAFFDECF74F0DECF75F0DECF76F07B
:10114000DECF77F0040E6427000E652377BFADEF86
:1011500008F0ABEF08F0C2EF08F074C001F075C002
:1011600002F076C003F077C004F078EC1CF001C008
:1011700074F002C075F003C076F004C077F0030E7F
:1011800000016613000E6D6F000E6C6F74C001F0ED
:1011900075C002F076C003F077C004F0000E056E53
:1011A000000E066E000E076E000E086E9BEC1AF025
:1011B000D8B0DDEF08F0DFEF08F072EF09F00001C2
:1011C00076357735820F6C6F6D6BFF0E6D236C0774
:1011D000D8A06D076CC001F06DC002F0000E046E67
:1011E000030E036EC1EC1CF001C06CF002C06DF088
:1011F0006CC007F06DC008F0000E0A6E0A0E096E92
:10120000E1EC19F007C06CF008C06DF000016DBF93
:101210000EEF09F00CEF09F011EF09F06C07D8A000
:101220006D076C510008EEEC0EF028C06EF029C07E
:101230006FF02AC070F02BC071F06EC00FF06FC05D
:1012400010F070C011F071C012F074C013F075C0CE
:1012500014F076C015F077C016F018EC11F00FC03E
:101260006EF010C06FF011C070F012C071F06EC05F
:1012700001F06FC002F070C003F071C004F0000E06
:10128000056E000E066E800E076E3F0E086E5FEC58
:1012900019F0D8B04EEF09F050EF09F056EF09F011
:1012A00000016C07D8A06D0772EF09F06EC001F065
:1012B0006FC002F070C003F071C004F0000E056E44
:1012C000000E066E200E076E410E086E5FEC19F0E0
:1012D000D8A06DEF09F06FEF09F072EF09F000018F
:1012E0006C4B6D2B000173BF81EF09F0735107E167
:1012F0000D0E725DD8B07FEF09F081EF09F09EEF1F
:1013000009F074C035F075C036F076C037F077C09C
:1013100038F072512DEC13F028C039F029C03AF0A2
:101320002AC03BF02BC03CF08EEC0CF035C074F0C2
:1013300036C075F037C076F038C077F000016DBF69
:10134000ADEF09F06D5107E10A0E6C5DD8B0ABEF5F
:1013500009F0ADEF09F0EAEF09F074C001F075C0D3
:1013600002F076C003F077C004F0000E056E000EA8
:10137000066E000E076E000E086E9BEC1AF0D8B0D9
:10138000C4EF09F0C6EF09F03FEF0AF074C031F086
:1013900075C032F076C033F077C034F0DCEC18F072
:1013A0003150321033103410D8A4D9EF09F0DBEFEC
:1013B00009F03FEF0AF000016DBFE8EF09F06D5151
:1013C00009E1020E6C5DD8A0E8EF09F0EAEF09F040
:1013D0003FEF0AF06EC001F06FC002F070C003F082
:1013E00071C004F05F0E056E700E066E890E076EFA
:1013F000400E086E5FEC19F0D8B001EF0AF003EF71
:101400000AF00AEF0AF00001F70E6C27FF0E6D23B9
:101410000FEF0AF00001F80E6C27FF0E6D236C51E0
:10142000EEEC0EF028C06EF029C06FF02AC070F00C
:101430002BC071F074C001F075C002F076C003F0EB
:1014400077C004F06EC005F06FC006F070C007F002
:1014500071C008F0A5EC17F001C068F002C069F097
:1014600003C06AF004C06BF0000E0001746F000E40
:10147000756F000E766F000E776F7BEF0AF074C009
:1014800031F075C032F076C033F077C034F0DCEC68
:1014900018F031C068F032C069F033C06AF034C06F
:1014A0006BF074C045F075C046F076C047F077C069
:1014B00048F068C001F069C002F06AC003F06BC078
:1014C00004F0000E90EC14F001C049F002C04AF0A4
:1014D00003C04BF004C04CF055EC1CF045C074F058
:1014E00046C075F047C076F048C077F0000E0001A6
:1014F0006D6F000E6C6F010E786F7851040D690EE0
:10150000F324F66E0F0EF420F76EF86A000EF82240
:101510000900F550685D0900F55069590900F5505A
:101520006A590900F5506B59D8B099EF0AF09BEF52
:101530000AF09DEF0AF0A7EF0AF0782B0A0E78194F
:10154000D8A4A5EF0AF0A7EF0AF07DEF0AF0030E8A
:101550006615556E000E6715566E55505610D8B468
:10156000B4EF0AF0B6EF0AF00DEF0BF04DC0D9FF63
:101570004EC0DAFF2D0EDF6E4D4A4E2A0DEF0BF0F6
:1015800068C001F069C002F06AC003F06BC004F0EB
:101590007851040D690EF324F66E0F0EF420F76EE9
:1015A000F86A000EF8220900F5CF05F00900F5CF22
:1015B00006F00900F5CF07F00A00F5CF08F0F0ECCF
:1015C0001AF001C06EF002C06FF003C070F004C0EA
:1015D00071F06EC001F06FC002F070C003F071C016
:1015E00004F00A0E056E000E066E000E076E000E69
:1015F000086E42EC1BF001C06EF002C06FF003C039
:1016000070F004C071F000016E51300F4DC0D9FF71
:101610004EC0DAFFDF6EBCEF0AF078077829D8A455
:1016200014EF0BF016EF0BF0C0EF0AF023EF0BF006
:101630004DC0D9FF4EC0DAFF300EDF6E4D4A4E2A44
:101640006C07D8A06D076DBF30EF0BF06D5106E150
:101650006C05D8B02EEF0BF030EF0BF018EF0BF05D
:1016600073BF3CEF0BF0735109E1090E725DD8A016
:101670003CEF0BF03EEF0BF042EF0BF0080E786FF3
:1016800044EF0BF072C078F07851725F000E735B1C
:101690007851D8B44EEF0BF050EF0BF058EF0BF041
:1016A0004DC0D9FF4EC0DAFF2E0EDF6E4D4A4E2AD6
:1016B0007851EEEC0EF028C060F029C061F02AC02D
:1016C00062F02BC063F074C013F075C014F076C0E4
:1016D00015F077C016F060C00FF061C010F062C066
:1016E00011F063C012F018EC11F00FC031F010C00F
:1016F00032F011C033F012C034F0DCEC18F031C01D
:1017000068F032C069F033C06AF034C06BF0FFEFAC
:101710000BF068C001F069C002F06AC003F06BC052
:1017200004F07851040D690EF324F66E0F0EF420C8
:10173000F76EF86A000EF8220900F5CF05F00900EF
:10174000F5CF06F00900F5CF07F00A00F5CF08F055
:10175000F0EC1AF001C06EF002C06FF003C070F040
:1017600004C071F06EC001F06FC002F070C003F0F1
:1017700071C004F00A0E056E000E066E000E076EB4
:10178000000E086E42EC1BF001C06EF002C06FF05C
:1017900003C070F004C071F000016E51300F4DC0F5
:1017A000D9FF4EC0DAFFDF6E4D4A4E2A68C001F005
:1017B00069C002F06AC003F06BC004F07851040DF8
:1017C000690EF324F66E0F0EF420F76EF86A000E21
:1017D000F8220900F5CF05F00900F5CF06F0090061
:1017E000F5CF07F00A00F5CF08F042EC1BF001C07E
:1017F00068F002C069F003C06AF004C06BF0000139
:1018000078077829D8A407EF0CF009EF0CF089EFDE
:101810000BF016EF0CF04DC0D9FF4EC0DAFF300EC2
:10182000DF6E4D4A4E2A7207D8A0730772517311AA
:10183000D8A41DEF0CF01FEF0CF00BEF0CF074EFC1
:101840000CF072517311D8A428EF0CF02AEF0CF0B1
:1018500037EF0CF0685169116A116B11D8A433EF9E
:101860000CF035EF0CF037EF0CF0724B732B785116
:10187000556E566A7251555C5650800A576E7351B8
:10188000800A5758D8B047EF0CF049EF0CF04BEFF7
:101890000CF05DEF0CF07851556E566A5550725D44
:1018A0007351800A576E5650800A5758D8B05BEF74
:1018B0000CF05DEF0CF05DEF0CF0030E6615556E4D
:1018C000000E6715566E55505610D8B46AEF0CF0DE
:1018D0006CEF0CF074EF0CF04DC0D9FF4EC0DAFF86
:1018E0002D0EDF6E06EF08F04FC0F6FF50C0F7FF79
:1018F0004F4A502A000EF86E0800F5CF78F0785164
:10190000D8A485EF0CF087EF0CF0F7EF07F04DC08F
:10191000D9FF4EC0DAFF000EDF6E12003850800B88
:10192000416E38503824436E37AE99EF0CF09BEF80
:101930000CF09CEF0CF043804350D8B4A2EF0CF0B5
:10194000A4EF0CF0B9EF0CF04328D8A4AAEF0CF0E8
:10195000ACEF0CF0B4EF0CF0000E356E000E366EEE
:10196000000E376E000E386E378E000E386EC1EFE7
:101970000CF0000E356E000E366E000E376E000E47
:10198000386E3C50800B426E41504218D8B4CBEFB9
:101990000CF0CDEF0CF0CEEF0CF0418C3C503C2421
:1019A000426E3BAED6EF0CF0D8EF0CF0D9EF0CF056
:1019B00042804250D8B4DFEF0CF0E1EF0CF0F6EFCC
:1019C0000CF04228D8A4E7EF0CF0E9EF0CF0F1EFAF
:1019D0000CF0000E396E000E3A6E000E3B6E000EDB
:1019E0003C6E3B8E000E3C6EFEEF0CF0000E396E2E
:1019F000000E3A6E000E3B6E000E3C6E4350425C91
:101A0000D8B005EF0DF007EF0DF02EEF0DF041AC63
:101A10000CEF0DF00EEF0DF010EF0DF0800E411AEF
:101A200043C044F042C043F044C042F035C044F0EB
:101A300039C035F044C039F036C044F03AC036F011
:101A400044C03AF037C044F03BC037F044C03BF0EC
:101A500038C044F03CC038F044C03CF0000E446E46
:101A6000435042C03DF03E6A3D5E000E3E5A3EBECF
:101A700043EF0DF03E5009E11A0E3D5CD8A043EF54
:101A80000DF045EF0DF07CEF0DF0355036103710AE
:101A90003810D8A44EEF0DF051EF0DF0010E52EFBB
:101AA0000DF0000E446E000E356E000E366E000E08
:101AB000376E000E386E42C043F085EF0DF044A043
:101AC00064EF0DF066EF0DF06CEF0DF0D890443040
:101AD0000109446E6EEF0DF0D890443235A073EFDB
:101AE0000DF075EF0DF076EF0DF0448E383438328E
:101AF000373236323532432A4250435CD8A083EF26
:101B00000DF085EF0DF05FEF0DF041BC8AEF0DF0A9
:101B10008CEF0DF0CCEF0DF04350D8A492EF0DF008
:101B200094EF0DF09EEF0DF0000E356E000E366E48
:101B3000000E376E000E386EEDEF0EF03950352680
:101B40003A5036223B5037223C50382238A0ABEF77
:101B50000DF0ADEF0DF059EF0EF044A0B2EF0DF027
:101B6000B4EF0DF0BAEF0DF0D89044300109446E97
:101B7000BCEF0DF0D890443235A0C1EF0DF0C3EFAB
:101B80000DF0C4EF0DF0448E38343832373236322F
:101B90003532432A59EF0EF03950355C3A503658F9
:101BA0003B5037583850800A3D6E3C50800A3D58B3
:101BB000D8B0DDEF0DF0DFEF0DF00AEF0EF035508D
:101BC000395C3D6E36503A583E6E37503B583F6E4A
:101BD00038503C58406EFF0E3D24356EFF0E3E20BF
:101BE000366EFF0E3F20376EFF0E4020386E800E9F
:101BF000411A446C4450D8A400EF0EF002EF0EF0EE
:101C000012EF0EF0010E3526000E36223722382252
:101C100012EF0EF03950355E3A50365A3B50375A73
:101C20003C50385A3550361037103810D8A41BEFB6
:101C30000EF01DEF0EF052EF0EF04450D8A423EF3B
:101C40000EF025EF0EF052EF0EF0000E356E000E86
:101C5000366E000E376E000E386EEDEF0EF0D89037
:101C6000353636363736383644AE39EF0EF03BEF80
:101C70000EF03CEF0EF0358044A041EF0EF043EF44
:101C80000EF047EF0EF0D880443649EF0EF0D890B2
:101C900044364350D8B44FEF0EF051EF0EF052EFF0
:101CA0000EF0430637AE57EF0EF059EF0EF02FEF60
:101CB0000EF0000E426E44AE60EF0EF062EF0EF0DA
:101CC0007AEF0EF044C03DF07F0E3D16D8B46BEFB6
:101CD0000EF06DEF0EF071EF0EF0010E426E7AEF26
:101CE0000EF035A076EF0EF078EF0EF07AEF0EF0F2
:101CF0006DEF0EF04250D8B480EF0EF082EF0EF090
:101D0000ADEF0EF0010E3526000E362237223822B6
:101D100038A08DEF0EF08FEF0EF0ADEF0EF035C066
:101D20003DF036C03EF037C03FF038C040F04034A0
:101D300040323F323E323D323DC035F03EC036F09B
:101D40003FC037F040C038F04328D8B4AAEF0EF0B7
:101D5000ACEF0EF0ADEF0EF0432A4328D8B4B3EF4A
:101D60000EF0B5EF0EF0BDEF0EF04350D8A4BBEF70
:101D70000EF0BDEF0EF0CFEF0EF0000E356E000E40
:101D8000366E000E376E000E386E4350D8A4CBEF7F
:101D90000EF0CDEF0EF0CFEF0EF0000E416E43A02F
:101DA000D4EF0EF0D6EF0EF0D9EF0EF0378EDAEF5B
:101DB0000EF0379ED8904330386E41AEE2EF0EF011
:101DC000E4EF0EF0E5EF0EF0388E35C035F036C09A
:101DD00036F037C037F038C038F01200306E30BE01
:101DE000F6EF0EF0F4EF0EF008EF10F0306C30501C
:101DF000800A120FD8A0FFEF0EF001EF0FF093EF63
:101E00000FF0000E0A6E0A0E096E000E046E640ECC
:101E1000036E3050016E026A01BE020643EC1AF0F6
:101E200001C007F002C008F0E1EC19F0090E072626
:101E30000750040D350EF324F66E0F0EF420F76EE6
:101E4000F86A000EF8220900F5CF13F00900F5CF6B
:101E500014F00900F5CF15F00A00F5CF16F0000ECA
:101E60000A6E640E096E3050076E086A07BE0806D7
:101E7000E1EC19F0120E07260750040D350EF3247D
:101E8000F66E0F0EF420F76EF86A000EF8220900C5
:101E9000F5CF0FF00900F5CF10F00900F5CF11F0E4
:101EA0000A00F5CF12F018EC11F00FC02CF010C0A2
:101EB0002DF011C02EF012C02FF02CC00FF02DC04D
:101EC00010F02EC011F02FC012F0000E046E0A0E9A
:101ED000036E3050016E026A01BE020643EC1AF036
:101EE0000150040D350EF324F66E0F0EF420F76E3C
:101EF000F86A000EF8220900F5CF13F00900F5CFBB
:101F000014F00900F5CF15F00A00F5CF16F018EC23
:101F100011F00FC028F010C029F011C02AF012C033
:101F20002BF017EF11F03050800A750FD8A09BEFFF
:101F30000FF09DEF0FF0EFEF0FF0000E0A6E0A0E9C
:101F4000096E3050076E086A07BE0806E1EC19F00A
:101F5000090E07260750040D350EF324F66E0F0EFA
:101F6000F420F76EF86A000EF8220900F5CF0FF0A2
:101F70000900F5CF10F00900F5CF11F00A00F5CFF8
:101F800012F0000E046E0A0E036E3050016E026AEB
:101F900001BE020643EC1AF00150040D350EF32485
:101FA000F66E0F0EF420F76EF86A000EF8220900A4
:101FB000F5CF13F00900F5CF14F00900F5CF15F0B7
:101FC0000A00F5CF16F018EC11F00FC028F010C081
:101FD00029F011C02AF012C02BF017EF11F0305089
:101FE000040D350EF324F66E0F0EF420F76EF86A2A
:101FF000000EF8220900F5CF28F00900F5CF29F0EE
:102000000900F5CF2AF00A00F5CF2BF017EF11F0F9
:102010003050800A120FD8A010EF10F012EF10F01D
:10202000A4EF10F0000E0A6E0A0E096E000E046E88
:10203000640E036E3050016E026A01BE020643EC6C
:102040001AF001C007F002C008F0E1EC19F0090E27
:1020500007260750040D010EF324F66E0F0EF42030
:10206000F76EF86A000EF8220900F5CF13F00900A8
:10207000F5CF14F00900F5CF15F00A00F5CF16F0F2
:10208000000E0A6E640E096E3050076E086A07BEB5
:102090000806E1EC19F0120E07260750040D010E98
:1020A000F324F66E0F0EF420F76EF86A000EF82295
:1020B0000900F5CF0FF00900F5CF10F00900F5CFBA
:1020C00011F00A00F5CF12F018EC11F00FC02CF04F
:1020D00010C02DF011C02EF012C02FF02CC00FF048
:1020E0002DC010F02EC011F02FC012F0000E046EA3
:1020F0000A0E036E3050016E026A01BE020643EC06
:102100001AF00150040D010EF324F66E0F0EF420A8
:10211000F76EF86A000EF8220900F5CF13F00900F7
:10212000F5CF14F00900F5CF15F00A00F5CF16F041
:1021300018EC11F00FC028F010C029F011C02AF0DF
:1021400012C02BF017EF11F03050800A750FD8A095
:10215000ACEF10F0AEEF10F000EF11F0000E0A6ED1
:102160000A0E096E3050076E086A07BE0806E1ECD9
:1021700019F0090E07260750040D010EF324F66E20
:102180000F0EF420F76EF86A000EF8220900F5CF62
:102190000FF00900F5CF10F00900F5CF11F00A009B
:1021A000F5CF12F0000E046E0A0E036E3050016E71
:1021B000026A01BE020643EC1AF00150040D010E42
:1021C000F324F66E0F0EF420F76EF86A000EF82274
:1021D0000900F5CF13F00900F5CF14F00900F5CF91
:1021E00015F00A00F5CF16F018EC11F00FC028F02A
:1021F00010C029F011C02AF012C02BF017EF11F017
:102200003050040D010EF324F66E0F0EF420F76E1D
:10221000F86A000EF8220900F5CF28F00900F5CF82
:1022200029F00900F5CF2AF00A00F5CF2BF01200B3
:102230001250800B1B6E12501224216E11AE23EF30
:1022400011F025EF11F026EF11F021802150D8B4C4
:102250002CEF11F02EEF11F041EF11F02128D8A44E
:1022600034EF11F036EF11F03EEF11F0000E0F6E6B
:10227000000E106E000E116E000E126E118E49EFE0
:1022800011F0000E0F6E000E106E000E116E000E9B
:10229000126E1650800B1B1A16501624206E15AEA7
:1022A00054EF11F056EF11F057EF11F0208020504D
:1022B000D8B45DEF11F05FEF11F072EF11F020284C
:1022C000D8A465EF11F067EF11F06FEF11F0000E79
:1022D000136E000E146E000E156E000E166E158E27
:1022E0007AEF11F0000E136E000E146E000E156ED4
:1022F000000E166E2050D8B480EF11F082EF11F06E
:102300008AEF11F02150D8A488EF11F08AEF11F074
:1023100094EF11F0000E0F6E000E106E000E116E95
:10232000000E126E2CEF13F015500F02F3CF26F0B3
:10233000F4CF27F026501C6E1D6A1E6A1F6A2750B4
:10234000226E236A246A256A14501002F3CF26F005
:10235000F4CF27F026501C26000E1D221E221F221D
:1023600027502226000E2322242225221350110258
:10237000F3CF26F0F4CF27F026501C26000E1D22A6
:102380001E221F2227502226000E2322242225222D
:102390001EC01FF01DC01EF01CC01DF01C6A135093
:1023A0001002F3CF26F0F4CF27F026501C2627503A
:1023B0001D22000E1E22000E1F2214500F02F3CF0A
:1023C00026F0F4CF27F026501C2627501D22000EA1
:1023D0001E22000E1F221EC01FF01DC01EF01CC0BA
:1023E0001DF01C6A13500F02F3CF26F0F4CF27F034
:1023F00026501C2627501D22000E1E22000E1F22D2
:1024000015501002F3CF26F0F4CF27F026502226E5
:1024100027502322000E2422000E252214501102E0
:10242000F3CF26F0F4CF27F0265022262750232280
:10243000000E2422000E252215501102F3CF26F0A3
:10244000F4CF27F02650176E2750186E196A1A6AB3
:1024500019C01AF018C019F017C018F0176A1750F1
:10246000222618502322195024221A5025221CC03B
:1024700017F01DC018F01EC019F01FC01AF0190E79
:1024800047EF12F0D8901A32193218321732E82E6C
:1024900042EF12F0175022261850232219502422FE
:1024A0001A5025221EC01FF01DC01EF01CC01DF0BA
:1024B0001C6A205021C017F0186A1726000E182237
:1024C000820E1724266EFF0E1820276E7DEF12F065
:1024D000D89022362336243625361FAE72EF12F0FE
:1024E00074EF12F075EF12F02280D8901C361D3672
:1024F0001E361F362606D8A0270624AE82EF12F01D
:1025000084EF12F068EF12F0000E206E1FAE8BEF1A
:1025100012F08DEF12F0B1EF12F0FF0E1C14176ED7
:10252000FF0E1D14186EFF0E1E14196E7F0E1F1461
:102530001A6E1750181019101A10D8B4A2EF12F012
:10254000A4EF12F0A8EF12F0010E206EB1EF12F01E
:1025500022A0ADEF12F0AFEF12F0B1EF12F0A4EF46
:1025600012F02050D8B4B7EF12F0B9EF12F0DDEF4F
:1025700012F0010E2226000E23222422252225A05D
:10258000C4EF12F0C6EF12F0DDEF12F022C017F028
:1025900023C018F024C019F025C01AF01A341A32DA
:1025A00019321832173217C022F018C023F019C0A0
:1025B00024F01AC025F0264A272A27BEE8EF12F099
:1025C000275008E12628D8A0E8EF12F0EAEF12F031
:1025D000F4EF12F0000E226E000E236E800E246EB9
:1025E0007F0E256E22EF13F027BE01EF13F0275068
:1025F00006E12604D8B0FFEF12F001EF13F00DEF63
:1026000013F0000E226E000E236E000E246E000EDC
:10261000256E000E1B6E22EF13F026C021F0FF0E78
:102620002216FF0E23167F0E2416000E251621A05B
:102630001CEF13F01EEF13F01FEF13F0248ED89051
:102640002130256E1B50251222C00FF023C010F040
:1026500024C011F025C012F01200346E6D0E3464E7
:1026600034EF13F036EF13F0ECEF13F0000E136EAF
:10267000000E146E000E156E3F0E166E000E096EE3
:10268000640E086E34C006F0076AC1EC1BF0D890E7
:1026900006360736D89006360736480E0626000E50
:1026A0000722350E0624F66E0F0E0720F76EF86A25
:1026B000000EF8220900F5CF0FF00900F5CF10F059
:1026C0000900F5CF11F00A00F5CF12F018EC11F067
:1026D0000FC030F010C031F011C032F012C033F032
:1026E000000E096E0A0E086E000E046E640E036E74
:1026F00034C001F0026AFBEC1BF001C006F002C01E
:1027000007F0C1EC1BF0D89006360736D890063695
:102710000736240E0626000E0722350E0624F66E16
:102720000F0E0720F76EF86A000EF8220900F5CFA9
:1027300013F00900F5CF14F00900F5CF15F00A00E9
:10274000F5CF16F030C00FF031C010F032C011F0EC
:1027500033C012F018EC11F00FC02CF010C02DF0A7
:1027600011C02EF012C02FF02CC00FF02DC010F0B1
:102770002EC011F02FC012F0000E046E0A0E036E70
:1027800034C001F0026AFBEC1BF0D890013602362F
:10279000D89001360236350E0124F66E0F0E022057
:1027A000F76EF86A000EF8220900F5CF13F0090061
:1027B000F5CF14F00900F5CF15F00A00F5CF16F0AB
:1027C00018EC11F00FC028F010C029F011C02AF049
:1027D00012C02BF08FEF14F00A0E3464F2EF13F0F6
:1027E000F4EF13F066EF14F0000E136E000E146E8B
:1027F000000E156E3F0E166E000E096E0A0E086E64
:1028000034C006F0076AC1EC1BF0D89006360736D4
:10281000D89006360736240E0626000E0722350EFF
:102820000624F66E0F0E0720F76EF86A000EF822E7
:102830000900F5CF0FF00900F5CF10F00900F5CF32
:1028400011F00A00F5CF12F018EC11F00FC030F0C3
:1028500010C031F011C032F012C033F030C00FF0B0
:1028600031C010F032C011F033C012F0000E046E0F
:102870000A0E036E34C001F0026AFBEC1BF0D89024
:1028800001360236D89001360236350E0124F66E36
:102890000F0E0220F76EF86A000EF8220900F5CF3D
:1028A00013F00900F5CF14F00900F5CF15F00A0078
:1028B000F5CF16F018EC11F00FC028F010C029F079
:1028C00011C02AF012C02BF08FEF14F03450040D19
:1028D000350EF324F66E0F0EF420F76EF86A000E34
:1028E000F8220900F5CF0FF00900F5CF10F009002C
:1028F000F5CF11F00A00F5CF12F0000E136E000EA6
:10290000146E000E156E3F0E166E18EC11F00FC00F
:1029100028F010C029F011C02AF012C02BF01200CC
:10292000096E0950D8B497EF14F099EF14F0BBEF8B
:1029300014F004BEA0EF14F09EEF14F0BBEF14F0FF
:1029400001C005F002C006F003C007F004C008F0A3
:10295000051E061E071E081E052A000E0622072257
:10296000082205C00BF006C00CF007C00DF008C02F
:102970000EF0C3EF14F001C00BF002C00CF003C066
:102980000DF004C00EF00150021003100410D8A482
:10299000CCEF14F0CEEF14F0D8EF14F0000E016E6F
:1029A000000E026E000E036E000E046E69EF15F04D
:1029B000960E0A6EE2EF14F00A2AD8900E320D320B
:1029C0000C320B32000E0B14056E000E0C14066E4A
:1029D000000E0D14076EFE0E0E14086E0550061044
:1029E00007100810D8A4F7EF14F0F9EF14F0DCEF9B
:1029F00014F007EF15F00A2A010E0B26000E0C2228
:102A00000D220E22D8900E320D320C320B32000EF7
:102A10000B14056E000E0C14066E000E0D14076EDE
:102A2000FF0E0E14086E0550061007100810D8A4EB
:102A30001CEF15F01EEF15F0FBEF14F026EF15F06C
:102A40000A06D8900B360C360D360E360DBE2BEF1F
:102A500015F02DEF15F035EF15F0020E0A6033EF8B
:102A600015F035EF15F020EF15F00AB03AEF15F03C
:102A70003CEF15F03DEF15F00D9ED8900A320AC0DC
:102A800005F0066A076A086A05C008F0076A066A60
:102A9000056A05500B1206500C1207500D12085013
:102AA0000E120950D8B457EF15F059EF15F061EF39
:102AB00015F004BE60EF15F05EEF15F061EF15F054
:102AC0000E8E0BC001F00CC002F00DC003F00EC062
:102AD00004F01200096E09C012F0040E0118021071
:102AE000D8A475EF15F077EF15F036EF16F0123821
:102AF0000F0B126E000E146E000E136E13C003F057
:102B000013C004F0010E056E042A89EF15F0D89069
:102B10000536042E87EF15F005501214066E032AB1
:102B200094EF15F0D8900632032E92EF15F0065070
:102B3000076E086AD8901334D96E1434DA6E0A0E10
:102B4000D926000EDA2207C0DEFF08C0DDFF134AD7
:102B5000142A14BEB5EF15F0145009E1040E135CED
:102B6000D8A0B5EF15F0B7EF15F07EEF15F00AB06D
:102B700002D0949001D094800CB002D0949201D0F5
:102B800094820EB002D0949401D0948410B002D0FC
:102B9000949601D094868882819688800D0E036E6B
:102BA000C30EE82EFED7032EFCD700F0889009C094
:102BB00012F0000E166E000E156E15C003F015C053
:102BC00004F0010E056E042AE8EF15F0D8900536E2
:102BD000042EE6EF15F005501214066E032AF3EFEB
:102BE00015F0D8900632032EF1EF15F00650076E5F
:102BF000086AD8901534D96E1634DA6E0A0ED926C2
:102C0000000EDA2207C0DEFF08C0DDFF154A162AD3
:102C100016BE14EF16F0165009E1040E155CD8A08C
:102C200014EF16F016EF16F0DDEF15F00AB002D033
:102C3000949001D094800CB002D0949201D09482F0
:102C40000EB002D0949401D0948410B002D0949627
:102C500001D094868882819688800D0E036EC30E03
:102C6000E82EFED7032EFCD700F088901200076EE6
:102C700007C010F010380F0B106E000E126E000E11
:102C8000116E11C001F011C002F0010E036E022A94
:102C90004CEF16F0D8900336022E4AEF16F0035090
:102CA0001014046E012A57EF16F0D8900432012E4A
:102CB00055EF16F00450056E066AD8901134D96E9F
:102CC0001234DA6E080ED926000EDA2205C0DEFFB5
:102CD00006C0DDFF114A122A12BE78EF16F012501C
:102CE00009E1040E115CD8A078EF16F07AEF16F027
:102CF00041EF16F008B002D0949001D094800AB051
:102D000002D0949201D094820CB002D0949401D05D
:102D100094840EB002D0949601D0948688928196C5
:102D200088800D0E016EC30EE82EFED7012EFCD753
:102D300000F0889007C010F0000E146E000E136EA5
:102D400013C001F013C002F0010E036E022AABEFB4
:102D500016F0D8900336022EA9EF16F00350101487
:102D6000046E012AB6EF16F0D8900432012EB4EFAB
:102D700016F00450056E066AD8901334D96E1434D8
:102D8000DA6E080ED926000EDA2205C0DEFF06C074
:102D9000DDFF134A142A14BED7EF16F0145009E1D0
:102DA000040E135CD8A0D7EF16F0D9EF16F0A0EF01
:102DB00016F008B002D0949001D094800AB002D0EE
:102DC000949201D094820CB002D0949401D0948457
:102DD0000EB002D0949601D0948688928196888015
:102DE0000D0E016EC30EE82EFED7012EFCD700F0AB
:102DF0008890120003C009F00A6A0B6A023409368F
:102E000001E30A800950116E1150D8A40AEF17F09F
:102E10000CEF17F016EF17F0000E016E000E026EA9
:102E2000000E036E000E046EA4EF17F007C009F049
:102E30000A6A0B6A0634093601E30A800950106EEB
:102E40001050D8A426EF17F028EF17F02AEF17F04C
:102E50000CEF17F0028EFF0E0116FF0E0216000E89
:102E60000316068EFF0E0516FF0E0616000E071639
:102E7000000E0C6E000E0D6E000E0E6E000E0F6E2C
:102E80007F0E115E1050980F115E180E106ED890C4
:102E90000C360D360E360F360550015C06500258C2
:102EA00007500358D8A057EF17F059EF17F060EF0D
:102EB00017F00550015E0650025A0750035A0C8065
:102EC000D890013602360336102E47EF17F011BEA8
:102ED0006EEF17F06CEF17F084EF17F01150800AC7
:102EE000970FD8B076EF17F078EF17F07AEF17F06A
:102EF0000CEF17F0D8900F320E320D320C32113E1B
:102F00007AEF17F09CEF17F0170E11648AEF17F0A5
:102F10008CEF17F094EF17F00CEF17F0D8900C36F9
:102F20000D360E360F3611061150D8A49AEF17F051
:102F30009CEF17F08EEF17F00CC001F00DC002F0FF
:102F40000EC003F00FC004F01200033404340E6E00
:102F50000E50D8A4AEEF17F0B0EF17F0BAEF17F09D
:102F6000000E016E000E026E000E036E000E046E67
:102F70004AEF18F0073408340D6E0D50D8A4C3EF93
:102F800017F0C5EF17F0C7EF17F0B0EF17F0038E8B
:102F9000FF0E0116FF0E0216FF0E0316000E04169A
:102FA000078EFF0E0516FF0E0616FF0E0716000E03
:102FB0000816000E096E000E0A6E000E0B6E000E53
:102FC0000C6E7F0E0E5E0D50A00F0E5E200E0D6E6D
:102FD000D89009360A360B360C360550015C06507F
:102FE00002580750035808500458D8A0FAEF17F0B9
:102FF000FCEF17F005EF18F00550015E0650025A7D
:103000000750035A0850045A0980D89001360236F6
:10301000033604360D2EE8EF17F00EBE14EF18F04D
:1030200012EF18F02AEF18F00E50800A9F0FD8B058
:103030001CEF18F01EEF18F020EF18F0B0EF17F0AB
:10304000D8900C320B320A3209320E3E20EF18F0C3
:1030500042EF18F01F0E0E6430EF18F032EF18F048
:103060003AEF18F0B0EF17F0D89009360A360B3661
:103070000C360E060E50D8A440EF18F042EF18F0B0
:1030800034EF18F009C001F00AC002F00BC003F0E1
:103090000CC004F01200000E00018D6F000E8E6F48
:1030A000000E8F6F000E906F9590959EE4EC1CF0D3
:1030B000ADEC1CF0D4EC1CF08370030E5A6E7F0E46
:1030C000596E4C0EE82EFED7592EFCD75A2EFAD741
:1030D00005EC1DF0910E176E0F0E186E86EC1BF0AE
:1030E00001EC1DF0790E4D6E000E4E6ED60E4F6E39
:1030F0000F0E506E8DC051F08EC052F08FC053F045
:1031000090C054F0F0EC07F08DC045F08EC046F052
:103110008FC047F090C048F0000E496E000E4A6E16
:10312000200E4B6EC10E4C6E55EC1CF045C08DF060
:1031300046C08EF047C08FF048C090F0AA0E176EC0
:103140000F0E186E86EC1BF0790E176E000E186EBF
:1031500086EC1BF0FDEC1CF08CA0B1EF18F0B3EF87
:1031600018F0BBEF18F0B50E176E0F0E186E86EC48
:103170001BF0C1EF18F09E0E176E0F0E186E86EC46
:103180001BF0F9EC1CF083AEC8EF18F0CAEF18F092
:10319000D2EF18F0C00E176E0F0E186E86EC1BF0F3
:1031A0005CEF18F0CB0E176E0F0E186E86EC1BF04E
:1031B0005CEF18F024EF00F0333434343A6E3A50B8
:1031C000D8A4E5EF18F0E7EF18F0F1EF18F0000ED3
:1031D000316E000E326E000E336E000E346E5EEFF6
:1031E00019F031C035F032C036F033C037F034C09A
:1031F00038F0200E01EF19F0D890383237323632DD
:103200003532E82EFCEF18F03550396E338EFF0E54
:103210003116FF0E3216FF0E3316000E3416960EC0
:103220003A5E3ABE18EF19F016EF19F02EEF19F0CA
:103230003A50800A970FD8B020EF19F022EF19F01A
:1032400024EF19F0E7EF18F0D890343233323232ED
:1032500031323A3E24EF19F046EF19F01F0E3A646E
:1032600034EF19F036EF19F03EEF19F0E7EF18F0F0
:10327000D89031363236333634363A063A50D8A4FE
:1032800044EF19F046EF19F038EF19F03950D8B47F
:103290004CEF19F04EEF19F056EF19F0341E331EB3
:1032A000321E316C000E32223322342231C031F012
:1032B00032C032F033C033F034C034F01200000EAC
:1032C0000114096E000E02140A6E800E03140B6EB8
:1032D0007F0E04140C6E09500A100B100C10D8A4A9
:1032E00074EF19F076EF19F07EEF19F0000E016E11
:1032F000000E026E000E036E000E046E000E05142A
:10330000096E000E06140A6E800E07140B6E7F0EF7
:1033100008140C6E09500A100B100C10D8A493EF6F
:1033200019F095EF19F09DEF19F0000E056E000EE3
:10333000066E000E076E000E086E04AEA2EF19F0C6
:10334000A4EF19F0ADEF19F0016C021ED8B0022AFB
:10335000031ED8B0032A800E045608AEB2EF19F04F
:10336000B4EF19F0BDEF19F0056C061ED8B0062AAF
:10337000071ED8B0072A800E0856000E011A000E4C
:10338000021A000E031A800E041A000E051A000E0F
:10339000061A000E071A800E081A0550015C065026
:1033A00002580750035808500458D8B0DAEF19F003
:1033B000DCEF19F0DFEF19F0D890E0EF19F0D880CA
:1033C0001200000E0C6E0ABEEAEF19F0E8EF19F0D9
:1033D000F0EF19F0096C0A1ED8B00A2A010E0C6E23
:1033E00008BEF7EF19F0F5EF19F0FDEF19F0076CD3
:1033F000081ED8B0082A010E0C1A000E0E6E000E20
:103400000D6E09500A10D8B408EF1AF00AEF1AF03E
:1034100032EF1AF0010E0B6E12EF1AF0D890093647
:103420000A360B2A0AAE17EF1AF019EF1AF00EEF50
:103430001AF0D8900D360E360950075C0A5008581D
:10344000D8A025EF1AF027EF1AF02CEF1AF0095048
:10345000075E0A50085A0D80D8900A3209320B2EA6
:1034600019EF1AF00C50D8B438EF1AF03AEF1AF0FE
:103470003EEF1AF00D6C0E1ED8B00E2A0DC007F0EC
:103480000EC008F01200000E066E02BE4CEF1AF0DD
:103490004AEF1AF052EF1AF0016C021ED8B0022A5D
:1034A000010E066E04BE59EF1AF057EF1AF05DEFE9
:1034B0001AF0036C041ED8B0042A03500410D8B4C8
:1034C00064EF1AF066EF1AF08AEF1AF0010E056E3B
:1034D0006EEF1AF0D89003360436052A04AE73EF67
:1034E0001AF075EF1AF06AEF1AF00350015C0450FD
:1034F0000258D8A07EEF1AF080EF1AF084EF1AF08D
:103500000350015E0450025AD89004320332052E53
:1035100075EF1AF00650D8B490EF1AF092EF1AF047
:1035200096EF1AF0016C021ED8B0022A01C001F019
:1035300002C002F01200000E0114096E000E021407
:103540000A6E800E03140B6E7F0E04140C6E09506D
:103550000A100B100C10D8A4B0EF1AF0B2EF1AF04A
:10356000BAEF1AF0000E016E000E026E000E036E2E
:10357000000E046E000E0514096E000E06140A6E8D
:10358000800E07140B6E7F0E08140C6E09500A1083
:103590000B100C10D8A4CFEF1AF0D1EF1AF0D9EF1E
:1035A0001AF0000E056E000E066E000E076E000E7D
:1035B000086E055001180FE1065002180CE1075083
:1035C000031809E108500418D8B4E9EF1AF0EBEF3A
:1035D0001AF0EEEF1AF0D890EFEF1AF0D880120040
:1035E000000E096E000E0A6E000E0B6E000E0C6EC1
:1035F0000550061007100810D8B401EF1BF003EFB8
:103600001BF039EF1BF0010E0D6E0DEF1BF0D89083
:1036100005360636073608360D2A08AE12EF1BF0BF
:1036200014EF1BF007EF1BF0D89009360A360B3663
:103630000C360550015C06500258075003580850DC
:103640000458D8A026EF1BF028EF1BF031EF1BF039
:103650000550015E0650025A0750035A0850045A9A
:103660000980D89008320732063205320D2E14EF49
:103670001BF009C001F00AC002F00BC003F00CC03F
:1036800004F012000550061007100810D8B44BEFD4
:103690001BF04DEF1BF07DEF1BF0010E096E57EF95
:1036A0001BF0D8900536063607360836092A08AECC
:1036B0005CEF1BF05EEF1BF051EF1BF00550015C5F
:1036C000065002580750035808500458D8A06BEF12
:1036D0001BF06DEF1BF075EF1BF00550015E0650FF
:1036E000025A0750035A0850045AD8900832073239
:1036F00006320532092E5EEF1BF001C001F002C058
:1037000002F003C003F004C004F0120017C001F07F
:1037100018C002F02DEC1CF001C01BF002C01CF020
:10372000000E1E6E000E1D6EB5EF1BF0000E026E39
:10373000040E016E1D501724196E1E5018201A6EAB
:1037400019C0F6FF1AC0F7FF000EF86E0E0EF764F0
:1037500003D00800F55005D0F6CFD9FFF7CFDAFF38
:10376000DF506AEC15F01D4A1E2A1B501D5C1C50D0
:103770001E58D8A0BEEF1BF0C0EF1BF096EF1BF059
:103780001200000E0B6E000E0A6E08500910D8B41D
:10379000CCEF1BF0CEEF1BF0F6EF1BF0010E0C6E22
:1037A000D6EF1BF0D890083609360C2A09AEDBEFAD
:1037B0001BF0DDEF1BF0D2EF1BF0D8900A360B3672
:1037C0000850065C09500758D8A0E9EF1BF0EBEF52
:1037D0001BF0F0EF1BF00850065E0950075A0A80F4
:1037E000D890093208320C2EDDEF1BF00AC006F02B
:1037F0000BC007F0120003500410D8B402EF1CF005
:1038000004EF1CF028EF1CF0010E056E0CEF1CF00D
:10381000D89003360436052A04AE11EF1CF013EFDE
:103820001CF008EF1CF00350015C04500258D8A0B3
:103830001CEF1CF01EEF1CF022EF1CF00350015E89
:103840000450025AD89004320332052E13EF1CF0B4
:1038500001C001F002C002F0120001C003F002C07A
:1038600004F035EF1CF0034A042A03C0F6FF04C03D
:10387000F7FF000EF86E0E0EF76403D00800F55047
:1038800005D0F6CFD9FFF7CFDAFFDF500009D8A473
:103890004CEF1CF04EEF1CF033EF1CF00150035CBA
:1038A000016E02500458026E1200000E491A000EFA
:1038B0004A1A000E4B1A800E4C1A45C035F046C00D
:1038C00036F047C037F048C038F049C039F04AC038
:1038D0003AF04BC03BF04CC03CF08EEC0CF035C0E5
:1038E00045F036C046F037C047F038C048F0120007
:1038F0000150021003100410D8B481EF1CF083EFC4
:103900001CF08BEF1CF0000E011A000E021A000EC4
:10391000031A800E041A01C001F002C002F003C0B5
:1039200003F004C004F01200036E000E026E3A0EA3
:1039300003609DEF1CF09FEF1CF0A9EF1CF02F0E11
:103940000364A5EF1CF0A7EF1CF0A9EF1CF0010E1B
:10395000026E02C001F001301200BA90BA92BA941D
:10396000BA96BD90BD92BD94BD96C69AAB9E6B9E15
:10397000CD969A909A9293969490949294949496C9
:10398000120001500302F3CF05F0F4CF06F001500E
:103990000402F350062602500302F350062605C027
:1039A00001F006C002F01200020E37EC16F0280EED
:1039B00037EC16F00C0E37EC16F0060E37EC16F05E
:1039C000010E37EC16F01200070ED512D596D598D9
:1039D000D59AD58C000ED76E000ED66EF28AF28E76
:1039E000F28C12005C6A5B6A5D905D9200014BEFA5
:1039F00018F0D40E37EC16F01200940E37EC16F0D7
:103A00001200C00E37EC16F01200800E37EC16F0E4
:023A10001200A2
:020000040020DA
:08000000FFFFFFFFFFFFFFFF00
:020000040030CA
:0E000000FF220D0E830280FFFFC0FFE0FF40D5
:00000001FF
