:0600000000F0A3EFFFF089
:020000040001F9
:10FF46000001A6EFFFF0000E956E010E836E100EF7
:10FF5600026EDB0E016E640EE82EFED7012EFCD774
:10FF6600022EFAD700D0020E836E100E026EDB0E42
:10FF7600016E640EE82EFED7012EFCD7022EFAD7AC
:10FF860000D0040E836E100E026EDB0E016E640E40
:10FF9600E82EFED7012EFCD7022EFAD700D0080E87
:10FFA600836E100E026EDB0E016E640EE82EFED717
:10FFB600012EFCD7022EFAD700D0100E836E100E3B
:10FFC600026EDB0E016E640EE82EFED7012EFCD704
:10FFD600022EFAD700D0200E836E100E026EDB0EB4
:10FFE600016E640EE82EFED7012EFCD7022EFAD73C
:0AFFF60000D0A8EFFFF001EF00F0CB
:020000040020DA
:08000000FFFFFFFFFFFFFFFF00
:020000040030CA
:0E000000FF220D0E830280FFFFC0FFE0FF40D5
:00000001FF
