:0600000000F041EF1FF0CB
:100F000000494E2054484520574F524C442021213F
:100F1000212000424553542050524F4752414D4DDD
:100F2000455200252E326600494E46004E414E0085
:100F3000696E66006E616E006C660000000E000156
:100F4000756F000E746F30C086F031C087F032C00C
:100F500088F033C089F089BFB2EF07F0B0EF07F037
:100F6000C8EF07F0000E756F010E746F86C001F0B8
:100F700087C002F088C003F089C004F0EFEC1EF0D7
:100F800001C086F002C087F003C088F004C089F079
:100F9000000E00018D6F000E8C6F59C078F05AC0A2
:100FA00079F074517511D8A4D8EF07F0DAEF07F093
:100FB000E1EF07F05DA4DFEF07F0E1EF07F0FBEFF3
:100FC00007F074517511D8A4E8EF07F0EAEF07F0C5
:100FD000F0EF07F0000E616F2B0E606FF4EF07F07B
:100FE000000E616F2D0E606F60C000F18C4B8D2B79
:100FF0007807D8A0790786C001F087C002F088C0C2
:1010000003F089C004F06AEC1AF001040210D8A4BD
:101010000CEF08F00EEF08F059EF08F0BF0E356E38
:10102000FF0E366E3450376E386A355037263650DC
:101030003822385007E11A0E375CD8B022EF08F09A
:1010400024EF08F033EF08F0000E00018C25016E4C
:10105000010E8D21026E280E036E0F0E046E9DECA4
:101060001DF040EF08F0000E00018C25016E010E0E
:101070008D21026E300E036E0F0E046E9DEC1DF07E
:101080000001FD0E7827FF0E79232EC011F02FC02E
:1010900012F0000E136E010E146E78C015F079C0B8
:1010A00016F021EC1CF011C02EF012C02FF0A5EFAD
:1010B0000DF086C001F087C002F088C003F089C03F
:1010C00004F06AEC1AF001500210D8A46AEF08F09C
:1010D0006CEF08F0A0EF08F0BF0E356EFF0E366E15
:1010E0003450376E386A35503726365038223850EB
:1010F00007E11A0E375CD8B080EF08F082EF08F0F5
:1011000091EF08F0000E00018C25016E010E8D217B
:10111000026E2C0E036E0F0E046E9DEC1DF040EF60
:1011200008F0000E00018C25016E010E8D21026E6B
:10113000340E036E0F0E046E9DEC1DF040EF08F0B0
:10114000000E00018E6F000E8F6F800E906F3F0EAD
:10115000916F000E8B6F000E8A6F86C001F087C002
:1011600002F088C003F089C004F0000E056E000E86
:10117000066E000E076E000E086EDAEC1CF0D8B09A
:10118000C4EF08F0C6EF08F049EF09F0E5EF08F00A
:101190008EC001F08FC002F090C003F091C004F047
:1011A000000E056E000E066E200E076E410E086ED4
:1011B00035EC12F001C08EF002C08FF003C090F049
:1011C00004C091F000018A4B8B2B86C01AF087C0B7
:1011D0001BF088C01CF089C01DF0000E056E000ECB
:1011E000066E200E076E410E086E8EC001F08FC095
:1011F00002F090C003F091C004F035EC12F001C091
:101200001EF002C01FF003C020F004C021F0E8EC83
:1012100019F0D8B00EEF09F010EF09F0C8EF08F0A0
:1012200030EF09F08EC001F08FC002F090C003F0E3
:1012300091C004F0000E056E000E066E200E076EC3
:10124000410E086E4AEC14F001C08EF002C08FF01F
:1012500003C090F004C091F000018A07D8A08B076A
:1012600086C01AF087C01BF088C01CF089C01DF032
:101270008EC01EF08FC01FF090C020F091C021F0F2
:10128000E8EC19F0D8A047EF09F049EF09F012EFA8
:1012900009F034C007F0086A6BEC1EF0075000013B
:1012A0007B6F7BC07AF0670E7B19D8A45AEF09F0E8
:1012B0005CEF09F082EF09F05B505C10D8A463EF9B
:1012C00009F065EF09F069EF09F0000E5C6E010EA0
:1012D0005B6E5CBE76EF09F05C5006E15B04D8B053
:1012E00074EF09F076EF09F07CEF09F0000E776FEC
:1012F000060E766F8BEF09F05BC076F05CC077F07E
:101300008BEF09F05CBE87EF09F089EF09F076EF0B
:1013100009F07CEF09F0670E7B19D8A492EF09F071
:1013200094EF09F0C3EF09F08BAFA2EF09F0FC0EC8
:101330008A5DFF0E8B59D8A0A0EF09F0A2EF09F04B
:10134000C1EF09F0FF0E356EFF0E366E76C037F036
:1013500077C038F035503726365038228A51375CFE
:101360003850800A396E8B51800A3958D8A0BBEFAB
:1013700009F0BDEF09F0C1EF09F0660E7A6FC3EF17
:1013800009F0650E7A6F76C06CF077C06DF0670E6D
:101390007B19D8A4CEEF09F0D0EF09F0E0EF09F007
:1013A000660E7A19D8A4D7EF09F0D9EF09F0E2EF69
:1013B00009F08BBFE0EF09F0DEEF09F0E2EF09F092
:1013C0006C4B6D2B660E7A19D8A4E9EF09F0EBEFA0
:1013D00009F00BEF0AF08BBFF2EF09F0F0EF09F024
:1013E000FEEF09F0000E8E6F000E8F6F800E906F73
:1013F0003F0E916F000E8B6F000E8A6F670E7B1988
:10140000D8B405EF0AF007EF0AF00BEF0AF08A51A3
:101410006C278B516D23000E856F000E846F86C084
:101420007CF087C07DF088C07EF089C07FF08EC0E0
:101430006EF08FC06FF090C070F091C071F09CEFB3
:101440000AF07CC001F07DC002F07EC003F07FC0D6
:1014500004F08EC005F08FC006F090C007F091C078
:1014600008F04AEC14F001C01AF002C01BF003C0EF
:101470001CF004C01DF017EC16F01AC080F01BC061
:1014800081F01CC082F01DC083F080C001F081C0DB
:1014900002F082C003F083C004F065EC19F001C0D3
:1014A00072F002C073F07CC01AF07DC01BF07EC0E9
:1014B0001CF07FC01DF08EC005F08FC006F090C0FC
:1014C00007F091C008F080C001F081C002F082C036
:1014D00003F083C004F035EC12F001C01EF002C02E
:1014E0001FF003C020F004C021F08EEC1EF01AC0E3
:1014F0007CF01BC07DF01CC07EF01DC07FF08EC054
:1015000001F08FC002F090C003F091C004F0000E13
:10151000056E000E066E200E076E410E086E4AEC38
:1015200014F001C08EF002C08FF003C090F004C030
:1015300091F00001844B852B6C51845D8551800AAC
:10154000356E6D51800A3558D8A0A9EF0AF0ABEF7F
:101550000AF021EF0AF08EC001F08FC002F090C0B7
:1015600003F091C004F0000E056E000E066EA00E92
:10157000076E400E086E35EC12F001C080F002C01C
:1015800081F003C082F004C083F07CC01AF07DC0FB
:101590001BF07EC01CF07FC01DF080C01EF081C01B
:1015A0001FF082C020F083C021F0E8EC19F0D8B021
:1015B000DCEF0AF0DEEF0AF0E9EF0AF0000E0001BE
:1015C000806F000E816F000E826F000E836F12EF2E
:1015D0000BF07CC001F07DC002F07EC003F07FC044
:1015E00004F080C005F081C006F082C007F083C01F
:1015F00008F0DAEC1CF0D8A000EF0BF002EF0BF0D3
:1016000012EF0BF0000172B108EF0BF00AEF0BF0D4
:1016100012EF0BF0000E806F000E816F000E826FD4
:10162000000E836F86C001F087C002F088C003F00F
:1016300089C004F080C005F081C006F082C007F0C8
:1016400083C008F0A6EC0DF001C07CF002C07DF074
:1016500003C07EF004C07FF07CC01AF07DC01BF098
:101660007EC01CF07FC01DF0000E056E000E066EE1
:10167000200E076E410E086E6EC001F06FC002F0C2
:1016800070C003F071C004F035EC12F001C01EF020
:1016900002C01FF003C020F004C021F0E8EC19F0F4
:1016A000D8A055EF0BF057EF0BF080EF0BF00001D7
:1016B0008A4B8B2B6EC001F06FC002F070C003F03C
:1016C00071C004F0000E056E000E066E200E076E4F
:1016D000410E086E35EC12F001C06EF002C06FF0E2
:1016E00003C070F004C071F0660E00017A19D8A42E
:1016F0007CEF0BF07EEF0BF080EF0BF06C4B6D2B63
:101700006EC08EF06FC08FF070C090F071C091F01D
:10171000650E00017A19D8B490EF0BF092EF0BF040
:1017200098EF0BF08AC06AF08BC06BF09CEF0BF067
:10173000000E6B6F000E6A6F000E696F000E686F0F
:10174000000E676F000E666F000E856F000E846FCF
:1017500098EF0CF07CC001F07DC002F07EC003F079
:101760007FC004F08EC005F08FC006F090C007F077
:1017700091C008F04AEC14F001C01AF002C01BF04E
:1017800003C01CF004C01DF017EC16F01AC080F066
:101790001BC081F01CC082F01DC083F080C001F02E
:1017A00081C002F082C003F083C004F065EC19F040
:1017B00001C072F002C073F05DB8E1EF0BF0E3EF2F
:1017C0000BF001EF0CF0000172517311D8A4EBEF94
:1017D0000BF0EDEF0BF001EF0CF0670E7B19D8A4C6
:1017E000F4EF0BF0F6EF0BF001EF0CF06BBFFDEF39
:1017F0000BF0FBEF0BF001EF0CF0664B672B4CEF9F
:101800000CF0000168516911D8A409EF0CF00BEF3E
:101810000CF035EF0CF06BBF12EF0CF010EF0CF08A
:1018200035EF0CF0000E8C25D96E010E8D21DA6E8D
:101830002E0EDF6E8C4B8D2B7807D8A07907000E0B
:10184000696F010E686F35EF0CF0000E8C25D96EB4
:10185000010E8D21DA6E300EDF6E8C4B8D2B7807EA
:10186000D8A079076607D8A0670766516711D8A482
:101870003CEF0CF03EEF0CF025EF0CF0000E8C2549
:10188000D96E010E8D21DA6E7251300FDF6E8C4BE6
:101890008D2B7807D8A079077CC01AF07DC01BF08B
:1018A0007EC01CF07FC01DF08EC005F08FC006F01A
:1018B00090C007F091C008F080C001F081C002F034
:1018C00082C003F083C004F035EC12F001C01EF0BA
:1018D00002C01FF003C020F004C021F08EEC1EF007
:1018E0001AC07CF01BC07DF01CC07EF01DC07FF0D4
:1018F0008EC001F08FC002F090C003F091C004F0E0
:10190000000E056E000E066E200E076E410E086E6C
:101910004AEC14F001C08EF002C08FF003C090F0CA
:1019200004C091F000016A07D8A06B07844B852B97
:101930006C51845D8551800A356E6D51800A355831
:10194000D8B0A5EF0CF0A7EF0CF0B5EF0CF08DBF01
:10195000B3EF0CF08D5109E14B0E8C5DD8A0B3EFC5
:101960000CF0B5EF0CF0AAEF0BF068516911D8A498
:10197000BCEF0CF0BEEF0CF0CFEF0CF05DA8C3EFA6
:101980000CF0C5EF0CF0CFEF0CF0000E8C25D96EEB
:10199000010E8D21DA6E2E0EDF6E8C4B8D2B000E1C
:1019A0008C25D96E010E8D21DA6E000EDF6E650E6C
:1019B0007A19D8A4DEEF0CF0E0EF0CF045EF08F058
:1019C000000E856F4F0E846F000E8425D96E010EB8
:1019D0008521DA6E000EDF6E000E756F000E746FDB
:1019E0008BBFF7EF0CF0F5EF0CF0FFEF0CF0000EF3
:1019F000756F010E746F8A6D8B1FD8B08B2B000E24
:101A0000776F020E766F30EF0DF08407D8A0850750
:101A1000000E8425D96E010E8521DA6E8AC001F090
:101A20008BC002F0000E046E0A0E036E82EC1CF0F6
:101A30000150300FDF6E8AC001F08BC002F0000E43
:101A4000046E0A0E036EBFEC1BF001C08AF002C0E8
:101A50008BF000017607D8A077077807D8A0790720
:101A60008A518B11D8A437EF0DF039EF0DF005EF47
:101A70000DF077BF46EF0DF0775106E17605D8B04F
:101A800044EF0DF046EF0DF005EF0DF08407D8A000
:101A9000850774517511D8A450EF0DF052EF0DF079
:101AA00058EF0DF0000E636F2B0E626F5CEF0DF0C0
:101AB000000E636F2D0E626F000E8425D96E010E2D
:101AC0008521DA6E62C0DFFF7807D8A07907840726
:101AD000D8A08507BF0E356EFF0E366E3450376EB8
:101AE000386A3550372636503822385009E11A0EF8
:101AF000375CD8A07EEF0DF080EF0DF086EF0DF093
:101B0000000E656F650E646F8AEF0DF0000E656F55
:101B1000450E646F000E8425D96E010E8521DA6EA4
:101B200064C0DFFF7807D8A07907000E8C25016E0E
:101B3000010E8D21026E000E8425036E010E85219B
:101B4000046E9DEC1DF045EF08F012000450800B70
:101B50000D6E045004240F6E03AEB1EF0DF0B3EF21
:101B60000DF0B4EF0DF00F800F50D8B4BAEF0DF0B8
:101B7000BCEF0DF0D1EF0DF00F28D8A4C2EF0DF09F
:101B8000C4EF0DF0CCEF0DF0000E016E000E026EF2
:101B9000000E036E000E046E038E000E046ED9EF6D
:101BA0000DF0000E016E000E026E000E036E000EB0
:101BB000046E0850800B0E6E0D500E18D8B4E3EF73
:101BC0000DF0E5EF0DF0E6EF0DF00D8C0850082458
:101BD0000E6E07AEEEEF0DF0F0EF0DF0F1EF0DF041
:101BE0000E800E50D8B4F7EF0DF0F9EF0DF00EEFB8
:101BF0000EF00E28D8A4FFEF0DF001EF0EF009EF64
:101C00000EF0000E056E000E066E000E076E000E42
:101C1000086E078E000E086E16EF0EF0000E056EB1
:101C2000000E066E000E076E000E086E0F500E5C62
:101C3000D8B01DEF0EF01FEF0EF046EF0EF00DAC1A
:101C400024EF0EF026EF0EF028EF0EF0800E0D1AA6
:101C50000FC010F00EC00FF010C00EF001C010F059
:101C600005C001F010C005F002C010F006C002F07F
:101C700010C006F003C010F007C003F010C007F05A
:101C800004C010F008C004F010C008F0000E106E80
:101C90000F500EC009F00A6A095E000E0A5A0ABE09
:101CA0005BEF0EF00A5009E11A0E095CD8A05BEF59
:101CB0000EF05DEF0EF094EF0EF0015002100310E5
:101CC0000410D8A466EF0EF069EF0EF0010E6AEF73
:101CD0000EF0000E106E000E016E000E026E000E71
:101CE000036E000E046E0EC00FF09DEF0EF010A0FC
:101CF0007CEF0EF07EEF0EF084EF0EF0D8901030F7
:101D00000109106E86EF0EF0D890103201A08BEF13
:101D10000EF08DEF0EF08EEF0EF0108E04340432C4
:101D20000332023201320F2A0E500F5CD8A09BEF13
:101D30000EF09DEF0EF077EF0EF00DBCA2EF0EF05F
:101D4000A4EF0EF0E4EF0EF00F50D8A4AAEF0EF0BF
:101D5000ACEF0EF0B6EF0EF0000E016E000E026E4C
:101D6000000E036E000E046E05EF10F00550012604
:101D700006500222075003220850042204A0C3EF99
:101D80000EF0C5EF0EF071EF0FF010A0CAEF0EF0DD
:101D9000CCEF0EF0D2EF0EF0D89010300109106E9B
:101DA000D4EF0EF0D890103201A0D9EF0EF0DBEF97
:101DB0000EF0DCEF0EF0108E0434043203320232E7
:101DC00001320F2A71EF0FF00550015C06500258E6
:101DD000075003580450800A096E0850800A0958B9
:101DE000D8B0F5EF0EF0F7EF0EF022EF0FF0015044
:101DF000055C096E025006580A6E035007580B6EB8
:101E0000045008580C6EFF0E0924016EFF0E0A20C4
:101E1000026EFF0E0B20036EFF0E0C20046E800E70
:101E20000D1A106C1050D8A418EF0FF01AEF0FF025
:101E30002AEF0FF0010E0126000E022203220422D7
:101E40002AEF0FF00550015E0650025A0750035A60
:101E50000850045A0150021003100410D8A433EFA4
:101E60000FF035EF0FF06AEF0FF01050D8A43BEFF2
:101E70000FF03DEF0FF06AEF0FF0000E016E000E55
:101E8000026E000E036E000E046E05EF10F0D89087
:101E9000013602360336043610AE51EF0FF053EF21
:101EA0000FF054EF0FF0018010A059EF0FF05BEF2F
:101EB0000FF05FEF0FF0D880103661EF0FF0D89081
:101EC00010360F50D8B467EF0FF069EF0FF06AEFDC
:101ED0000FF00F0603AE6FEF0FF071EF0FF047EF4B
:101EE0000FF0000E0E6E10AE78EF0FF07AEF0FF0DD
:101EF00092EF0FF010C009F07F0E0916D8B483EFEF
:101F00000FF085EF0FF089EF0FF0010E0E6E92EFDC
:101F10000FF001A08EEF0FF090EF0FF092EF0FF0A7
:101F200085EF0FF00E50D8B498EF0FF09AEF0FF046
:101F3000C5EF0FF0010E0126000E0222032204223B
:101F400004A0A5EF0FF0A7EF0FF0C5EF0FF001C051
:101F500009F002C00AF003C00BF004C00CF00C340E
:101F60000C320B320A32093209C001F00AC002F009
:101F70000BC003F00CC004F00F28D8B4C2EF0FF070
:101F8000C4EF0FF0C5EF0FF00F2A0F28D8B4CBEF36
:101F90000FF0CDEF0FF0D5EF0FF00F50D8A4D3EF27
:101FA0000FF0D5EF0FF0E7EF0FF0000E016E000E0F
:101FB000026E000E036E000E046E0F50D8A4E3EF05
:101FC0000FF0E5EF0FF0E7EF0FF0000E0D6E0FA032
:101FD000ECEF0FF0EEEF0FF0F1EF0FF0038EF2EFFA
:101FE0000FF0039ED8900F30046E0DAEFAEF0FF095
:101FF000FCEF0FF0FDEF0FF0048E01C001F002C006
:1020000002F003C003F004C004F0120094C0D9FF32
:1020100095C0DAFFDECFF6FFDDCFF7FF000EF86EDA
:102020000800F550250AD8A418EF10F01AEF10F0A8
:1020300017EF12F094C0D9FF95C0DAFFDE2A000E28
:10204000DD22000E5A6E000E596E59C05DF05AC066
:102050005EF05B685C6894C0D9FF95C0DAFFDECFA4
:10206000F6FFDDCFF7FF000EF86E0800F5502E0AE0
:10207000D8A43DEF10F03FEF10F0B3EF10F0000EDA
:102080005C6E000E5B6E94C0D9FF95C0DAFFDE2A4D
:10209000000EDD2294C0D9FF95C0DAFFDECFF6FF37
:1020A000DDCFF7FF000EF86E0800F5502A0AD8A41D
:1020B0005CEF10F05EEF10F07BEF10F094C0D9FFF2
:1020C00095C0DAFFDE2A000EDD2296C0D9FF97C048
:1020D000DAFFDFCF3AF0020EDE26DFCF3BF0000E54
:1020E000DD223AC0D9FF3BC0DAFFDECF5BF0DDCFA7
:1020F0005CF0B3EF10F094C0D9FF95C0DAFFDECFEB
:1021000008F0DDCF09F0B0EC18F008C05BF009C0B2
:102110005CF092EF10F094C0D9FF95C0DAFFDE2A90
:10212000000EDD22D00E3A6EFF0E3B6E94C0D9FF3A
:1021300095C0DAFFDECFF6FFDDCFF7FF000EF86EB9
:102140000800F5503C6E3D6A3A503C263B503D221B
:102150003D5009E10A0E3C5CD8A0B1EF10F0B3EF9E
:1021600010F08BEF10F094C0D9FF95C0DAFFDECFEE
:10217000F6FFDDCFF7FF000EF86E0800F550076E92
:10218000086A6BEC1EF00750426E4250D8B4CBEF99
:1021900010F0CDEF10F009EF11F094C0D9FF95C009
:1021A000DAFFDECF3AF0DDCF3BF0010E3A26000E2B
:1021B0003B223AC0F6FF3BC0F7FF000EF86E080066
:1021C000F550076E086A6BEC1EF00750436E4350E3
:1021D000D8B4EDEF10F0EFEF10F009EF11F094C06C
:1021E000D9FF95C0DAFFDECF3AF0DDCF3BF0020E2B
:1021F0003A26000E3B223AC0F6FF3BC0F7FF000E26
:10220000F86E0800F550076E086A6BEC1EF0075078
:10221000446E660E4218D8A410EF11F012EF11F0C0
:1022200054EF11F094C0D9FF95C0DAFFDECFF6FF6E
:10223000DDCFF7FF000EF86E0800F5CF45F094C033
:10224000D9FF95C0DAFFDE2A000EDD2296C0D9FF45
:1022500097C0DAFFDFCF3AF0040EDE26DFCF3BF087
:10226000000EDD223AC0D9FF3BC0DAFFDECF3EF0E0
:10227000DECF3FF0DECF40F0DECF41F092C02EF057
:1022800093C02FF03EC030F03FC031F040C032F07C
:1022900041C033F045C034F09EEC07F02EC092F000
:1022A0002FC093F034EF12F0420E016E000E026E5A
:1022B000380E036E0F0E046E000E066E020E056ED3
:1022C000E9EC1AF001500210D8A469EF11F06BEF9D
:1022D00011F0DDEF11F094C0D9FF95C0DAFFDECF29
:1022E0003AF0DDCF3BF0010E3A26000E3B223AC019
:1022F000F6FF3BC0F7FF000EF86E0800F5CF45F083
:10230000BF0E3A6EFF0E3B6E94C0D9FF95C0DAFF48
:10231000DECFF6FFDDCFF7FF000EF86E0800F550B8
:102320003C6E3D6A3A503C263B503D223D5007E111
:102330001A0E3C5CD8B09FEF11F0A1EF11F0BBEF8B
:1023400011F096C0D9FF97C0DAFFDFCF3AF0040E44
:10235000DE26DFCF3BF0000EDD223AC0D9FF3BC0C6
:10236000DAFFDECF3EF0DECF3FF0DECF40F0DECF53
:1023700041F0D3EF11F096C0D9FF97C0DAFFDFCF5D
:102380003AF0040EDE26DFCF3BF0000EDD223AC02D
:10239000D9FF3BC0DAFFDECF3EF0DECF3FF0DECF2D
:1023A00040F0DECF41F0020E94C0D9FF95C0DAFFB5
:1023B000DE26000EDD223EEF11F094C0D9FF95C05D
:1023C000DAFFDECFF6FFDDCFF7FF000EF86E080074
:1023D000F550250AD8A4EFEF11F0F1EF11F009EF55
:1023E00012F094C0D9FF95C0DAFFDE2A000EDD227C
:1023F000000E026E250E016E92C003F093C004F031
:102400005AEC1BF0000E0001936F010E926F34EF37
:1024100012F094C0D9FF95C0DAFFDE2A000EDD224B
:10242000000E0001936F000E926F34EF12F094C013
:10243000D9FF95C0DAFFDECFF6FFDDCFF7FF000E44
:10244000F86E0800F550016E026A92C003F093C066
:1024500004F05AEC1BF094C0D9FF95C0DAFFDE2AD5
:10246000000EDD2202EF12F012000450800B0D6E00
:1024700004500424136E03AE40EF12F042EF12F04A
:1024800043EF12F013801350D8B449EF12F04BEF22
:1024900012F05EEF12F01328D8A451EF12F053EFB0
:1024A00012F05BEF12F0000E016E000E026E000ED5
:1024B000036E000E046E038E66EF12F0000E016EC6
:1024C000000E026E000E036E000E046E0850800BAC
:1024D0000D1A08500824126E07AE71EF12F073EF58
:1024E00012F074EF12F012801250D8B47AEF12F09A
:1024F0007CEF12F08FEF12F01228D8A482EF12F0C6
:1025000084EF12F08CEF12F0000E056E000E066ED6
:10251000000E076E000E086E078E97EF12F0000E89
:10252000056E000E066E000E076E000E086E12504D
:10253000D8B49DEF12F09FEF12F0A7EF12F01350F6
:10254000D8A4A5EF12F0A7EF12F0B1EF12F0000E31
:10255000016E000E026E000E036E000E046E49EF57
:1025600014F007500102F3CF18F0F4CF19F018500F
:102570000E6E0F6A106A116A1950146E156A166A87
:10258000176A06500202F3CF18F0F4CF19F0185072
:102590000E26000E0F221022112219501426000EB2
:1025A00015221622172205500302F3CF18F0F4CF9C
:1025B00019F018500E26000E0F2210221122195069
:1025C0001426000E15221622172210C011F00FC07B
:1025D00010F00EC00FF00E6A05500202F3CF18F093
:1025E000F4CF19F018500E2619500F22000E1022A9
:1025F000000E112206500102F3CF18F0F4CF19F0AB
:1026000018500E2619500F22000E1022000E112213
:1026100010C011F00FC010F00EC00FF00E6A055080
:102620000102F3CF18F0F4CF19F018500E2619500C
:102630000F22000E1022000E112207500202F3CFCB
:1026400018F0F4CF19F01850142619501522000E66
:102650001622000E172206500302F3CF18F0F4CF13
:1026600019F01850142619501522000E1622000ECB
:10267000172207500302F3CF18F0F4CF19F01850C7
:10268000096E19500A6E0B6A0C6A0BC00CF00AC076
:102690000BF009C00AF0096A095014260A501522E5
:1026A0000B5016220C5017220EC009F00FC00AF072
:1026B00010C00BF011C00CF0190E64EF13F0D8909D
:1026C0000C320B320A320932E82E5FEF13F0095058
:1026D00014260A5015220B5016220C50172210C037
:1026E00011F00FC010F00EC00FF00E6A125013C0A0
:1026F00009F00A6A0926000E0A22820E0924186EC1
:10270000FF0E0A20196E9AEF13F0D8901436153682
:102710001636173611AE8FEF13F091EF13F092EFDC
:1027200013F01480D8900E360F3610361136180676
:10273000D8A0190616AE9FEF13F0A1EF13F085EFA6
:1027400013F0000E126E11AEA8EF13F0AAEF13F003
:10275000CEEF13F0FF0E0E14096EFF0E0F140A6E6B
:10276000FF0E10140B6E7F0E11140C6E09500A1020
:102770000B100C10D8B4BFEF13F0C1EF13F0C5EF7E
:1027800013F0010E126ECEEF13F014A0CAEF13F087
:10279000CCEF13F0CEEF13F0C1EF13F01250D8B41A
:1027A000D4EF13F0D6EF13F0FAEF13F0010E142666
:1027B000000E15221622172217A0E1EF13F0E3EF07
:1027C00013F0FAEF13F014C009F015C00AF016C0A8
:1027D0000BF017C00CF00C340C320B320A320932F9
:1027E00009C014F00AC015F00BC016F00CC017F0A9
:1027F000184A192A19BE05EF14F0195008E11828D3
:10280000D8A005EF14F007EF14F011EF14F0000E4C
:10281000146E000E156E800E166E7F0E176E3FEF53
:1028200014F019BE1EEF14F0195006E11804D8B0C8
:102830001CEF14F01EEF14F02AEF14F0000E146ECB
:10284000000E156E000E166E000E176E000E0D6E49
:102850003FEF14F018C013F0FF0E1416FF0E1516FC
:102860007F0E1616000E171613A039EF14F03BEF6B
:1028700014F03CEF14F0168ED8901330176E0D50F4
:10288000171214C001F015C002F016C003F017C0F3
:1028900004F012000450800B116E04500424186ED2
:1028A00003AE55EF14F057EF14F058EF14F0188002
:1028B0001850D8B45EEF14F060EF14F075EF14F018
:1028C0001828D8A466EF14F068EF14F070EF14F035
:1028D000000E016E000E026E000E036E000E046EFE
:1028E000038E000E046E7DEF14F0000E016E000EDC
:1028F000026E000E036E000E046E0850800B111A5B
:1029000008500824196E07AE88EF14F08AEF14F00F
:102910008BEF14F019801950D8B491EF14F093EFA5
:1029200014F0A8EF14F01928D8A499EF14F09BEF35
:1029300014F0A3EF14F0000E056E000E066E000EEC
:10294000076E000E086E078E000E086EB0EF14F0D2
:10295000000E056E000E066E000E076E000E086E6D
:102960000550061007100810D8A4B9EF14F0BBEFFB
:1029700014F0D3EF14F0000E016E000E026E000E84
:10298000036E000E046E800E03127F0E04121150AF
:10299000041201C001F002C002F003C003F004C041
:1029A00004F016EF16F01850D8A4D9EF14F0DBEFAE
:1029B00014F0E5EF14F0000E016E000E026E000E32
:1029C000036E000E046E16EF16F0195018C009F0D1
:1029D0000A6A095E000E0A5A7F0E0924126E000E62
:1029E0000A20136E01C00DF002C00EF003C00FF0FC
:1029F00004C010F0000E016E000E026E000E036E99
:102A0000000E046E000E146E000E156E000E166E93
:102A1000000E176E000E196E46EF15F01950D8B45F
:102A200014EF15F016EF15F02DEF15F0D8900D36C8
:102A30000E360F361036D89001360236033604367D
:102A400017AE25EF15F027EF15F028EF15F00180F0
:102A5000D890143615361636173605500D5C0650CC
:102A60000E5807500F5808501058D8A03AEF15F0DC
:102A70003CEF15F045EF15F0178C05500D5E065034
:102A80000E5A07500F5A0850105A192A190E196475
:102A90004CEF15F04EEF15F00EEF15F00D500E1037
:102AA0000F101010D8B457EF15F059EF15F071EF63
:102AB00015F0148071EF15F0D89001360236033608
:102AC000043617AE66EF15F068EF15F069EF15F0F4
:102AD0000180D89014361536163617361206D8A04F
:102AE000130603AE76EF15F078EF15F05CEF15F0F6
:102AF000000E196E17AE7FEF15F081EF15F0A5EF00
:102B000015F0FF0E1414096EFF0E15140A6EFF0E59
:102B100016140B6E7F0E17140C6E09500A100B1052
:102B20000C10D8B496EF15F098EF15F09CEF15F057
:102B3000010E196EA5EF15F001A0A1EF15F0A3EF9E
:102B400015F0A5EF15F098EF15F01950D8B4ABEFCC
:102B500015F0ADEF15F0D1EF15F0010E0126000EC6
:102B600002220322042204A0B8EF15F0BAEF15F0F8
:102B7000D1EF15F001C009F002C00AF003C00BF05C
:102B800004C00CF00C340C320B320A32093209C08A
:102B900001F00AC002F00BC003F00CC004F0124AAE
:102BA000132A13BEDCEF15F0135008E11228D8A049
:102BB000DCEF15F0DEEF15F0E9EF15F0000E136E07
:102BC0001268000E016E000E026E000E036E000E03
:102BD000046E13BEF6EF15F0135006E11204D8B0E0
:102BE000F4EF15F0F6EF15F004EF16F0000E136E8B
:102BF000000E126E000E016E000E026E000E036ECD
:102C0000000E046E000E116E12C018F018A00BEF2B
:102C100016F00DEF16F010EF16F0038E11EF16F010
:102C2000039ED8901830046EC7EF14F01200BEC097
:102C30002AF0BFC02BF0C0C02CF0C1C02DF01AC0CC
:102C40002AF01BC02BF01CC02CF01DC02DF0810EF3
:102C50001E6EFF0E1F6E2AC020F02BC021F02CC06C
:102C600022F02DC023F0180E3BEF16F0D89023323F
:102C7000223221322032E82E36EF16F020501E2468
:102C8000286E000E1F20296E29BE50EF16F0295025
:102C900009E1170E285CD8A050EF16F052EF16F09D
:102CA0005CEF16F01AC01AF01BC01BF01CC01CF021
:102CB0001DC01DF01FEF17F029BE61EF16F063EF86
:102CC00016F0D3EF16F028C01EF0FF0E1F6EFF0E99
:102CD000206E7F0E216E000E226E1E6672EF16F0C1
:102CE0007AEF16F022342232213220321F321E2E89
:102CF0006DEF16F01FC024F020C025F021C026F093
:102D000022C027F024502A141E6E25502B141F6E4B
:102D100026502C14206E27502D14216E1E501F108B
:102D200020102110D8A497EF16F099EF16F09BEF22
:102D300016F052EF16F02AC01EF02BC01FF02CC068
:102D400020F02DC021F0200EABEF16F0D8902132EC
:102D500020321F321E32E82EA6EF16F01E501F1032
:102D600020102110D8B4B7EF16F0B9EF16F0C1EF6C
:102D700016F024502A2625502B2226502C2227508C
:102D80002D22241C1E6E251C1F6E261C206E271C47
:102D9000216E1E502A161F502B1620502C16215023
:102DA0002D1617EF17F02AC01EF02BC01FF02CC0F5
:102DB00020F02DC021F0200EE3EF16F0D890213244
:102DC00020321F321E32E82EDEEF16F01E501F108A
:102DD00020102110D8A4EFEF16F0F1EF16F0FBEF62
:102DE00016F0000E2A6E000E2B6E000E2C6E000EDA
:102DF0002D6E17EF17F0D8902A341E6E2B341F6EED
:102E00002C34206E2D34216E1E501F1020102110E6
:102E1000D8B40DEF17F00FEF17F017EF17F0000E03
:102E20002A6E000E2B6E800E2C6EBF0E2D6E2AC0E9
:102E30001AF02BC01BF02CC01CF02DC01DF012008E
:102E4000096E09C012F0040E01180210D8A42BEF6D
:102E500017F02DEF17F0ECEF17F012380F0B126E82
:102E6000000E146E000E136E13C003F013C004F0B6
:102E7000010E056E042A3FEF17F0D8900536042E98
:102E80003DEF17F005501214066E032A4AEF17F0B3
:102E9000D8900632032E48EF17F00650076E086AE6
:102EA000D8901334D96E1434DA6E0A0ED926000E77
:102EB000DA2207C0DEFF08C0DDFF134A142A14BE61
:102EC0006BEF17F0145009E1040E135CD8A06BEF00
:102ED00017F06DEF17F034EF17F00AB002D09790AB
:102EE00001D097800CB002D0979201D097820EB09B
:102EF00002D0999801D0998810B002D0999A01D047
:102F0000998A8882819688800D0E036EC30EE82E02
:102F1000FED7032EFCD700F0889009C012F0000EF7
:102F2000166E000E156E15C003F015C004F0010EEC
:102F3000056E042A9EEF17F0D8900536042E9CEFFC
:102F400017F005501214066E032AA9EF17F0D89057
:102F50000632032EA7EF17F00650076E086AD890C6
:102F60001534D96E1634DA6E0A0ED926000EDA221E
:102F700007C0DEFF08C0DDFF154A162A16BECAEFDD
:102F800017F0165009E1040E155CD8A0CAEF17F02F
:102F9000CCEF17F093EF17F00AB002D0979001D062
:102FA00097800CB002D0979201D097820EB002D0D9
:102FB000999801D0998810B002D0999A01D0998A35
:102FC0008882819688800D0E036EC30EE82EFED790
:102FD000032EFCD700F088901200076E07C010F097
:102FE00010380F0B106E000E126E000E116E11C015
:102FF00001F011C002F0010E036E022A02EF18F078
:10300000D8900336022E00EF18F003501014046E0F
:10301000012A0DEF18F0D8900432012E0BEF18F0B2
:103020000450056E066AD8901134D96E1234DA6EE7
:10303000080ED926000EDA2205C0DEFF06C0DDFF2D
:10304000114A122A12BE2EEF18F0125009E1040E96
:10305000115CD8A02EEF18F030EF18F0F7EF17F052
:1030600008B002D0979001D097800AB002D0979212
:1030700001D097820CB002D0999801D099880EB0F7
:1030800002D0999A01D0998A8892819688800D0EF3
:10309000016EC30EE82EFED7012EFCD700F08890FB
:1030A00007C010F0000E146E000E136E13C001F076
:1030B00013C002F0010E036E022A61EF18F0D890DF
:1030C0000336022E5FEF18F003501014046E012A2D
:1030D0006CEF18F0D8900432012E6AEF18F004500B
:1030E000056E066AD8901334D96E1434DA6E080E61
:1030F000D926000EDA2205C0DEFF06C0DDFF134A26
:10310000142A14BE8DEF18F0145009E1040E135C5C
:10311000D8A08DEF18F08FEF18F056EF18F008B028
:1031200002D0979001D097800AB002D0979201D038
:1031300097820CB002D0999801D099880EB002D035
:10314000999A01D0998A8892819688800D0E016E95
:10315000C30EE82EFED7012EFCD700F08890120097
:10316000000E116E000E106E000E0F6E000E0E6E31
:10317000BCEF18F0084A092A08C0F6FF09C0F7FF9B
:10318000000EF86E0800F550200AD8B4CAEF18F007
:10319000CCEF18F0BAEF18F0F70E0A6EFF0E0B6EB8
:1031A00008C0F6FF09C0F7FF000EF86E0800F550E2
:1031B0000C6E0D6A0A500C260B500D220D5009E1C1
:1031C000050E0C5CD8A0E7EF18F0E9EF18F0BAEFA5
:1031D00018F0F3EF18F0000E0F6E010E0E6E084A95
:1031E000092A2CEF19F008C0F6FF09C0F7FF000EFE
:1031F000F86E0800F5500A6E0B6A0B50000AD8B43E
:1032000004EF19F02CEF19F00A502B0AD8B4EFEFA5
:1032100018F0060AD8B4EBEF18F02CEF19F010C034
:1032200001F011C002F0000E046E0A0E036E57EC9E
:103230001FF008C0F6FF09C0F7FF000EF86E080087
:10324000F550015E000E025A300E0124106E000E81
:103250000220116EEFEF18F0D00E0A6EFF0E0B6E0B
:1032600008C0F6FF09C0F7FF000EF86E0800F55021
:103270000C6E0D6A0A500C260B500D220D5009E100
:103280000A0E0C5CD8A047EF19F049EF19F00FEFC8
:1032900019F00E500F10D8A450EF19F052EF19F09A
:1032A00060EF19F010C00AF011C00BF00A1E0B1EDF
:1032B0000A4A0B2A0AC008F00BC009F064EF19F0A3
:1032C00010C008F011C009F01200033404340A6E73
:1032D0000A50D8A46EEF19F070EF19F07AEF19F0D8
:1032E000000E016E000E026E000E036E000E046EE4
:1032F000E7EF19F001C005F002C006F003C007F0C7
:1033000004C008F0200E8AEF19F0D8900832073276
:1033100006320532E82E85EF19F00550096E038E4E
:10332000FF0E0116FF0E0216FF0E0316000E041606
:10333000960E0A5E0ABEA1EF19F09FEF19F0B7EFE3
:1033400019F00A50800A970FD8B0A9EF19F0ABEF27
:1033500019F0ADEF19F070EF19F0D8900432033284
:10336000023201320A3EADEF19F0CFEF19F01F0E15
:103370000A64BDEF19F0BFEF19F0C7EF19F070EF55
:1033800019F0D89001360236033604360A060A5080
:10339000D8A4CDEF19F0CFEF19F0C1EF19F0095013
:1033A000D8B4D5EF19F0D7EF19F0DFEF19F0041EFC
:1033B000031E021E016C000E02220322042201C021
:1033C00001F002C002F003C003F004C004F01200D8
:1033D000000E1A14226E000E1B14236E800E1C1495
:1033E000246E7F0E1D14256E2250231024102510EC
:1033F000D8A4FDEF19F0FFEF19F007EF1AF0000E57
:103400001A6E000E1B6E000E1C6E000E1D6E000E5E
:103410001E14226E000E1F14236E800E2014246EC4
:103420007F0E2114256E2250231024102510D8A4BD
:103430001CEF1AF01EEF1AF026EF1AF0000E1E6EA7
:10344000000E1F6E000E206E000E216E1DAE2BEFC3
:103450001AF02DEF1AF036EF1AF01A6C1B1ED8B0C6
:103460001B2A1C1ED8B01C2A800E1D5621AE3BEF15
:103470001AF03DEF1AF046EF1AF01E6C1F1ED8B07E
:103480001F2A201ED8B0202A800E2156000E1A1A9C
:10349000000E1B1A000E1C1A800E1D1A000E1E1A9A
:1034A000000E1F1A000E201A800E211A1E501A5CE0
:1034B0001F501B5820501C5821501D58D8B063EF86
:1034C0001AF065EF1AF068EF1AF0D89069EF1AF069
:1034D000D880120055C00BF056C00CF057C00DF04C
:1034E00058C00EF001C00BF002C00CF003C00DF08C
:1034F00004C00EF00BC005F00CC006F00DC007F0C4
:103500000EC008F0180E8AEF1AF0D8900832073271
:1035100006320532E82E85EF1AF00550096E0A6A68
:1035200009500A10D8A497EF1AF099EF1AF0B9EFE2
:103530001AF0D8900B34056E0C34066E0D34076EFD
:103540000E34086E0550061007100810D8A4ABEF13
:103550001AF0ADEF1AF0B3EF1AF0000E026E020E81
:10356000016EE8EF1AF0000E026E030E016EE8EF36
:103570001AF009280A10D8A4C0EF1AF0C2EF1AF006
:10358000E4EF1AF00BC005F00CC006F00DC007F018
:103590000EC008F0090ED8900536063607360836F4
:1035A000E82ECBEF1AF00550061007100810D8B41B
:1035B000DCEF1AF0DFEF1AF0010EE0EF1AF0000E68
:1035C000016E026AE8EF1AF0000E026E040E016E40
:1035D000120001C008F002C009F003C00AF004C0E4
:1035E0000BF00506D8A00606052806E10628D8A493
:1035F000FCEF1AF0FEEF1AF00BEF1BF0000E026E5C
:10360000000E016E59EF1BF0084A092A0A4A0B2ADC
:103610000506D8A0060608C0D9FF09C0DAFFDF50AA
:10362000D8B415EF1BF017EF1BF046EF1BF00AC0E4
:10363000F6FF0BC0F7FF000EF86E0800F55000090A
:10364000D8B425EF1BF027EF1BF046EF1BF0055019
:103650000610D8B42EEF1BF030EF1BF046EF1BF036
:1036600008C0D9FF09C0DAFFDF50076E0AC0F6FFB5
:103670000BC0F7FF000EF86E0800F5500718D8B41D
:1036800044EF1BF046EF1BF004EF1BF008C0D9FF1E
:1036900009C0DAFFDF50076E0AC0F6FF0BC0F7FF64
:1036A000000EF86E0800F550075C016E026AD8A0A3
:1036B0000206120003500410D8B461EF1BF063EF50
:1036C0001BF06CEF1BF003500410D8A46AEF1BF042
:1036D0006CEF1BF071EF1BF001508AEC1FF0BEEF96
:1036E0001BF020EE09F00350D9260450DA22DE50F8
:1036F000DE10D8B47EEF1BF080EF1BF09BEF1BF0C9
:1037000020EE09F00350D9260450DA2210EE03F01F
:103710000350E1260450E222DE50E65CE650800AC7
:10372000096EDE50800A0958D8B099EF1BF09BEF64
:103730001BF0BEEF1BF020EE03F00350D92604501F
:10374000DA22DECF05F0DDCF06F003C0D9FF04C0DA
:10375000DAFFDECF07F0DDCF08F005500724D96E81
:1037600006500820DA6E01C0DFFF20EE03F00350A0
:10377000D9260450DA22DE2A000EDD221200000EC5
:10378000066E04BEC8EF1BF0C6EF1BF0CEEF1BF0B9
:10379000036C041ED8B0042A010E066E02BED5EFDB
:1037A0001BF0D3EF1BF0DBEF1BF0016C021ED8B057
:1037B000022A010E061A000E086E000E076E035054
:1037C0000410D8B4E6EF1BF0E8EF1BF010EF1CF08C
:1037D000010E056EF0EF1BF0D89003360436052A73
:1037E00004AEF5EF1BF0F7EF1BF0ECEF1BF0D890F9
:1037F000073608360350015C04500258D8A003EF86
:103800001CF005EF1CF00AEF1CF00350015E0450A1
:10381000025A0780D89004320332052EF7EF1BF0CE
:103820000650D8B416EF1CF018EF1CF01CEF1CF07B
:10383000076C081ED8B0082A07C001F008C002F0C3
:1038400012005DA026EF1CF028EF1CF032EF1CF0F8
:1038500013C00AF014C00BF011C00CF012C00DF030
:10386000B1EC1EF016BE37EF1CF039EF1CF03FEF45
:103870001CF015C01AF016C01BF043EF1CF0000E30
:103880001B6E000E1A6E000E196E000E186E55EFAC
:103890001CF0000E026E200E016E11C003F012C06B
:1038A00004F05AEC1BF0184A192A1A50185C1950E7
:1038B000800A176E1B50800A1758D8A062EF1CF0C0
:1038C00064EF1CF049EF1CF05DB069EF1CF06BEF8A
:1038D0001CF075EF1CF013C00AF014C00BF011C0FF
:1038E0000CF012C00DF0B1EC1EF013C001F014C0CA
:1038F00002F01EEC1EF01A500124116E1B50022023
:10390000126E1200000E066E02BE8BEF1CF089EFE5
:103910001CF091EF1CF0016C021ED8B0022A010EBF
:10392000066E04BE98EF1CF096EF1CF09CEF1CF0A6
:10393000036C041ED8B0042A03500410D8B4A3EFBB
:103940001CF0A5EF1CF0C9EF1CF0010E056EADEFE9
:103950001CF0D89003360436052A04AEB2EF1CF0F2
:10396000B4EF1CF0A9EF1CF00350015C04500258A6
:10397000D8A0BDEF1CF0BFEF1CF0C3EF1CF003504C
:10398000015E0450025AD89004320332052EB4EF7F
:103990001CF00650D8B4CFEF1CF0D1EF1CF0D5EFDF
:1039A0001CF0016C021ED8B0022A01C001F002C056
:1039B00002F01200000E0114096E000E02140A6ECD
:1039C000800E03140B6E7F0E04140C6E09500A1047
:1039D0000B100C10D8A4EFEF1CF0F1EF1CF0F9EF76
:1039E0001CF0000E016E000E026E000E036E000E43
:1039F000046E000E0514096E000E06140A6E800E89
:103A000007140B6E7F0E08140C6E09500A100B1071
:103A10000C10D8A40EEF1DF010EF1DF018EF1DF0E4
:103A2000000E056E000E066E000E076E000E086E8C
:103A3000055001180FE1065002180CE10750031859
:103A400009E108500418D8B428EF1DF02AEF1DF042
:103A50002DEF1DF0D8902EEF1DF0D880120017C06A
:103A600001F018C002F01EEC1EF001C01BF002C0F5
:103A70001CF0000E1E6E000E1D6E5EEF1DF0000E9F
:103A8000026E040E016E1D501724196E1E50182070
:103A90001A6E19C0F6FF1AC0F7FF000EF86E0E0E70
:103AA000F76403D00800F55005D0F6CFE1FFF7CF5B
:103AB000E2FFE75020EC17F01D4A1E2A1B501D5C48
:103AC0001C501E58D8A067EF1DF069EF1DF03FEFA6
:103AD0001DF012009AC046F09BC047F0000E000196
:103AE000C36F000EC26F88EF1DF098C092F099C0AE
:103AF00093F0460E946F000E956F9CC096F09DC09B
:103B000097F006EC10F000019251C2279351C323A5
:103B100046C0F6FF47C0F7FF000EF86E0800F550EC
:103B20000009D8A496EF1DF098EF1DF075EF1DF079
:103B3000C2C098F0C3C099F0120003C007F004C0DF
:103B400008F001C009F002C00AF00750056E0850E5
:103B5000066E074A082A05C0F6FF06C0F7FF000EEA
:103B6000F86E09C0D9FF0AC0DAFF094A0A2A0E0E08
:103B7000F76403D00800F55005D0F6CFE1FFF7CF8A
:103B8000E2FFE750DF6EDF50D8A4C9EF1DF0CBEFA6
:103B90001DF0A5EF1DF01200A20E486E000E496E3A
:103BA0009EC04AF09FC04BF0000E4E6E000E4D6E50
:103BB000000E546E000E536E4A0E0001986F000EF8
:103BC000996FA0C09AF0A1C09BF0480E9C6F000EA8
:103BD0009D6F6AEC1DF04D5000019E25D96E4E5030
:103BE0009F21DA6E000EDF6E1200010E076E200EAE
:103BF00001180210D8B4FFEF1DF001EF1EF01AEF0C
:103C00001EF0F70E036EFF0E046E01C005F002C039
:103C100006F00350052604500622065009E1050E61
:103C2000055CD8A016EF1EF018EF1EF01AEF1EF07C
:103C3000000E076E07C001F0026A120001C003F017
:103C400002C004F026EF1EF0014A022A01C0F6FF6E
:103C500002C0F7FF000EF86E0E0EF76403D00800E6
:103C6000F55005D0F6CFE1FFF7CFE2FFE7500009AE
:103C7000D8A43DEF1EF03FEF1EF024EF1EF00350DE
:103C8000015C016E04500258026E12009A9E7AEC9A
:103C90001FF06AEC1FF0888E86EC1FF0130E176E73
:103CA0000F0E186E2FEC1DF082EC1FF0010E176E38
:103CB0000F0E186E2FEC1DF0000E0001A66F000E07
:103CC000A76F000EA86F410EA96F27EC1FF04BEFF6
:103CD0001EF001EF00F0BF0E096EFF0E0A6E07C066
:103CE0000BF008C00CF009500B260A500C220C50A7
:103CF00007E11A0E0B5CD8B080EF1EF082EF1EF0C9
:103D000089EF1EF0200E0710076E0850086E8DEF29
:103D10001EF007C007F008C008F01200000E1E1ABF
:103D2000000E1F1A000E201A800E211A1AC001F070
:103D30001BC002F01CC003F01DC004F01EC005F043
:103D40001FC006F020C007F021C008F0A6EC0DF05F
:103D500001C01AF002C01BF003C01CF004C01DF02B
:103D60001200000E106E000E0F6EC2EF1EF00EC09D
:103D700001F0026A0CC003F00DC004F05AEC1BF015
:103D80000F4A102A0F500A24D96E10500B20DA6EF9
:103D9000DF500E6E0E50D8A4D0EF1EF0D2EF1EF002
:103DA000B7EF1EF01200BF0E036EFF0E046E01C0CF
:103DB00005F002C006F00350052604500622065006
:103DC0000AE11A0E055CD8A0E8EF1EF0EBEF1EF03A
:103DD000010EECEF1EF0000E016E026A120001509F
:103DE000021003100410D8B4F8EF1EF0FAEF1EF022
:103DF00002EF1FF0000E011A000E021A000E031A45
:103E0000800E041A01C001F002C002F003C003F0EA
:103E100004C004F01200D00E036EFF0E046E01C049
:103E200005F002C006F00350052604500622065095
:103E30000AE10A0E055CD8A020EF1FF023EF1FF067
:103E4000010E24EF1FF0000E016E026A1200AA0E8E
:103E500000019E6F000E9F6F230EA06F0F0EA16FCB
:103E6000A6C0A2F0A7C0A3F0A8C0A4F0A9C0A5F066
:103E7000CCEC1DF0AA0E176E000E186E2FEC1DF084
:103E8000120001EE00F0500EEE6AE806FDE10001BE
:103E9000C36BC26BC16BC06BBF6BBE6B00EE55F0EA
:103EA0000A0EEE6AE806FDE1000146EF1EF0015041
:103EB0000302F3CF05F0F4CF06F001500402F350F3
:103EC000062602500302F350062605C001F006C084
:103ED00002F01200020EEDEC17F0280EEDEC17F0D8
:103EE0000C0EEDEC17F0060EEDEC17F0010EEDECFC
:103EF00017F012009A909A929396979097929998A9
:103F0000999A1200C00EEDEC17F01200800EEDEC45
:063F100017F01200120080
:020000040020DA
:08000000FFFFFFFFFFFFFFFF00
:020000040030CA
:0E000000FF220D0E830280FFFFC0FFE0FF40D5
:00000001FF
