:0600000000F0FEEF23F00A
:100F0000002A2A2A504943313846383732302D508A
:100F1000574D2A2A2A0050574D2D5247302D435005
:100F200050333A2000252E306600494E46004E418F
:100F30004E00696E66006E616E006C660000000E09
:100F40000001856F000E846F66C096F067C097F051
:100F500068C098F069C099F099BFB3EF07F0B1EF9E
:100F600007F0C9EF07F0000E856F010E846F96C081
:100F700001F097C002F098C003F099C004F075EC3E
:100F800023F001C096F002C097F003C098F004C0AF
:100F900099F0000E00019D6F000E9C6FF5C088F067
:100FA000F6C089F084518511D8A4D9EF07F0DBEFA2
:100FB00007F0E2EF07F0F9A5E0EF07F0E2EF07F046
:100FC000FCEF07F084518511D8A4E9EF07F0EBEFAF
:100FD00007F0F1EF07F0000E716F2B0E706FF5EF59
:100FE00007F0000E716F2D0E706F70C000F19C4BFA
:100FF0009D2B8807D8A0890796C001F097C002F002
:1010000098C003F099C004F060EC1DF001040210D8
:10101000D8A40DEF08F00FEF08F059EF08F0BF0E5D
:1010200000016B6FFF0E6C6F6A516D6F6E6B6B51D1
:101030006D276C516E236E5107E11A0E6D5DD8B0AD
:1010400024EF08F026EF08F034EF08F0000E9C259E
:10105000016E010E9D21026E2A0E036E0F0E046EAC
:1010600020EC22F040EF08F0000E9C25016E010EEE
:101070009D21026E320E036E0F0E046E20EC22F0E4
:101080000001FD0E8827FF0E892364C011F065C0A2
:1010900012F0000E136E010E146E88C015F089C098
:1010A00016F0B5EC1EF011C064F012C065F0A3EFAD
:1010B0000DF096C001F097C002F098C003F099C0FF
:1010C00004F060EC1DF001500210D8A46AEF08F0A3
:1010D0006CEF08F09FEF08F0BF0E00016B6FFF0E82
:1010E0006C6F6A516D6F6E6B6B516D276C516E2317
:1010F0006E5107E11A0E6D5DD8B081EF08F083EFF5
:1011000008F091EF08F0000E9C25016E010E9D2164
:10111000026E2E0E036E0F0E046E20EC22F040EFD6
:1011200008F0000E9C25016E010E9D21026E360E08
:10113000036E0F0E046E20EC22F040EF08F0000E5C
:1011400000019E6F000E9F6F800EA06F3F0EA16F7B
:10115000000E9B6F000E9A6F96C001F097C002F0D0
:1011600098C003F099C004F0000E056E000E066EE4
:10117000000E076E000E086E30EC20F0D8B0C3EF02
:1011800008F0C5EF08F048EF09F0E4EF08F09EC062
:101190003CF09FC03DF0A0C03EF0A1C03FF0000E6B
:1011A000406E000E416E200E426E410E436E39ECD1
:1011B00012F03CC09EF03DC09FF03EC0A0F03FC08A
:1011C000A1F000019A4B9B2B96C055F097C056F0AA
:1011D00098C057F099C058F0000E406E000E416E56
:1011E000200E426E410E436E9EC03CF09FC03DF00B
:1011F000A0C03EF0A1C03FF039EC12F03CC059F065
:101200003DC05AF03EC05BF03FC05CF0DDEC1CF02E
:10121000D8B00DEF09F00FEF09F0C7EF08F02FEF8E
:1012200009F09EC023F09FC024F0A0C025F0A1C00B
:1012300026F0000E276E000E286E200E296E410E3D
:101240002A6E4EEC14F023C09EF024C09FF025C0FF
:10125000A0F026C0A1F000019A07D8A09B0796C075
:1012600055F097C056F098C057F099C058F09EC0FE
:1012700059F09FC05AF0A0C05BF0A1C05CF0DDEC5B
:101280001CF0D8A046EF09F048EF09F011EF09F083
:101290006AC007F0086AF1EC22F0075000018B6F7A
:1012A0008BC08AF0670E8B19D8A459EF09F05BEF59
:1012B00009F081EF09F0F751F811D8A462EF09F0B5
:1012C00064EF09F068EF09F0000EF86F010EF76F98
:1012D000F8BF75EF09F0F85106E1F705D8B073EFE4
:1012E00009F075EF09F07BEF09F0000E876F060E2D
:1012F000866F8AEF09F0F7C086F0F8C087F08AEFB2
:1013000009F0F8BF86EF09F088EF09F075EF09F0F2
:101310007BEF09F0670E8B19D8A491EF09F093EFDA
:1013200009F0C2EF09F09BAFA1EF09F0FC0E9A5D46
:10133000FF0E9B59D8A09FEF09F0A1EF09F0C0EF75
:1013400009F0FF0E6B6FFF0E6C6F86C06DF087C0EB
:101350006EF06B516D276C516E239A516D5D6E511D
:10136000800A6F6F9B51800A6F59D8A0BAEF09F0BD
:10137000BCEF09F0C0EF09F0660E8A6FC2EF09F00A
:10138000650E8A6F86C07CF087C07DF0670E8B1972
:10139000D8A4CDEF09F0CFEF09F0DFEF09F0660E2A
:1013A0008A19D8A4D6EF09F0D8EF09F0E1EF09F0D7
:1013B0009BBFDFEF09F0DDEF09F0E1EF09F07C4BB7
:1013C0007D2B660E8A19D8A4E8EF09F0EAEF09F040
:1013D0000AEF0AF09BBFF1EF09F0EFEF09F0FDEF24
:1013E00009F0000E9E6F000E9F6F800EA06F3F0EE3
:1013F000A16F000E9B6F000E9A6F670E8B19D8B409
:1014000004EF0AF006EF0AF00AEF0AF09A517C277F
:101410009B517D23000E956F000E946F96C08CF04B
:1014200097C08DF098C08EF099C08FF09EC07EF06E
:101430009FC07FF0A0C080F0A1C081F09BEF0AF0B8
:101440008CC023F08DC024F08EC025F08FC026F014
:101450009EC027F09FC028F0A0C029F0A1C02AF0AC
:101460004EEC14F023C03CF024C03DF025C03EF00B
:1014700026C03FF01BEC16F03CC090F03DC091F050
:101480003EC092F03FC093F090C055F091C056F02E
:1014900092C057F093C058F05AEC1CF055C082F03F
:1014A00056C083F08CC055F08DC056F08EC057F0FA
:1014B0008FC058F09EC040F09FC041F0A0C042F0E5
:1014C000A1C043F090C03CF091C03DF092C03EF00E
:1014D00093C03FF039EC12F03CC059F03DC05AF0D7
:1014E0003EC05BF03FC05CF014EC23F055C08CF0C4
:1014F00056C08DF057C08EF058C08FF09EC023F0BC
:101500009FC024F0A0C025F0A1C026F0000E276ED9
:10151000000E286E200E296E410E2A6E4EEC14F03D
:1015200023C09EF024C09FF025C0A0F026C0A1F0EB
:101530000001944B952B7C51945D9551800A6B6F03
:101540007D51800A6B59D8A0A8EF0AF0AAEF0AF0E3
:1015500020EF0AF09EC03CF09FC03DF0A0C03EF0DE
:10156000A1C03FF0000E406E000E416EA00E426E14
:10157000400E436E39EC12F03CC090F03DC091F04B
:101580003EC092F03FC093F08CC055F08DC056F035
:101590008EC057F08FC058F090C059F091C05AF0EB
:1015A00092C05BF093C05CF0DDEC1CF0D8B0DBEFD8
:1015B0000AF0DDEF0AF0E8EF0AF0000E0001906F8C
:1015C000000E916F000E926F000E936F11EF0BF0F3
:1015D0008CC001F08DC002F08EC003F08FC004F00B
:1015E00090C005F091C006F092C007F093C008F0DB
:1015F00030EC20F0D8A0FFEF0AF001EF0BF011EF74
:101600000BF0000182B107EF0BF009EF0BF011EFC7
:101610000BF0000E906F000E916F000E926F000E97
:10162000936F96C001F097C002F098C003F099C084
:1016300004F090C005F091C006F092C007F093C08E
:1016400008F0A4EC0DF001C08CF002C08DF003C0D6
:101650008EF004C08FF08CC055F08DC056F08EC057
:1016600057F08FC058F0000E406E000E416E200EF5
:10167000426E410E436E7EC03CF07FC03DF080C0A4
:101680003EF081C03FF039EC12F03CC059F03DC053
:101690005AF03EC05BF03FC05CF0DDEC1CF0D8A01F
:1016A00054EF0BF056EF0BF07FEF0BF000019A4B6D
:1016B0009B2B7EC03CF07FC03DF080C03EF081C0DF
:1016C0003FF0000E406E000E416E200E426E410E45
:1016D000436E39EC12F03CC07EF03DC07FF03EC05E
:1016E00080F03FC081F0660E00018A19D8A47BEF1C
:1016F0000BF07DEF0BF07FEF0BF07C4B7D2B7EC072
:101700009EF07FC09FF080C0A0F081C0A1F0650E68
:1017100000018A19D8B48FEF0BF091EF0BF097EF1F
:101720000BF09AC07AF09BC07BF09BEF0BF0000EA1
:101730007B6F000E7A6F000E796F000E786F000ECF
:10174000776F000E766F000E956F000E946F96EF18
:101750000CF08CC023F08DC024F08EC025F08FC01B
:1017600026F09EC027F09FC028F0A0C029F0A1C09D
:101770002AF04EEC14F023C03CF024C03DF025C00C
:101780003EF026C03FF01BEC16F03CC090F03DC090
:1017900091F03EC092F03FC093F090C055F091C0E0
:1017A00056F092C057F093C058F05AEC1CF055C058
:1017B00082F056C083F00001F9B9E1EF0BF0E3EFDE
:1017C0000BF000EF0CF082518311D8A4EAEF0BF07C
:1017D000ECEF0BF000EF0CF0670E8B19D8A4F3EFD1
:1017E0000BF0F5EF0BF000EF0CF07BBFFCEF0BF014
:1017F000FAEF0BF000EF0CF0764B772B4AEF0CF082
:1018000078517911D8A407EF0CF009EF0CF033EF01
:101810000CF07BBF10EF0CF00EEF0CF033EF0CF080
:10182000000E9C25D96E010E9D21DA6E2E0EDF6E04
:101830009C4B9D2B8807D8A08907000E796F010E5D
:10184000786F33EF0CF0000E9C25D96E010E9D21B0
:10185000DA6E300EDF6E9C4B9D2B8807D8A089076F
:101860007607D8A0770776517711D8A43AEF0CF015
:101870003CEF0CF023EF0CF0000E9C25D96E010E0E
:101880009D21DA6E8251300FDF6E9C4B9D2B8807B5
:10189000D8A089078CC055F08DC056F08EC057F087
:1018A0008FC058F09EC040F09FC041F0A0C042F0F1
:1018B000A1C043F090C03CF091C03DF092C03EF01A
:1018C00093C03FF039EC12F03CC059F03DC05AF0E3
:1018D0003EC05BF03FC05CF014EC23F055C08CF0D0
:1018E00056C08DF057C08EF058C08FF09EC023F0C8
:1018F0009FC024F0A0C025F0A1C026F0000E276EE6
:10190000000E286E200E296E410E2A6E4EEC14F049
:1019100023C09EF024C09FF025C0A0F026C0A1F0F7
:1019200000017A07D8A07B07944B952B7C51945DDE
:101930009551800A6B6F7D51800A6B59D8B0A3EF27
:101940000CF0A5EF0CF0B3EF0CF09DBFB1EF0CF075
:101950009D5109E14B0E9C5DD8A0B1EF0CF0B3EFA7
:101960000CF0A9EF0BF078517911D8A4BAEF0CF074
:10197000BCEF0CF0CDEF0CF0F9A9C1EF0CF0C3EF08
:101980000CF0CDEF0CF0000E9C25D96E010E9D21C0
:10199000DA6E2E0EDF6E9C4B9D2B000E9C25D96EB1
:1019A000010E9D21DA6E000EDF6E650E8A19D8A435
:1019B000DCEF0CF0DEEF0CF045EF08F0000E956F59
:1019C0004F0E946F000E9425D96E010E9521DA6E9C
:1019D000000EDF6E000E856F000E846F9BBFF5EF6B
:1019E0000CF0F3EF0CF0FDEF0CF0000E856F010E24
:1019F000846F9A6D9B1FD8B09B2B000E876F020ED1
:101A0000866F2EEF0DF09407D8A09507000E942551
:101A1000D96E010E9521DA6E9AC001F09BC002F0DA
:101A2000000E046E0A0E036ED8EC1FF00150300F4A
:101A3000DF6E9AC001F09BC002F0000E046E0A0E29
:101A4000036E18EC1FF001C09AF002C09BF0000179
:101A50008607D8A087078807D8A089079A519B11C5
:101A6000D8A435EF0DF037EF0DF003EF0DF087BF81
:101A700044EF0DF0875106E18605D8B042EF0DF036
:101A800044EF0DF003EF0DF09407D8A095078451B3
:101A90008511D8A44EEF0DF050EF0DF056EF0DF07C
:101AA000000E736F2B0E726F5AEF0DF0000E736FF6
:101AB0002D0E726F000E9425D96E010E9521DA6EEF
:101AC00072C0DFFF8807D8A089079407D8A09507C0
:101AD000BF0E6B6FFF0E6C6F6A516D6F6E6B6B514B
:101AE0006D276C516E236E5109E11A0E6D5DD8A001
:101AF0007CEF0DF07EEF0DF084EF0DF0000E756FB2
:101B0000650E746F88EF0DF0000E756F450E746FE3
:101B1000000E9425D96E010E9521DA6E74C0DFFF98
:101B20008807D8A08907000E9C25016E010E9D2113
:101B3000026E000E9425036E010E9521046E20ECBA
:101B400022F045EF08F012000450800B0D6E045097
:101B500004240F6E03AEAFEF0DF0B1EF0DF0B2EF56
:101B60000DF00F800F50D8B4B8EF0DF0BAEF0DF0B4
:101B7000CFEF0DF00F28D8A4C0EF0DF0C2EF0DF09D
:101B8000CAEF0DF0000E016E000E026E000E036E25
:101B9000000E046E038E000E046ED7EF0DF0000EE3
:101BA000016E000E026E000E036E000E046E0850F1
:101BB000800B0E6E0D500E18D8B4E1EF0DF0E3EF70
:101BC0000DF0E4EF0DF00D8C085008240E6E07AEFA
:101BD000ECEF0DF0EEEF0DF0EFEF0DF00E800E508C
:101BE000D8B4F5EF0DF0F7EF0DF00CEF0EF00E2876
:101BF000D8A4FDEF0DF0FFEF0DF007EF0EF0000E93
:101C0000056E000E066E000E076E000E086E078E43
:101C1000000E086E14EF0EF0000E056E000E066E3C
:101C2000000E076E000E086E0F500E5CD8B01BEF52
:101C30000EF01DEF0EF044EF0EF00DAC22EF0EF0A3
:101C400024EF0EF026EF0EF0800E0D1A0FC010F0EC
:101C50000EC00FF010C00EF001C010F005C001F072
:101C600010C005F002C010F006C002F010C006F06F
:101C700003C010F007C003F010C007F004C010F05C
:101C800008C004F010C008F0000E106E0F500EC017
:101C900009F00A6A095E000E0A5A0ABE59EF0EF0F0
:101CA0000A5009E11A0E095CD8A059EF0EF05BEF5B
:101CB0000EF092EF0EF00150021003100410D8A4A1
:101CC00064EF0EF067EF0EF0010E68EF0EF0000EFD
:101CD000106E000E016E000E026E000E036E000EFE
:101CE000046E0EC00FF09BEF0EF010A07AEF0EF016
:101CF0007CEF0EF082EF0EF0D89010300109106EDC
:101D000084EF0EF0D890103201A089EF0EF08BEF27
:101D10000EF08CEF0EF0108E0434043203320232D7
:101D200001320F2A0E500F5CD8A099EF0EF09BEFF6
:101D30000EF075EF0EF00DBCA0EF0EF0A2EF0EF05E
:101D4000E2EF0EF00F50D8A4A8EF0EF0AAEF0EF0BD
:101D5000B4EF0EF0000E016E000E026E000E036E68
:101D6000000E046E03EF10F005500126065002220B
:101D7000075003220850042204A0C1EF0EF0C3EF65
:101D80000EF06FEF0FF010A0C8EF0EF0CAEF0EF0DC
:101D9000D0EF0EF0D89010300109106ED2EF0EF097
:101DA000D890103201A0D7EF0EF0D9EF0EF0DAEF95
:101DB0000EF0108E043404320332023201320F2A44
:101DC0006FEF0FF00550015C0650025807500358A2
:101DD0000450800A096E0850800A0958D8B0F3EF01
:101DE0000EF0F5EF0EF020EF0FF00150055C096EDC
:101DF000025006580A6E035007580B6E04500858DC
:101E00000C6EFF0E0924016EFF0E0A20026EFF0EFB
:101E10000B20036EFF0E0C20046E800E0D1A106C4A
:101E20001050D8A416EF0FF018EF0FF028EF0FF0B6
:101E3000010E0126000E02220322042228EF0FF0D9
:101E40000550015E0650025A0750035A0850045AC2
:101E50000150021003100410D8A431EF0FF033EF3B
:101E60000FF068EF0FF01050D8A439EF0FF03BEFF0
:101E70000FF068EF0FF0000E016E000E026E000E04
:101E8000036E000E046E03EF10F0D8900136023698
:101E90000336043610AE4FEF0FF051EF0FF052EF54
:101EA0000FF0018010A057EF0FF059EF0FF05DEF2A
:101EB0000FF0D88010365FEF0FF0D89010360F502B
:101EC000D8B465EF0FF067EF0FF068EF0FF00F0673
:101ED00003AE6DEF0FF06FEF0FF045EF0FF0000E58
:101EE0000E6E10AE76EF0FF078EF0FF090EF0FF070
:101EF00010C009F07F0E0916D8B481EF0FF083EF00
:101F00000FF087EF0FF0010E0E6E90EF0FF001A0B3
:101F10008CEF0FF08EEF0FF090EF0FF083EF0FF0DC
:101F20000E50D8B496EF0FF098EF0FF0C3EF0FF00C
:101F3000010E0126000E02220322042204A0A3EFB8
:101F40000FF0A5EF0FF0C3EF0FF001C009F002C0D2
:101F50000AF003C00BF004C00CF00C340C320B324E
:101F60000A32093209C001F00AC002F00BC003F0C6
:101F70000CC004F00F28D8B4C0EF0FF0C2EF0FF080
:101F8000C3EF0FF00F2A0F28D8B4C9EF0FF0CBEF33
:101F90000FF0D3EF0FF00F50D8A4D1EF0FF0D3EF25
:101FA0000FF0E5EF0FF0000E016E000E026E000E56
:101FB000036E000E046E0F50D8A4E1EF0FF0E3EFB4
:101FC0000FF0E5EF0FF0000E0D6E0FA0EAEF0FF02F
:101FD000ECEF0FF0EFEF0FF0038EF0EF0FF0039E3A
:101FE000D8900F30046E0DAEF8EF0FF0FAEF0FF04F
:101FF000FBEF0FF0048E01C001F002C002F003C03D
:1020000003F004C004F01200A4C0D9FFA5C0DAFF99
:10201000DECFF6FFDDCFF7FF000EF86E0800F550BB
:10202000250AD8A416EF10F018EF10F01BEF12F0ED
:10203000A4C0D9FFA5C0DAFFDE2A000EDD22000E03
:102040000001F66F000EF56FF5C0F9F0F6C0FAF07A
:10205000F769F869A4C0D9FFA5C0DAFFDECFF6FFA3
:10206000DDCFF7FF000EF86E0800F5502E0AD8A459
:102070003CEF10F03EEF10F0B3EF10F0000EF86FF1
:10208000000EF76FA4C0D9FFA5C0DAFFDE2A000E4C
:10209000DD22A4C0D9FFA5C0DAFFDECFF6FFDDCF79
:1020A000F7FF000EF86E0800F5502A0AD8A45BEF7F
:1020B00010F05DEF10F07AEF10F0A4C0D9FFA5C0CA
:1020C000DAFFDE2A000EDD22A6C0D9FFA7C0DAFFA4
:1020D000DFCFA8F0020EDE26DFCFA9F0000EDD2252
:1020E000A8C0D9FFA9C0DAFFDECFF7F0DDCFF8F046
:1020F000B3EF10F0A4C0D9FFA5C0DAFFDECF08F01F
:10210000DDCF09F08AEC19F008C0F7F009C0F8F04B
:1021100091EF10F0A4C0D9FFA5C0DAFFDE2A000EAF
:10212000DD22D00E0001A86FFF0EA96FA4C0D9FF59
:10213000A5C0DAFFDECFF6FFDDCFF7FF000EF86EA9
:102140000800F550AA6FAB6BA851AA27A951AB2381
:10215000AB5109E10A0EAA5DD8A0B1EF10F0B3EFC0
:1021600010F08AEF10F0A4C0D9FFA5C0DAFFDECFCF
:10217000F6FFDDCFF7FF000EF86E0800F550076E92
:10218000086AF1EC22F007500001B06FB051D8B4EA
:10219000CCEF10F0CEEF10F00CEF11F0A4C0D9FF8F
:1021A000A5C0DAFFDECFA8F0DDCFA9F0010EA82789
:1021B000000EA923A8C0F6FFA9C0F7FF000EF86E15
:1021C0000800F550076E086AF1EC22F00750000194
:1021D000B16FB151D8B4EFEF10F0F1EF10F00CEF98
:1021E00011F0A4C0D9FFA5C0DAFFDECFA8F0DDCF83
:1021F000A9F0020EA827000EA923A8C0F6FFA9C0C7
:10220000F7FF000EF86E0800F550076E086AF1EC53
:1022100022F007500001B26F660EB019D8A413EF78
:1022200011F015EF11F057EF11F0A4C0D9FFA5C0C0
:10223000DAFFDECFF6FFDDCFF7FF000EF86E080005
:10224000F5CFB3F0A4C0D9FFA5C0DAFFDE2A000E97
:10225000DD22A6C0D9FFA7C0DAFFDFCFA8F0040EA9
:10226000DE26DFCFA9F0000EDD22A8C0D9FFA9C06D
:10227000DAFFDECFACF0DECFADF0DECFAEF0DECFFA
:10228000AFF0A2C064F0A3C065F0ACC066F0ADC012
:1022900067F0AEC068F0AFC069F0B3C06AF09FEC01
:1022A00007F064C0A2F065C0A3F038EF12F0B00EE2
:1022B000016E000E026E3A0E036E0F0E046E000EDB
:1022C000066E020E056EDFEC1DF001500210D8A460
:1022D0006CEF11F06EEF11F0E1EF11F0A4C0D9FF37
:1022E000A5C0DAFFDECFA8F0DDCFA9F0010E000116
:1022F000A827000EA923A8C0F6FFA9C0F7FF000E6B
:10230000F86E0800F5CFB3F0BF0EA86FFF0EA96FEF
:10231000A4C0D9FFA5C0DAFFDECFF6FFDDCFF7FFFF
:10232000000EF86E0800F550AA6FAB6BA851AA27F3
:10233000A951AB23AB5107E11A0EAA5DD8B0A3EFA8
:1023400011F0A5EF11F0BFEF11F0A6C0D9FFA7C0A3
:10235000DAFFDFCFA8F0040EDE26DFCFA9F0000EF3
:10236000DD22A8C0D9FFA9C0DAFFDECFACF0DECFF6
:10237000ADF0DECFAEF0DECFAFF0D7EF11F0A6C0FC
:10238000D9FFA7C0DAFFDFCFA8F0040EDE26DFCF2B
:10239000A9F0000EDD22A8C0D9FFA9C0DAFFDECF68
:1023A000ACF0DECFADF0DECFAEF0DECFAFF0020EA0
:1023B000A4C0D9FFA5C0DAFFDE26000EDD2241EF62
:1023C00011F0A4C0D9FFA5C0DAFFDECFF6FFDDCF44
:1023D000F7FF000EF86E0800F550250AD8A4F3EFB9
:1023E00011F0F5EF11F00DEF12F0A4C0D9FFA5C068
:1023F000DAFFDE2A000EDD22000E026E250E016ECF
:10240000A2C003F0A3C004F050EC1EF0000E0001C7
:10241000A36F010EA26F38EF12F0A4C0D9FFA5C0C0
:10242000DAFFDE2A000EDD22000E0001A36F000E8F
:10243000A26F38EF12F0A4C0D9FFA5C0DAFFDECF3B
:10244000F6FFDDCFF7FF000EF86E0800F550016EC5
:10245000026AA2C003F0A3C004F050EC1EF0A4C0B6
:10246000D9FFA5C0DAFFDE2A000EDD2206EF12F04A
:1024700012003F50800B486E3F503F244E6E3EAEE0
:1024800044EF12F046EF12F047EF12F04E804E503C
:10249000D8B44DEF12F04FEF12F062EF12F04E2869
:1024A000D8A455EF12F057EF12F05FEF12F0000EC4
:1024B0003C6E000E3D6E000E3E6E000E3F6E3E8E78
:1024C0006AEF12F0000E3C6E000E3D6E000E3E6E86
:1024D000000E3F6E4350800B481A435043244D6E0C
:1024E00042AE75EF12F077EF12F078EF12F04D80F8
:1024F0004D50D8B47EEF12F080EF12F093EF12F04F
:102500004D28D8A486EF12F088EF12F090EF12F069
:10251000000E406E000E416E000E426E000E436EC5
:10252000428E9BEF12F0000E406E000E416E000EC8
:10253000426E000E436E4D50D8B4A1EF12F0A3EFDF
:1025400012F0ABEF12F04E50D8A4A9EF12F0ABEF9F
:1025500012F0B5EF12F0000E3C6E000E3D6E000E54
:102560003E6E000E3F6E4DEF14F042503C02F3CF32
:1025700053F0F4CF54F05350496E4A6A4B6A4C6A98
:1025800054504F6E506A516A526A41503D02F3CF27
:1025900053F0F4CF54F053504926000E4A224B22F8
:1025A0004C2254504F26000E5022512252224050AD
:1025B0003E02F3CF53F0F4CF54F053504926000EAF
:1025C0004A224B224C2254504F26000E50225122B8
:1025D00052224BC04CF04AC04BF049C04AF0496A05
:1025E00040503D02F3CF53F0F4CF54F053504926FE
:1025F00054504A22000E4B22000E4C2241503C0205
:10260000F3CF53F0F4CF54F05350492654504A229C
:10261000000E4B22000E4C224BC04CF04AC04BF037
:1026200049C04AF0496A40503C02F3CF53F0F4CF1E
:1026300054F05350492654504A22000E4B22000EAB
:102640004C2242503D02F3CF53F0F4CF54F053509C
:102650004F2654505022000E5122000E522241505B
:102660003E02F3CF53F0F4CF54F053504F26545062
:102670005022000E5122000E522242503E02F3CF51
:1026800053F0F4CF54F05350446E5450456E466AA4
:10269000476A46C047F045C046F044C045F0446A2A
:1026A00044504F2645505022465051224750522206
:1026B00049C044F04AC045F04BC046F04CC047F01A
:1026C000190E68EF13F0D890473246324532443243
:1026D000E82E63EF13F044504F26455050224650E9
:1026E0005122475052224BC04CF04AC04BF049C0D7
:1026F0004AF0496A4D504EC044F0456A4426000EE7
:102700004522820E4424536EFF0E4520546E9EEFE8
:1027100013F0D8904F365036513652364CAE93EFB8
:1027200013F095EF13F096EF13F04F80D8904936E1
:102730004A364B364C365306D8A0540651AEA3EF5A
:1027400013F0A5EF13F089EF13F0000E4D6E4CAEB1
:10275000ACEF13F0AEEF13F0D2EF13F0FF0E49140D
:10276000446EFF0E4A14456EFF0E4B14466E7F0EEC
:102770004C14476E4450451046104710D8B4C3EF70
:1027800013F0C5EF13F0C9EF13F0010E4D6ED2EF49
:1027900013F04FA0CEEF13F0D0EF13F0D2EF13F001
:1027A000C5EF13F04D50D8B4D8EF13F0DAEF13F0B3
:1027B000FEEF13F0010E4F26000E5022512252223E
:1027C00052A0E5EF13F0E7EF13F0FEEF13F04FC068
:1027D00044F050C045F051C046F052C047F0473475
:1027E000473246324532443244C04FF045C050F083
:1027F00046C051F047C052F0534A542A54BE09EF24
:1028000014F0545008E15328D8A009EF14F00BEF4E
:1028100014F015EF14F0000E4F6E000E506E800E87
:10282000516E7F0E526E43EF14F054BE22EF14F03F
:10283000545006E15304D8B020EF14F022EF14F006
:102840002EEF14F0000E4F6E000E506E000E516E03
:10285000000E526E000E486E43EF14F053C04EF05F
:10286000FF0E4F16FF0E50167F0E5116000E521619
:102870004EA03DEF14F03FEF14F040EF14F0518EF6
:10288000D8904E30526E485052124FC03CF050C05B
:102890003DF051C03EF052C03FF012002650800B78
:1028A000336E265026243A6E25AE59EF14F05BEFB6
:1028B00014F05CEF14F03A803A50D8B462EF14F0A0
:1028C00064EF14F079EF14F03A28D8A46AEF14F00A
:1028D0006CEF14F074EF14F0000E236E000E246EF3
:1028E000000E256E000E266E258E000E266E81EFE0
:1028F00014F0000E236E000E246E000E256E000EE6
:10290000266E2A50800B331A2A502A243B6E29AE99
:102910008CEF14F08EEF14F08FEF14F03B803B50EF
:10292000D8B495EF14F097EF14F0ACEF14F03B2807
:10293000D8A49DEF14F09FEF14F0A7EF14F0000E51
:10294000276E000E286E000E296E000E2A6E298E4C
:10295000000E2A6EB4EF14F0000E276E000E286EE3
:10296000000E296E000E2A6E2750281029102A10FA
:10297000D8A4BDEF14F0BFEF14F0D7EF14F0000EA1
:10298000236E000E246E000E256E000E266E800E45
:1029900025127F0E26123350261223C023F024C0A6
:1029A00024F025C025F026C026F01AEF16F03A5084
:1029B000D8A4DDEF14F0DFEF14F0E9EF14F0000E0F
:1029C000236E000E246E000E256E000E266E1AEF8A
:1029D00016F03B503AC02BF02C6A2B5E000E2C5A9E
:1029E0007F0E2B24346E000E2C20356E23C02FF06A
:1029F00024C030F025C031F026C032F0000E236E26
:102A0000000E246E000E256E000E266E000E366E31
:102A1000000E376E000E386E000E396E000E3B6EE3
:102A20004AEF15F03B50D8B418EF15F01AEF15F037
:102A300031EF15F0D8902F36303631363236D89007
:102A4000233624362536263639AE29EF15F02BEFFE
:102A500015F02CEF15F02380D890363637363836FF
:102A6000393627502F5C28503058295031582A5079
:102A70003258D8A03EEF15F040EF15F049EF15F0B1
:102A8000398C27502F5E2850305A2950315A2A50FD
:102A9000325A3B2A190E3B6450EF15F052EF15F0F5
:102AA00012EF15F02F50301031103210D8B45BEF08
:102AB00015F05DEF15F075EF15F0368075EF15F038
:102AC000D890233624362536263639AE6AEF15F0EF
:102AD0006CEF15F06DEF15F02380D8903636373651
:102AE000383639363406D8A0350625AE7AEF15F0DB
:102AF0007CEF15F060EF15F0000E3B6E39AE83EF02
:102B000015F085EF15F0A9EF15F0FF0E36142B6EBA
:102B1000FF0E37142C6EFF0E38142D6E7F0E3914F5
:102B20002E6E2B502C102D102E10D8B49AEF15F0BD
:102B30009CEF15F0A0EF15F0010E3B6EA9EF15F01C
:102B400023A0A5EF15F0A7EF15F0A9EF15F09CEF66
:102B500015F03B50D8B4AFEF15F0B1EF15F0D5EF4D
:102B600015F0010E2326000E24222522262226A05F
:102B7000BCEF15F0BEEF15F0D5EF15F023C02BF02C
:102B800024C02CF025C02DF026C02EF02E342E327D
:102B90002D322C322B322BC023F02CC024F02DC030
:102BA00025F02EC026F0344A352A35BEE0EF15F068
:102BB000355008E13428D8A0E0EF15F0E2EF15F029
:102BC000EDEF15F0000E356E3468000E236E000E2A
:102BD000246E000E256E000E266E35BEFAEF15F03F
:102BE000355006E13404D8B0F8EF15F0FAEF15F0DF
:102BF00008EF16F0000E356E000E346E000E236ED8
:102C0000000E246E000E256E000E266E000E336E32
:102C100034C03AF03AA00FEF16F011EF16F014EFAF
:102C200016F0258E15EF16F0259ED8903A30266EB8
:102C3000CBEF14F01200EBC04CF0ECC04DF0EDC047
:102C40004EF0EEC04FF03CC04CF03DC04DF03EC0E9
:102C50004EF03FC04FF0810E406EFF0E416E4CC0F3
:102C600042F04DC043F04EC044F04FC045F0180E46
:102C70003FEF16F0D8904532443243324232E82ECC
:102C80003AEF16F0425040244A6E000E41204B6E3F
:102C90004BBE54EF16F04B5009E1170E4A5CD8A01A
:102CA00054EF16F056EF16F060EF16F03CC03CF013
:102CB0003DC03DF03EC03EF03FC03FF023EF17F077
:102CC0004BBE65EF16F067EF16F0D7EF16F04AC06F
:102CD00040F0FF0E416EFF0E426E7F0E436E000EFF
:102CE000446E406676EF16F07EEF16F044344432C0
:102CF000433242324132402E71EF16F041C046F06D
:102D000042C047F043C048F044C049F046504C141C
:102D1000406E47504D14416E48504E14426E49501B
:102D20004F14436E4050411042104310D8A49BEF03
:102D300016F09DEF16F09FEF16F056EF16F04CC010
:102D400040F04DC041F04EC042F04FC043F0200E65
:102D5000AFEF16F0D8904332423241324032E82E83
:102D6000AAEF16F04050411042104310D8B4BBEF08
:102D700016F0BDEF16F0C5EF16F046504C26475042
:102D80004D2248504E2249504F22461C406E471C4F
:102D9000416E481C426E491C436E40504C164150D7
:102DA0004D1642504E1643504F161BEF17F04CC0B5
:102DB00040F04DC041F04EC042F04FC043F0200EF5
:102DC000E7EF16F0D8904332423241324032E82EDB
:102DD000E2EF16F04050411042104310D8A4F3EF38
:102DE00016F0F5EF16F0FFEF16F0000E4C6E000E29
:102DF0004D6E000E4E6E000E4F6E1BEF17F0D8900A
:102E00004C34406E4D34416E4E34426E4F34436EFE
:102E10004050411042104310D8B411EF17F013EF97
:102E200017F01BEF17F0000E4C6E000E4D6E800E6B
:102E30004E6EBF0E4F6E4CC03CF04DC03DF04EC0CC
:102E40003EF04FC03FF012001D6E1D50D8B42BEF66
:102E500017F02DEF17F04FEF17F018BE34EF17F003
:102E600032EF17F04FEF17F015C019F016C01AF037
:102E700017C01BF018C01CF0191E1A1E1B1E1C1EAA
:102E8000192A000E1A221B221C2219C01FF01AC078
:102E900020F01BC021F01CC022F057EF17F015C026
:102EA0001FF016C020F017C021F018C022F01550F6
:102EB000161017101810D8A460EF17F062EF17F073
:102EC0006CEF17F0000E156E000E166E000E176EEA
:102ED000000E186EFDEF17F0960E1E6E76EF17F0CF
:102EE0001E2AD8902232213220321F32000E1F14A7
:102EF000196E000E20141A6E000E21141B6EFE0EA9
:102F000022141C6E19501A101B101C10D8A48BEF21
:102F100017F08DEF17F070EF17F09BEF17F01E2AE8
:102F2000010E1F26000E202221222222D8902232BA
:102F3000213220321F32000E1F14196E000E201491
:102F40001A6E000E21141B6EFF0E22141C6E1950F7
:102F50001A101B101C10D8A4B0EF17F0B2EF17F026
:102F60008FEF17F0BAEF17F01E06D8901F362036F5
:102F70002136223621BEBFEF17F0C1EF17F0C9EF9F
:102F800017F0020E1E60C7EF17F0C9EF17F0B4EF8D
:102F900017F01EB0CEEF17F0D0EF17F0D1EF17F00B
:102FA000219ED8901E321EC019F01A6A1B6A1C6A34
:102FB00019C01CF01B6A1A6A196A19501F121A509C
:102FC00020121B5021121C5022121D50D8B4EBEFBE
:102FD00017F0EDEF17F0F5EF17F018BEF4EF17F05C
:102FE000F2EF17F0F5EF17F0228E1FC015F020C09A
:102FF00016F021C017F022C018F01200096E09C0A7
:1030000012F0040E01180210D8A409EF18F00BEF0B
:1030100018F0C8EF18F012380F0B126E000E146E75
:10302000000E136E13C003F013C004F0010E056E02
:10303000042A1DEF18F0D8900536042E1BEF18F067
:1030400005501214066E032A28EF18F0D8900632A5
:10305000032E26EF18F00650076E086AD890133436
:10306000D96E1434DA6E0A0ED926000EDA2207C0A1
:10307000DEFF08C0DDFF134A142A14BE49EF18F022
:10308000145009E1040E135CD8A049EF18F04BEF7F
:1030900018F012EF18F00AB002D0979001D0978084
:1030A0000CB002D0979201D097820EB002D09998BE
:1030B00001D0998810B002D0999A01D0998A88825B
:1030C00088800D0E036EC30EE82EFED7032EFCD7AC
:1030D00000F0889009C012F0000E166E000E156EFA
:1030E00015C003F015C004F0010E056E042A7BEF35
:1030F00018F0D8900536042E79EF18F00550121408
:10310000066E032A86EF18F0D8900632032E84EF5D
:1031100018F00650076E086AD8901534D96E163428
:10312000DA6E0A0ED926000EDA2207C0DEFF08C0CA
:10313000DDFF154A162A16BEA7EF18F0165009E152
:10314000040E155CD8A0A7EF18F0A9EF18F070EFE7
:1031500018F00AB002D0979001D097800CB002D03E
:10316000979201D097820EB002D0999801D0998899
:1031700010B002D0999A01D0998A888288800D0E69
:10318000036EC30EE82EFED7032EFCD700F0889006
:103190001200076E07C010F010380F0B106E000EF3
:1031A000126E000E116E11C001F011C002F0010E7E
:1031B000036E022ADEEF18F0D8900336022EDCEF01
:1031C00018F003501014046E012AE9EF18F0D8909B
:1031D0000432012EE7EF18F00450056E066AD8900D
:1031E0001134D96E1234DA6E080ED926000EDA22A6
:1031F00005C0DEFF06C0DDFF114A122A12BE0AEF2B
:1032000019F0125009E1040E115CD8A00AEF19F070
:103210000CEF19F0D3EF18F008B002D0979001D05E
:1032200097800AB002D0979201D097820CB002D05A
:10323000999801D099880EB002D0999A01D0998AB4
:10324000889288800D0E016EC30EE82EFED7012EE7
:10325000FCD700F0889007C010F0000E146E000E2E
:10326000136E13C001F013C002F0010E036E022AA8
:103270003CEF19F0D8900336022E3AEF19F00350C4
:103280001014046E012A47EF19F0D8900432012E71
:1032900045EF19F00450056E066AD8901334D96EC4
:1032A0001434DA6E080ED926000EDA2205C0DEFFCD
:1032B00006C0DDFF134A142A14BE68EF19F014503B
:1032C00009E1040E135CD8A068EF19F06AEF19F059
:1032D00031EF19F008B002D0979001D097800AB072
:1032E00002D0979201D097820CB002D0999801D069
:1032F00099880EB002D0999A01D0998A88928880D4
:103300000D0E016EC30EE82EFED7012EFCD700F085
:1033100088901200000E116E000E106E000E0F6EDF
:10332000000E0E6E96EF19F0084A092A08C0F6FF43
:1033300009C0F7FF000EF86E0800F550200AD8B457
:10334000A4EF19F0A6EF19F094EF19F0F70E0A6E3A
:10335000FF0E0B6E08C0F6FF09C0F7FF000EF86EF7
:103360000800F5500C6E0D6A0A500C260B500D2209
:103370000D5009E1050E0C5CD8A0C1EF19F0C3EFA8
:1033800019F094EF19F0CDEF19F0000E0F6E010E49
:103390000E6E084A092A06EF1AF008C0F6FF09C0A7
:1033A000F7FF000EF86E0800F5500A6E0B6A0B501E
:1033B000000AD8B4DEEF19F006EF1AF00A502B0A13
:1033C000D8B4C9EF19F0060AD8B4C5EF19F006EF62
:1033D0001AF010C001F011C002F0000E046E0A0EC7
:1033E000036EDBEC23F008C0F6FF09C0F7FF000E08
:1033F000F86E0800F550015E000E025A300E0124EE
:10340000106E000E0220116EC9EF19F0D00E0A6E78
:10341000FF0E0B6E08C0F6FF09C0F7FF000EF86E36
:103420000800F5500C6E0D6A0A500C260B500D2248
:103430000D5009E10A0E0C5CD8A021EF1AF023EF21
:103440001AF0E9EF19F00E500F10D8A42AEF1AF075
:103450002CEF1AF03AEF1AF010C00AF011C00BF07E
:103460000A1E0B1E0A4A0B2A0AC008F00BC009F0FC
:103470003EEF1AF010C008F011C009F01200040E5F
:103480000001615DD8B047EF1AF049EF1AF0C5EFBF
:103490001AF0A1EC22F00FC015F010C016F0000ECB
:1034A00016BEFF0E176E186E010E24EC17F015C035
:1034B00040F016C041F017C042F018C043F0000EB3
:1034C000276EC00E286E7F0E296E440E2A6E60C0D5
:1034D00015F061C016F0176A186A000E24EC17F098
:1034E00015C023F016C024F017C025F018C026F030
:1034F0004EEC14F023C03CF024C03DF025C03EF05B
:1035000026C03FF039EC12F03CC055F03DC056F0FB
:103510003EC057F03FC058F05AEC1CF055C060F068
:1035200056C061F0000E0001646F60516111D8B4A3
:103530009CEF1AF09EEF1AF0A0EF1AF0010E646FE4
:1035400064B102D0B79A01D0B78A000E0001656F4E
:1035500060516111D8B4AFEF1AF0B1EF1AF0B3EFC8
:103560001AF0010E656F65B102D0B79801D0B78827
:1035700060C062F061C063F00001D89063336233D1
:10358000D890633362336251B86E1200040E0001AA
:10359000615DD8B0CEEF1AF0D0EF1AF04CEF1BF00F
:1035A000A1EC22F00FC015F010C016F0000E16BEF0
:1035B000FF0E176E186E010E24EC17F015C040F0C8
:1035C00016C041F017C042F018C043F0000E276E3D
:1035D000C00E286E7F0E296E440E2A6E60C015F054
:1035E00061C016F0176A186A000E24EC17F015C0B7
:1035F00023F016C024F017C025F018C026F04EECBA
:1036000014F023C03CF024C03DF025C03EF026C09D
:103610003FF039EC12F03CC055F03DC056F03EC0D2
:1036200057F03FC058F05AEC1CF055C060F056C03F
:1036300061F0000E0001646F60516111D8B423EF96
:103640001BF025EF1BF027EF1BF0010E646F64B138
:1036500002D0BA9A01D0BA8A000E0001656F60519B
:103660006111D8B436EF1BF038EF1BF03AEF1BF0C6
:10367000010E656F65B102D0BA9801D0BA8860C0FA
:1036800062F061C063F00001D89063336233D89078
:10369000633362336251BB6E1200040E0001615D40
:1036A000D8B055EF1BF057EF1BF0D3EF1BF0A1EC98
:1036B00022F00FC015F010C016F0000E16BEFF0E5F
:1036C000176E186E010E24EC17F015C040F016C0EE
:1036D00041F017C042F018C043F0000E276EC00E34
:1036E000286E7F0E296E440E2A6E60C015F061C0F0
:1036F00016F0176A186A000E24EC17F015C023F0B4
:1037000016C024F017C025F018C026F04EEC14F0B7
:1037100023C03CF024C03DF025C03EF026C03FF061
:1037200039EC12F03CC055F03DC056F03EC057F0A9
:103730003FC058F05AEC1CF055C060F056C061F024
:10374000000E0001646F60516111D8B4AAEF1BF044
:10375000ACEF1BF0AEEF1BF0010E646F64B102D052
:10376000BD9A01D0BD8A000E0001656F60516111E4
:10377000D8B4BDEF1BF0BFEF1BF0C1EF1BF0010E83
:10378000656F65B102D0BD9801D0BD8860C062F0A0
:1037900061C063F00001D89063336233D890633323
:1037A00062336251BE6E1200000E0A6E08BEDDEF7B
:1037B0001BF0DBEF1BF0E7EF1BF0081E071E061ED9
:1037C000056C000E062207220822010E0A6E04BEB6
:1037D000EEEF1BF0ECEF1BF0F8EF1BF0041E031EE6
:1037E000021E016C000E022203220422010E0A1A9C
:1037F000000E0B6E000E0C6E000E0D6E000E0E6EA7
:103800000550061007100810D8B409EF1CF00BEF94
:103810001CF041EF1CF0010E096E15EF1CF0D89062
:103820000536063607360836092A08AE1AEF1CF0A8
:103830001CEF1CF00FEF1CF0D8900B360C360D3639
:103840000E360550015C06500258075003580850C8
:103850000458D8A02EEF1CF030EF1CF039EF1CF00C
:103860000550015E0650025A0750035A0850045A88
:103870000B80D8900832073206320532092E1CEF31
:103880001CF00A50D8B447EF1CF049EF1CF051EF80
:103890001CF00E1E0D1E0C1E0B6C000E0C220D22B9
:1038A0000E220BC001F00CC002F00DC003F00EC0E0
:1038B00004F01200573458345E6E5E50D8A463EFA3
:1038C0001CF065EF1CF06FEF1CF0000E556E000E43
:1038D000566E000E576E000E586EDCEF1CF055C091
:1038E00059F056C05AF057C05BF058C05CF0200E3B
:1038F0007FEF1CF0D8905C325B325A325932E82E9E
:103900007AEF1CF059505D6E578EFF0E5516FF0E64
:103910005616FF0E5716000E5816960E5E5E5EBEC9
:1039200096EF1CF094EF1CF0ACEF1CF05E50800A98
:10393000970FD8B09EEF1CF0A0EF1CF0A2EF1CF088
:1039400065EF1CF0D89058325732563255325E3EF1
:10395000A2EF1CF0C4EF1CF01F0E5E64B2EF1CF06F
:10396000B4EF1CF0BCEF1CF065EF1CF0D89055369E
:103970005636573658365E065E50D8A4C2EF1CF055
:10398000C4EF1CF0B6EF1CF05D50D8B4CAEF1CF0C9
:10399000CCEF1CF0D4EF1CF0581E571E561E556C71
:1039A000000E56225722582255C055F056C056F0E8
:1039B00057C057F058C058F01200000E55140001BF
:1039C000606F000E5614616F800E5714626F7F0E89
:1039D0005814636F6051611162116311D8A4F3EF41
:1039E0001CF0F5EF1CF0FDEF1CF0000E556E000E04
:1039F000566E000E576E000E586E000E5914606F12
:103A0000000E5A14616F800E5B14626F7F0E5C149F
:103A1000636F6051611162116311D8A412EF1DF040
:103A200014EF1DF01CEF1DF0000E596E000E5A6EC3
:103A3000000E5B6E000E5C6E58AE21EF1DF023EFA2
:103A40001DF02CEF1DF0556C561ED8B0562A571E8F
:103A5000D8B0572A800E58565CAE31EF1DF033EFC8
:103A60001DF03CEF1DF0596C5A1ED8B05A2A5B1E4F
:103A7000D8B05B2A800E5C56000E551A000E561AFE
:103A8000000E571A800E581A000E591A000E5A1AB4
:103A9000000E5B1A800E5C1A5950555C5A505658ED
:103AA0005B5057585C505858D8B059EF1DF05BEF39
:103AB0001DF05EEF1DF0D8905FEF1DF0D880120072
:103AC000EFC00BF0F0C00CF0F1C00DF0F2C00EF042
:103AD00001C00BF002C00CF003C00DF004C00EF0EA
:103AE0000BC005F00CC006F00DC007F00EC008F0CA
:103AF000180E80EF1DF0D8900832073206320532DA
:103B0000E82E7BEF1DF00550096E0A6A09500A1075
:103B1000D8A48DEF1DF08FEF1DF0AFEF1DF0D89002
:103B20000B34056E0C34066E0D34076E0E34086EC1
:103B30000550061007100810D8A4A1EF1DF0A3EF40
:103B40001DF0A9EF1DF0000E026E020E016EDEEFF9
:103B50001DF0000E026E030E016EDEEF1DF009284F
:103B60000A10D8A4B6EF1DF0B8EF1DF0DAEF1DF083
:103B70000BC005F00CC006F00DC007F00EC008F039
:103B8000090ED8900536063607360836E82EC1EFFE
:103B90001DF00550061007100810D8B4D2EF1DF024
:103BA000D5EF1DF0010ED6EF1DF0000E016E026A7A
:103BB000DEEF1DF0000E026E040E016E120001C059
:103BC00008F002C009F003C00AF004C00BF00506BB
:103BD000D8A00606052806E10628D8A4F2EF1DF0B5
:103BE000F4EF1DF001EF1EF0000E026E000E016EEC
:103BF0004FEF1EF0084A092A0A4A0B2A0506D8A0E8
:103C0000060608C0D9FF09C0DAFFDF50D8B40BEFB1
:103C10001EF00DEF1EF03CEF1EF00AC0F6FF0BC0C9
:103C2000F7FF000EF86E0800F5500009D8B41BEF3E
:103C30001EF01DEF1EF03CEF1EF005500610D8B42C
:103C400024EF1EF026EF1EF03CEF1EF008C0D9FF57
:103C500009C0DAFFDF50076E0AC0F6FF0BC0F7FF9E
:103C6000000EF86E0800F5500718D8B43AEF1EF0B1
:103C70003CEF1EF0FAEF1DF008C0D9FF09C0DAFFD3
:103C8000DF50076E0AC0F6FF0BC0F7FF000EF86E9C
:103C90000800F550075C016E026AD8A00206120007
:103CA00003500410D8B457EF1EF059EF1EF062EF26
:103CB0001EF003500410D8A460EF1EF062EF1EF057
:103CC00067EF1EF0015037EC24F0B4EF1EF020EE49
:103CD00009F00350D9260450DA22DE50DE10D8B4A1
:103CE00074EF1EF076EF1EF091EF1EF020EE09F05B
:103CF0000350D9260450DA2210EE03F00350E126D7
:103D00000450E222DE50E65CE650800A096EDE5086
:103D1000800A0958D8B08FEF1EF091EF1EF0B4EF73
:103D20001EF020EE03F00350D9260450DA22DECF35
:103D300005F0DDCF06F003C0D9FF04C0DAFFDECF07
:103D400007F0DDCF08F005500724D96E0650082093
:103D5000DA6E01C0DFFF20EE03F00350D9260450D5
:103D6000DA22DE2A000EDD2212000001F9A1BBEFEB
:103D70001EF0BDEF1EF0C7EF1EF013C00AF014C016
:103D80000BF011C00CF012C00DF037EC23F016BE92
:103D9000CCEF1EF0CEEF1EF0D4EF1EF015C01AF0DF
:103DA00016C01BF0D8EF1EF0000E1B6E000E1A6E30
:103DB000000E196E000E186EEAEF1EF0000E026E75
:103DC000200E016E11C003F012C004F050EC1EF082
:103DD000184A192A1A50185C1950800A176E1B507D
:103DE000800A1758D8A0F7EF1EF0F9EF1EF0DEEFAB
:103DF0001EF00001F9B1FFEF1EF001EF1FF00BEF15
:103E00001FF013C00AF014C00BF011C00CF012C068
:103E10000DF037EC23F013C001F014C002F0C9EC30
:103E200022F01A500124116E1B500220126E120053
:103E3000000E066E04BE21EF1FF01FEF1FF027EFEC
:103E40001FF0036C041ED8B0042A010E066E02BED9
:103E50002EEF1FF02CEF1FF034EF1FF0016C021E4D
:103E6000D8B0022A010E061A000E086E000E076E68
:103E700003500410D8B43FEF1FF041EF1FF069EF7B
:103E80001FF0010E056E49EF1FF0D890033604367F
:103E9000052A04AE4EEF1FF050EF1FF045EF1FF064
:103EA000D890073608360350015C04500258D8A059
:103EB0005CEF1FF05EEF1FF063EF1FF00350015E39
:103EC0000450025A0780D89004320332052E50EF76
:103ED0001FF00650D8B46FEF1FF071EF1FF075EFB1
:103EE0001FF0076C081ED8B0082A07C001F008C0F0
:103EF00002F01200C7EC23F028EC24F0EEEC23F0E3
:103F00000EEC21F033EC24F0010E176E0F0E186E3C
:103F1000D3EC20F02FEC24F0160E176E0F0E186E57
:103F2000D3EC20F0000E026E000E016E85EC20F046
:103F300001C015F002C016F0000E16BEFF0E176E7F
:103F4000186E010E24EC17F015C0D1F016C0D2F097
:103F500017C0D3F018C0D4F0ADEC23F0000E026E01
:103F6000000E016E85EC20F001C015F002C016F0C5
:103F7000000E16BEFF0E176E186E010E24EC17F021
:103F800015C055F016C056F017C057F018C058F0BD
:103F90005AEC1CF055C0E9F056C0EAF0E9C060F0F8
:103FA000EAC061F03FEC1AF082EF1FF001EF00F081
:103FB000000E066E02BEE1EF1FF0DFEF1FF0E7EF2D
:103FC0001FF0016C021ED8B0022A010E066E04BE5C
:103FD000EEEF1FF0ECEF1FF0F2EF1FF0036C041E8A
:103FE000D8B0042A03500410D8B4F9EF1FF0FBEF47
:103FF0001FF01FEF20F0010E056E03EF20F0D890A8
:1040000003360436052A04AE08EF20F00AEF20F04C
:10401000FFEF1FF00350015C04500258D8A013EFCB
:1040200020F015EF20F019EF20F00350015E04504E
:10403000025AD89004320332052E0AEF20F00650BF
:10404000D8B425EF20F027EF20F02BEF20F0016C03
:10405000021ED8B0022A01C001F002C002F0120014
:10406000000E0114096E000E02140A6E800E031475
:104070000B6E7F0E04140C6E09500A100B100C10FE
:10408000D8A445EF20F047EF20F04FEF20F0000ECE
:10409000016E000E026E000E036E000E046E000E26
:1040A0000514096E000E06140A6E800E07140B6EBE
:1040B0007F0E08140C6E09500A100B100C10D8A4B7
:1040C00064EF20F066EF20F06EEF20F0000E056E3A
:1040D000000E066E000E076E000E086E05500118E9
:1040E0000FE1065002180CE10750031809E10850CF
:1040F0000418D8B47EEF20F080EF20F083EF20F09A
:10410000D89084EF20F0D880120001C003F0D8903E
:104110000336D89003363C0E0316C250C30B03106F
:10412000C26EC2B296EF20F09AEF20F0036A032A23
:104130009BEF20F0036A010E046E032AA2EF20F029
:10414000D8900436032EA0EF20F0C2B0AAEF20F0E2
:10415000AEEF20F0056A052AAFEF20F0056A010EE8
:10416000066E052AB6EF20F0D8900636052EB4EF7D
:1041700020F006500410C212C2B2C1EF20F0C3EF0B
:1041800020F0BCEF20F0C350C4CF03F0046A03C09A
:1041900004F0036A0310076E0450086E07C001F0B4
:1041A00008C002F0120017C001F018C002F0C9ECFC
:1041B00022F001C01BF002C01CF0000E1E6E000EAB
:1041C0001D6E02EF21F0000E026E040E016E1D50F6
:1041D0001724196E1E5018201A6E19C0F6FF1AC047
:1041E000F7FF000EF86E0E0EF76403D00800F550CE
:1041F00005D0F6CFE1FFF7CFE2FFE750FEEC17F076
:104200001D4A1E2A1B501D5C1C501E58D8A00BEFC7
:1042100021F00DEF21F0E3EF20F01200880E0F6E79
:10422000130E106E000E116E000E126EB6EC21F021
:10423000880E0F6E130E106E000E116E000E126EB1
:104240007FEC21F0880E0F6E130E106E000E116EB3
:10425000000E126E48EC21F0000E0001616F000E9E
:10426000606F4DEC1BF0000E0001616F000E606F7F
:10427000C6EC1AF0000E0001616F000E606F3FEC9B
:104280001AF01FEC24F016EC24F00DEC24F01200D0
:10429000E00E016EFC0E026E2B0E036E010E046E1C
:1042A000FBC013F0FCC014F0FDC015F0FEC016F00A
:1042B000020ED8901336143615361636E82E59EFFE
:1042C00021F0040ED8901336143615361636E82E23
:1042D00062EF21F013C005F014C006F015C007F01E
:1042E00016C008F0D4EC1BF00104CB6E0FC0FBF03D
:1042F00010C0FCF011C0FDF012C0FEF01200E00E84
:10430000016EFC0E026E2B0E036E010E046EFBC0DE
:1043100013F0FCC014F0FDC015F0FEC016F0020E44
:10432000D8901336143615361636E82E90EF21F055
:10433000040ED8901336143615361636E82E99EF3B
:1043400021F013C005F014C006F015C007F016C028
:1043500008F0D4EC1BF00104CB6E0FC0FBF010C0D2
:10436000FCF011C0FDF012C0FEF01200E00E016E74
:10437000FC0E026E2B0E036E010E046EFBC013F0DA
:10438000FCC014F0FDC015F0FEC016F0020ED8906F
:104390001336143615361636E82EC7EF21F0040E04
:1043A000D8901336143615361636E82ED0EF21F095
:1043B00013C005F014C006F015C007F016C008F0D1
:1043C000D4EC1BF00104CB6E0FC0FBF010C0FCF06E
:1043D00011C0FDF012C0FEF01200B6C0BAF0B7C0B6
:1043E000BBF0000E0001F46F000EF36F0BEF22F034
:1043F000B4C0A2F0B5C0A3F0BA0EA46F000EA56FB2
:10440000B8C0A6F0B9C0A7F004EC10F00001A251AA
:10441000F327A351F423BAC0F6FFBBC0F7FF000E89
:10442000F86E0800F5500009D8A419EF22F01BEF30
:1044300022F0F8EF21F0F3C0B4F0F4C0B5F01200B0
:1044400003C007F004C008F001C009F002C00AF080
:104450000750056E0850066E074A082A05C0F6FF89
:1044600006C0F7FF000EF86E09C0D9FF0AC0DAFFD8
:10447000094A0A2A0E0EF76403D00800F55005D049
:10448000F6CFE1FFF7CFE2FFE750DF6EDF50D8A4B1
:104490004CEF22F04EEF22F028EF22F01200C00E77
:1044A0000001C46F000EC56FBCC0C6F0BDC0C7F030
:1044B000000ECA6F000EC96F000ED06F000ECF6FD6
:1044C000C60EB46F000EB56FBEC0B6F0BFC0B7F079
:1044D000C40EB86F000EB96FEDEC21F00001C951A8
:1044E000BC25D96ECA51BD21DA6E000EDF6E1200F6
:1044F000010E076E200E01180210D8B482EF22F0D0
:1045000084EF22F09DEF22F0F70E036EFF0E046E93
:1045100001C005F002C006F0035005260450062233
:10452000065009E1050E055CD8A099EF22F09BEF3B
:1045300022F09DEF22F0000E076E07C001F0026A24
:104540001200E00E016EFC0E026E2B0E036E010EC9
:10455000046EFBC011F0FCC012F0FDC013F0FEC0F1
:1045600014F0040ED8901136123613361436E82E95
:10457000B2EF22F011C005F012C006F013C007F030
:1045800014C008F0D4EC1BF001C00FF002C010F012
:10459000120001C003F002C004F0D1EF22F0014A82
:1045A000022A01C0F6FF02C0F7FF000EF86E0E0EE1
:1045B000F76403D00800F55005D0F6CFE1FFF7CF40
:1045C000E2FFE7500009D8A4E8EF22F0EAEF22F07A
:1045D000CFEF22F00350015C016E04500258026ECE
:1045E0001200BF0E096EFF0E0A6E07C00BF008C066
:1045F0000CF009500B260A500C220C5007E11A0E41
:104600000B5CD8B006EF23F008EF23F00FEF23F098
:10461000200E0710076E0850086E13EF23F007C036
:1046200007F008C008F01200000E591A000E5A1ABE
:10463000000E5B1A800E5C1A55C001F056C002F0E5
:1046400057C003F058C004F059C005F05AC006F036
:104650005BC007F05CC008F0A4EC0DF001C055F0A1
:1046600002C056F003C057F004C058F01200000E0C
:10467000106E000E0F6E48EF23F00EC001F0026ABC
:104680000CC003F00DC004F050EC1EF00F4A102ACD
:104690000F500A24D96E10500B20DA6EDF500E6EC8
:1046A0000E50D8A456EF23F058EF23F03DEF23F03F
:1046B0001200BF0E036EFF0E046E01C005F002C0B3
:1046C00006F0035005260450062206500AE11A0E91
:1046D000055CD8A06EEF23F071EF23F0010E72EFAE
:1046E00023F0000E016E026A120001500210031046
:1046F0000410D8B47EEF23F080EF23F088EF23F08E
:10470000000E011A000E021A000E031A800E041A7F
:1047100001C001F002C002F003C003F004C004F0C5
:104720001200D00E036EFF0E046E01C005F002C031
:1047300006F0035005260450062206500AE10A0E30
:10474000055CD8A0A6EF23F0A9EF23F0010EAAEF95
:1047500023F0000E016E026A1200D50E0001BC6F3C
:10476000000EBD6F250EBE6F0F0EBF6FD1C0C0F023
:10477000D2C0C1F0D3C0C2F0D4C0C3F04FEC22F01D
:10478000D50E176E000E186ED3EC20F01200C2800A
:10479000C294C296C298C29AC180C182C184C19695
:1047A000C198C19AC08EC090C082C094000EC46EE1
:1047B000000EC36E120001500302F3CF05F0F4CFD8
:1047C00006F001500402F350062602500302F35093
:1047D000062605C001F006C002F01200020EC9EC68
:1047E00018F0280EC9EC18F00C0EC9EC18F0060EE3
:1047F000C9EC18F0010EC9EC18F0120001EE00F03F
:10480000500EEE6AE806FDE100EEEBF0140EEE6AE3
:10481000E806FDE100017AEF1FF0B780B782B784A8
:10482000B786CA80CA82CA8498901200BA80BA82B7
:10483000BA84BA86CA80CA82CA84969E1200BD8093
:10484000BD82BD84BD86CA80CA82CA849494120087
:104850009A909A92979097929998999A1200C00E6E
:10486000C9EC18F01200800EC9EC18F0120012000A
:020000040020DA
:08000000FFFFFFFFFFFFFFFF00
:020000040030CA
:0E000000FF220D0E830280FFFFC0FFE0FF40D5
:00000001FF
