:0600000000F07AEFFFF0B2
:020000040001F9
:10FEF4000001C1EFFFF0C69AAB9E6B9EB0989C9E2A
:10FF0400959012009C9EB098BA90BA92BA94BA9600
:10FF140096901200C180C182C184C186B59EB59CF1
:10FF240097901200A390A392A394A396A398A39A44
:10FF340098901200C180C182C184C186C198C19ABF
:10FF4400D29892901200C290C190C192C194C1966D
:10FF5400C198C19A9C8E99901200BD90BD92BD9497
:10FF6400BD96BA90BA92BA94BA96C69AAB9E6B9E54
:10FF7400BA90BA92BA94BA96CD969490120093809D
:10FF84009CECFFF0AFECFFF07DECFFF084ECFFF0B5
:10FF94008CECFFF094ECFFF0A5ECFFF081B0D5EF12
:10FFA400FFF0D7EFFFF0EAEFFFF0808082808380DC
:10FFB4008480858086808780200E026EB50E016E57
:10FFC400CB0EE82EFED7012EFCD7022EFAD700F076
:10FFD4008090829083908490859086908790040E80
:10FFE400026E2C0E016EAC0EE82EFED7012EFCD74D
:0CFFF400022EFAD7D0EFFFF001EF00F072
:020000040020DA
:08000000FFFFFFFFFFFFFFFF00
:020000040030CA
:0E000000FF220D0E830280FFFFC0FFE0FF40D5
:00000001FF
