:0600000000F006EF21F004
:100F0000002A2A2A504943313846383732302D4199
:100F100044432A2A2A004144432044617461203A10
:100F20002000566F6C74616765203A2000252E32D0
:100F30006600494E46004E414E00696E66006E6185
:090F40006E006C660020560000F2
:100F4A00000E0001756F000E746F30C086F031C05C
:100F5A0087F032C088F033C089F089BFB9EF07F053
:100F6A00B7EF07F0CFEF07F0000E756F010E746F41
:100F7A0086C001F087C002F088C003F089C004F07F
:100F8A0079EC20F001C086F002C087F003C088F037
:100F9A0004C089F0000E00018D6F000E8C6FC8C06E
:100FAA0078F0C9C079F074517511D8A4DFEF07F051
:100FBA00E1EF07F0E8EF07F05DA4E6EF07F0E8EFEE
:100FCA0007F002EF08F074517511D8A4EFEF07F09B
:100FDA00F1EF07F0F7EF07F0000E616F2B0E606F6D
:100FEA00FBEF07F0000E616F2D0E606F60C000F11D
:100FFA008C4B8D2B7807D8A0790786C001F087C063
:10100A0002F088C003F089C004F0CBEC1BF00104A5
:10101A000210D8A413EF08F015EF08F060EF08F0FB
:10102A00BF0E356EFF0E366E3450376E386A355045
:10103A00372636503822385007E11A0E375CD8B0B6
:10104A0029EF08F02BEF08F03AEF08F0000E000144
:10105A008C25016E010E8D21026E320E036E0F0E6B
:10106A00046E4CEC1FF047EF08F0000E00018C25CF
:10107A00016E010E8D21026E3A0E036E0F0E046E82
:10108A004CEC1FF00001FD0E7827FF0E79232EC0CD
:10109A0011F02FC012F0000E136E010E146E78C0FC
:1010AA0015F079C016F082EC1DF011C02EF012C0B6
:1010BA002FF0ACEF0DF086C001F087C002F088C0B7
:1010CA0003F089C004F0CBEC1BF001500210D8A445
:1010DA0071EF08F073EF08F0A7EF08F0BF0E356E56
:1010EA00FF0E366E3450376E386A35503726365012
:1010FA003822385007E11A0E375CD8B087EF08F06B
:10110A0089EF08F098EF08F0000E00018C25016EB7
:10111A00010E8D21026E360E036E0F0E046E4CEC1C
:10112A001FF047EF08F0000E00018C25016E010E3A
:10113A008D21026E3E0E036E0F0E046E4CEC1FF0F4
:10114A0047EF08F0000E00018E6F000E8F6F800EC1
:10115A00906F3F0E916F000E8B6F000E8A6F86C0E4
:10116A0001F087C002F088C003F089C004F0000EC5
:10117A00056E000E066E000E076E000E086E3BEC42
:10118A001EF0D8B0CBEF08F0CDEF08F050EF09F021
:10119A00ECEF08F08EC001F08FC002F090C003F0AF
:1011AA0091C004F0000E056E000E066E200E076E4A
:1011BA00410E086E3DEC12F001C08EF002C08FF0B5
:1011CA0003C090F004C091F000018A4B8B2B86C0BB
:1011DA001AF087C01BF088C01CF089C01DF0000EF1
:1011EA00056E000E066E200E076E410E086E8EC04A
:1011FA0001F08FC002F090C003F091C004F03DEC02
:10120A0012F001C01EF002C01FF003C020F004C09B
:10121A0021F0CAEC1AF0D8B015EF09F017EF09F06F
:10122A00CFEF08F037EF09F08EC001F08FC002F05F
:10123A0090C003F091C004F0000E056E000E066E19
:10124A00200E076E410E086E52EC14F001C08EF0AB
:10125A0002C08FF003C090F004C091F000018A0729
:10126A00D8A08B0786C01AF087C01BF088C01CF074
:10127A0089C01DF08EC01EF08FC01FF090C020F0F4
:10128A0091C021F0CAEC1AF0D8A04EEF09F050EF45
:10129A0009F019EF09F034C007F0086AF5EC1FF0FD
:1012AA00075000017B6F7BC07AF0670E7B19D8A4C8
:1012BA0061EF09F063EF09F089EF09F0CA51CB1128
:1012CA00D8A46AEF09F06CEF09F070EF09F0000E8C
:1012DA00CB6F010ECA6FCBBF7DEF09F0CB5106E190
:1012EA00CA05D8B07BEF09F07DEF09F083EF09F06A
:1012FA00000E776F060E766F92EF09F0CAC076F08D
:10130A00CBC077F092EF09F0CBBF8EEF09F090EFE8
:10131A0009F07DEF09F083EF09F0670E7B19D8A475
:10132A0099EF09F09BEF09F0CAEF09F08BAFA9EF2B
:10133A0009F0FC0E8A5DFF0E8B59D8A0A7EF09F0C1
:10134A00A9EF09F0C8EF09F0FF0E356EFF0E366EF1
:10135A0076C037F077C038F0355037263650382205
:10136A008A51375C3850800A396E8B51800A395855
:10137A00D8A0C2EF09F0C4EF09F0C8EF09F0660E71
:10138A007A6FCAEF09F0650E7A6F76C06CF077C093
:10139A006DF0670E7B19D8A4D5EF09F0D7EF09F0E5
:1013AA00E7EF09F0660E7A19D8A4DEEF09F0E0EF4C
:1013BA0009F0E9EF09F08BBFE7EF09F0E5EF09F073
:1013CA00E9EF09F06C4B6D2B660E7A19D8A4F0EF91
:1013DA0009F0F2EF09F012EF0AF08BBFF9EF09F00A
:1013EA00F7EF09F005EF0AF0000E8E6F000E8F6F0F
:1013FA00800E906F3F0E916F000E8B6F000E8A6FFA
:10140A00670E7B19D8B40CEF0AF00EEF0AF012EF50
:10141A000AF08A516C278B516D23000E856F000EDE
:10142A00846F86C07CF087C07DF088C07EF089C05A
:10143A007FF08EC06EF08FC06FF090C070F091C0D8
:10144A0071F0A3EF0AF07CC001F07DC002F07EC00B
:10145A0003F07FC004F08EC005F08FC006F090C084
:10146A0007F091C008F052EC14F001C01AF002C063
:10147A001BF003C01CF004C01DF01FEC16F01AC0CC
:10148A0080F01BC081F01CC082F01DC083F080C0B8
:10149A0001F081C002F082C003F083C004F047EC7F
:1014AA001AF001C072F002C073F07CC01AF07DC05D
:1014BA001BF07EC01CF07FC01DF08EC005F08FC0EF
:1014CA0006F090C007F091C008F080C001F081C01A
:1014DA0002F082C003F083C004F03DEC12F001C0B8
:1014EA001EF002C01FF003C020F004C021F018EC67
:1014FA0020F01AC07CF01BC07DF01CC07EF01DC01D
:10150A007FF08EC001F08FC002F090C003F091C04E
:10151A0004F0000E056E000E066E200E076E410ED8
:10152A00086E52EC14F001C08EF002C08FF003C0B6
:10153A0090F004C091F00001844B852B6C51845DBE
:10154A008551800A356E6D51800A3558D8A0B0EFA2
:10155A000AF0B2EF0AF028EF0AF08EC001F08FC04D
:10156A0002F090C003F091C004F0000E056E000E68
:10157A00066EA00E076E400E086E3DEC12F001C01A
:10158A0080F002C081F003C082F004C083F07CC006
:10159A001AF07DC01BF07EC01CF07FC01DF080C019
:1015AA001EF081C01FF082C020F083C021F0CAEC77
:1015BA001AF0D8B0E3EF0AF0E5EF0AF0F0EF0AF01C
:1015CA00000E0001806F000E816F000E826F000E08
:1015DA00836F19EF0BF07CC001F07DC002F07EC072
:1015EA0003F07FC004F080C005F081C006F082C01D
:1015FA0007F083C008F03BEC1EF0D8A007EF0BF011
:10160A0009EF0BF019EF0BF0000172B10FEF0BF0BD
:10161A0011EF0BF019EF0BF0000E806F000E816FC7
:10162A00000E826F000E836F86C001F087C002F041
:10163A0088C003F089C004F080C005F081C006F0BC
:10164A0082C007F083C008F0ADEC0DF001C07CF059
:10165A0002C07DF003C07EF004C07FF07CC01AF0A7
:10166A007DC01BF07EC01CF07FC01DF0000E056E11
:10167A00000E066E200E076E410E086E6EC001F057
:10168A006FC002F070C003F071C004F03DEC12F0BC
:10169A0001C01EF002C01FF003C020F004C021F0F8
:1016AA00CAEC1AF0D8A05CEF0BF05EEF0BF087EFF4
:1016BA000BF000018A4B8B2B6EC001F06FC002F059
:1016CA0070C003F071C004F0000E056E000E066EC5
:1016DA00200E076E410E086E3DEC12F001C06EF04E
:1016EA0002C06FF003C070F004C071F0660E000112
:1016FA007A19D8A483EF0BF085EF0BF087EF0BF084
:10170A006C4B6D2B6EC08EF06FC08FF070C090F076
:10171A0071C091F0650E00017A19D8B497EF0BF0F9
:10172A0099EF0BF09FEF0BF08AC06AF08BC06BF059
:10173A00A3EF0BF0000E6B6F000E6A6F000E696F5D
:10174A00000E686F000E676F000E666F000E856FE1
:10175A00000E846F9FEF0CF07CC001F07DC002F098
:10176A007EC003F07FC004F08EC005F08FC006F083
:10177A0090C007F091C008F052EC14F001C01AF0C2
:10178A0002C01BF003C01CF004C01DF01FEC16F0D1
:10179A001AC080F01BC081F01CC082F01DC083F00B
:1017AA0080C001F081C002F082C003F083C004F05F
:1017BA0047EC1AF001C072F002C073F05DB8E8EFAE
:1017CA000BF0EAEF0BF008EF0CF000017251731105
:1017DA00D8A4F2EF0BF0F4EF0BF008EF0CF0670E61
:1017EA007B19D8A4FBEF0BF0FDEF0BF008EF0CF020
:1017FA006BBF04EF0CF002EF0CF008EF0CF0664B35
:10180A00672B53EF0CF0000168516911D8A410EF4F
:10181A000CF012EF0CF03CEF0CF06BBF19EF0CF070
:10182A0017EF0CF03CEF0CF0000E8C25D96E010E70
:10183A008D21DA6E2E0EDF6E8C4B8D2B7807D8A099
:10184A007907000E696F010E686F3CEF0CF0000E0D
:10185A008C25D96E010E8D21DA6E300EDF6E8C4B1F
:10186A008D2B7807D8A079076607D8A06707665135
:10187A006711D8A443EF0CF045EF0CF02CEF0CF0F5
:10188A00000E8C25D96E010E8D21DA6E7251300F41
:10189A00DF6E8C4B8D2B7807D8A079077CC01AF0A5
:1018AA007DC01BF07EC01CF07FC01DF08EC005F00D
:1018BA008FC006F090C007F091C008F080C001F018
:1018CA0081C002F082C003F083C004F03DEC12F044
:1018DA0001C01EF002C01FF003C020F004C021F0B6
:1018EA0018EC20F01AC07CF01BC07DF01CC07EF002
:1018FA001DC07FF08EC001F08FC002F090C003F0CF
:10190A0091C004F0000E056E000E066E200E076EE2
:10191A00410E086E52EC14F001C08EF002C08FF036
:10192A0003C090F004C091F000016A07D8A06B07C9
:10193A00844B852B6C51845D8551800A356E6D51BF
:10194A00800A3558D8B0ACEF0CF0AEEF0CF0BCEF13
:10195A000CF08DBFBAEF0CF08D5109E14B0E8C5D86
:10196A00D8A0BAEF0CF0BCEF0CF0B1EF0BF0685155
:10197A006911D8A4C3EF0CF0C5EF0CF0D6EF0CF048
:10198A005DA8CAEF0CF0CCEF0CF0D6EF0CF0000E0D
:10199A008C25D96E010E8D21DA6E2E0EDF6E8C4BE0
:1019AA008D2B000E8C25D96E010E8D21DA6E000E5C
:1019BA00DF6E650E7A19D8A4E5EF0CF0E7EF0CF0AC
:1019CA004CEF08F0000E856F4F0E846F000E8425D1
:1019DA00D96E010E8521DA6E000EDF6E000E756F6C
:1019EA00000E746F8BBFFEEF0CF0FCEF0CF006EFED
:1019FA000DF0000E756F010E746F8A6D8B1FD8B0D3
:101A0A008B2B000E776F020E766F37EF0DF084077F
:101A1A00D8A08507000E8425D96E010E8521DA6EBD
:101A2A008AC001F08BC002F0000E046E0A0E036E2B
:101A3A00E3EC1DF00150300FDF6E8AC001F08BC05D
:101A4A0002F0000E046E0A0E036E20EC1DF001C0B7
:101A5A008AF002C08BF000017607D8A077077807D2
:101A6A00D8A079078A518B11D8A43EEF0DF040EF28
:101A7A000DF00CEF0DF077BF4DEF0DF0775106E149
:101A8A007605D8B04BEF0DF04DEF0DF00CEF0DF0E1
:101A9A008407D8A0850774517511D8A457EF0DF0A3
:101AAA0059EF0DF05FEF0DF0000E636F2B0E626FB2
:101ABA0063EF0DF0000E636F2D0E626F000E84252A
:101ACA00D96E010E8521DA6E62C0DFFF7807D8A0D1
:101ADA0079078407D8A08507BF0E356EFF0E366ECC
:101AEA003450376E386A35503726365038223850D7
:101AFA0009E11A0E375CD8A085EF0DF087EF0DF0DB
:101B0A008DEF0DF0000E656F650E646F91EF0DF0AD
:101B1A00000E656F450E646F000E8425D96E010EA6
:101B2A008521DA6E64C0DFFF7807D8A07907000E36
:101B3A008C25016E010E8D21026E000E8425036E26
:101B4A00010E8521046E4CEC1FF04CEF08F01200D8
:101B5A000450800B0D6E045004240F6E03AEB8EFD0
:101B6A000DF0BAEF0DF0BBEF0DF00F800F50D8B4A7
:101B7A00C1EF0DF0C3EF0DF0D8EF0DF00F28D8A488
:101B8A00C9EF0DF0CBEF0DF0D3EF0DF0000E016EA3
:101B9A00000E026E000E036E000E046E038E000E1F
:101BAA00046EE0EF0DF0000E016E000E026E000EE4
:101BBA00036E000E046E0850800B0E6E0D500E1848
:101BCA00D8B4EAEF0DF0ECEF0DF0EDEF0DF00D8C5F
:101BDA00085008240E6E07AEF5EF0DF0F7EF0DF082
:101BEA00F8EF0DF00E800E50D8B4FEEF0DF000EFB6
:101BFA000EF015EF0EF00E28D8A406EF0EF008EF3F
:101C0A000EF010EF0EF0000E056E000E066E000EBE
:101C1A00076E000E086E078E000E086E1DEF0EF09E
:101C2A00000E056E000E066E000E076E000E086EA0
:101C3A000F500E5CD8B024EF0EF026EF0EF04DEFE9
:101C4A000EF00DAC2BEF0EF02DEF0EF02FEF0EF085
:101C5A00800E0D1A0FC010F00EC00FF010C00EF05B
:101C6A0001C010F005C001F010C005F002C010F06C
:101C7A0006C002F010C006F003C010F007C003F05F
:101C8A0010C007F004C010F008C004F010C008F03B
:101C9A00000E106E0F500EC009F00A6A095E000E9F
:101CAA000A5A0ABE62EF0EF00A5009E11A0E095CDE
:101CBA00D8A062EF0EF064EF0EF09BEF0EF0015029
:101CCA00021003100410D8A46DEF0EF070EF0EF09E
:101CDA00010E71EF0EF0000E106E000E016E000E76
:101CEA00026E000E036E000E046E0EC00FF0A4EF1B
:101CFA000EF010A083EF0EF085EF0EF08BEF0EF0D2
:101D0A00D89010300109106E8DEF0EF0D890103275
:101D1A0001A092EF0EF094EF0EF095EF0EF0108EF8
:101D2A00043404320332023201320F2A0E500F5C9D
:101D3A00D8A0A2EF0EF0A4EF0EF07EEF0EF00DBCCD
:101D4A00A9EF0EF0ABEF0EF0EBEF0EF00F50D8A4A8
:101D5A00B1EF0EF0B3EF0EF0BDEF0EF0000E016E14
:101D6A00000E026E000E036E000E046E0CEF10F0F1
:101D7A000550012606500222075003220850042269
:101D8A0004A0CAEF0EF0CCEF0EF078EF0FF010A01F
:101D9A00D1EF0EF0D3EF0EF0D9EF0EF0D89010304D
:101DAA000109106EDBEF0EF0D890103201A0E0EFBF
:101DBA000EF0E2EF0EF0E3EF0EF0108E0434043270
:101DCA000332023201320F2A78EF0FF00550015C1C
:101DDA0006500258075003580450800A096E0850EA
:101DEA00800A0958D8B0FCEF0EF0FEEF0EF029EF8A
:101DFA000FF00150055C096E025006580A6E035036
:101E0A0007580B6E045008580C6EFF0E0924016E19
:101E1A00FF0E0A20026EFF0E0B20036EFF0E0C202F
:101E2A00046E800E0D1A106C1050D8A41FEF0FF01C
:101E3A0021EF0FF031EF0FF0010E0126000E022202
:101E4A000322042231EF0FF00550015E0650025AB8
:101E5A000750035A0850045A015002100310041084
:101E6A00D8A43AEF0FF03CEF0FF071EF0FF01050DB
:101E7A00D8A442EF0FF044EF0FF071EF0FF0000E0D
:101E8A00016E000E026E000E036E000E046E0CEF61
:101E9A0010F0D890013602360336043610AE58EFE9
:101EAA000FF05AEF0FF05BEF0FF0018010A060EF18
:101EBA000FF062EF0FF066EF0FF0D880103668EF80
:101ECA000FF0D89010360F50D8B46EEF0FF070EFB5
:101EDA000FF071EF0FF00F0603AE76EF0FF078EF09
:101EEA000FF04EEF0FF0000E0E6E10AE7FEF0FF0F8
:101EFA0081EF0FF099EF0FF010C009F07F0E09166D
:101F0A00D8B48AEF0FF08CEF0FF090EF0FF0010EBC
:101F1A000E6E99EF0FF001A095EF0FF097EF0FF00B
:101F2A0099EF0FF08CEF0FF00E50D8B49FEF0FF02F
:101F3A00A1EF0FF0CCEF0FF0010E0126000E0222E6
:101F4A000322042204A0ACEF0FF0AEEF0FF0CCEFA7
:101F5A000FF001C009F002C00AF003C00BF004C080
:101F6A000CF00C340C320B320A32093209C001F07F
:101F7A000AC002F00BC003F00CC004F00F28D8B45A
:101F8A00C9EF0FF0CBEF0FF0CCEF0FF00F2A0F28AD
:101F9A00D8B4D2EF0FF0D4EF0FF0DCEF0FF00F5000
:101FAA00D8A4DAEF0FF0DCEF0FF0EEEF0FF0000E2F
:101FBA00016E000E026E000E036E000E046E0F50CC
:101FCA00D8A4EAEF0FF0ECEF0FF0EEEF0FF0000EEF
:101FDA000D6E0FA0F3EF0FF0F5EF0FF0F8EF0FF023
:101FEA00038EF9EF0FF0039ED8900F30046E0DAEFA
:101FFA0001EF10F003EF10F004EF10F0048E01C0AF
:10200A0001F002C002F003C003F004C004F01200A1
:10201A0094C0D9FF95C0DAFFDECFF6FFDDCFF7FF18
:10202A00000EF86E0800F550250AD8A41FEF10F02C
:10203A0021EF10F01FEF12F094C0D9FF95C0DAFF1C
:10204A00DE2A000EDD22000E0001C96F000EC86FE5
:10205A00C8C05DF0C9C05EF0CA69CB6994C0D9FF37
:10206A0095C0DAFFDECFF6FFDDCFF7FF000EF86E80
:10207A000800F5502E0AD8A445EF10F047EF10F0EB
:10208A00BBEF10F0000ECB6F000ECA6F94C0D9FFE1
:10209A0095C0DAFFDE2A000EDD2294C0D9FF95C072
:1020AA00DAFFDECFF6FFDDCFF7FF000EF86E08008D
:1020BA00F5502A0AD8A464EF10F066EF10F083EF07
:1020CA0010F094C0D9FF95C0DAFFDE2A000EDD2297
:1020DA0096C0D9FF97C0DAFFDFCF3AF0020EDE26AC
:1020EA00DFCF3BF0000EDD223AC0D9FF3BC0DAFF5A
:1020FA00DECFCAF0DDCFCBF0BBEF10F094C0D9FF32
:10210A0095C0DAFFDECF08F0DDCF09F092EC19F0C6
:10211A0008C0CAF009C0CBF09AEF10F094C0D9FFFA
:10212A0095C0DAFFDE2A000EDD22D00E3A6EFF0ECF
:10213A003B6E94C0D9FF95C0DAFFDECFF6FFDDCF44
:10214A00F7FF000EF86E0800F5503C6E3D6A3A50F3
:10215A003C263B503D223D5009E10A0E3C5CD8A08A
:10216A00B9EF10F0BBEF10F093EF10F094C0D9FF65
:10217A0095C0DAFFDECFF6FFDDCFF7FF000EF86E6F
:10218A000800F550076E086AF5EC1FF00750426E1A
:10219A004250D8B4D3EF10F0D5EF10F011EF11F090
:1021AA0094C0D9FF95C0DAFFDECF3AF0DDCF3BF01D
:1021BA00010E3A26000E3B223AC0F6FF3BC0F7FF5B
:1021CA00000EF86E0800F550076E086AF5EC1FF06D
:1021DA000750436E4350D8B4F5EF10F0F7EF10F004
:1021EA0011EF11F094C0D9FF95C0DAFFDECF3AF0B3
:1021FA00DDCF3BF0020E3A26000E3B223AC0F6FF34
:10220A003BC0F7FF000EF86E0800F550076E086A2B
:10221A00F5EC1FF00750446E660E4218D8A418EF6A
:10222A0011F01AEF11F05CEF11F094C0D9FF95C0CC
:10223A00DAFFDECFF6FFDDCFF7FF000EF86E0800FB
:10224A00F5CF45F094C0D9FF95C0DAFFDE2A000E1B
:10225A00DD2296C0D9FF97C0DAFFDFCF3AF0040E2D
:10226A00DE26DFCF3BF0000EDD223AC0D9FF3BC0AD
:10227A00DAFFDECF3EF0DECF3FF0DECF40F0DECF3A
:10228A0041F092C02EF093C02FF03EC030F03FC014
:10229A0031F040C032F041C033F045C034F0A5EC13
:1022AA0007F02EC092F02FC093F03CEF12F0420ECE
:1022BA00016E000E026E420E036E0F0E046E000EC9
:1022CA00066E020E056E4AEC1CF001500210D8A4EC
:1022DA0071EF11F073EF11F0E5EF11F094C0D9FF2F
:1022EA0095C0DAFFDECF3AF0DDCF3BF0010E3A2699
:1022FA00000E3B223AC0F6FF3BC0F7FF000EF86E15
:10230A000800F5CF45F0BF0E3A6EFF0E3B6E94C043
:10231A00D9FF95C0DAFFDECFF6FFDDCFF7FF000E5B
:10232A00F86E0800F5503C6E3D6A3A503C263B5028
:10233A003D223D5007E11A0E3C5CD8B0A7EF11F0E0
:10234A00A9EF11F0C3EF11F096C0D9FF97C0DAFFD9
:10235A00DFCF3AF0040EDE26DFCF3BF0000EDD229F
:10236A003AC0D9FF3BC0DAFFDECF3EF0DECF3FF006
:10237A00DECF40F0DECF41F0DBEF11F096C0D9FF9F
:10238A0097C0DAFFDFCF3AF0040EDE26DFCF3BF04C
:10239A00000EDD223AC0D9FF3BC0DAFFDECF3EF0A5
:1023AA00DECF3FF0DECF40F0DECF41F0020E94C028
:1023BA00D9FF95C0DAFFDE26000EDD2246EF11F0C6
:1023CA0094C0D9FF95C0DAFFDECFF6FFDDCFF7FF65
:1023DA00000EF86E0800F550250AD8A4F7EF11F0A0
:1023EA00F9EF11F011EF12F094C0D9FF95C0DAFF9E
:1023FA00DE2A000EDD22000E026E250E016E92C04C
:10240A0003F093C004F0BBEC1CF0000E0001936FC4
:10241A00010E926F3CEF12F094C0D9FF95C0DAFF1B
:10242A00DE2A000EDD22000E0001936F000E926F6D
:10243A003CEF12F094C0D9FF95C0DAFFDECFF6FF69
:10244A00DDCFF7FF000EF86E0800F550016E026A44
:10245A0092C003F093C004F0BBEC1CF094C0D9FF07
:10246A0095C0DAFFDE2A000EDD220AEF12F0120012
:10247A000450800B0D6E04500424136E03AE48EF13
:10248A0012F04AEF12F04BEF12F013801350D8B447
:10249A0051EF12F053EF12F066EF12F01328D8A49E
:1024AA0059EF12F05BEF12F063EF12F0000E016EBB
:1024BA00000E026E000E036E000E046E038E6EEFA7
:1024CA0012F0000E016E000E026E000E036E000E78
:1024DA00046E0850800B0D1A08500824126E07AEBD
:1024EA0079EF12F07BEF12F07CEF12F012801250AB
:1024FA00D8B482EF12F084EF12F097EF12F012289C
:10250A00D8A48AEF12F08CEF12F094EF12F0000EBA
:10251A00056E000E066E000E076E000E086E078E20
:10252A009FEF12F0000E056E000E066E000E076E8B
:10253A00000E086E1250D8B4A5EF12F0A7EF12F0F1
:10254A00AFEF12F01350D8A4ADEF12F0AFEF12F0C4
:10255A00B9EF12F0000E016E000E026E000E036E4D
:10256A00000E046E51EF14F007500102F3CF18F079
:10257A00F4CF19F018500E6E0F6A106A116A1950CA
:10258A00146E156A166A176A06500202F3CF18F01B
:10259A00F4CF19F018500E26000E0F221022112225
:1025AA0019501426000E152216221722055003026E
:1025BA00F3CF18F0F4CF19F018500E26000E0F22A0
:1025CA001022112219501426000E15221622172243
:1025DA0010C011F00FC010F00EC00FF00E6A0550B7
:1025EA000202F3CF18F0F4CF19F018500E26195042
:1025FA000F22000E1022000E112206500102F3CF04
:10260A0018F0F4CF19F018500E2619500F22000EA8
:10261A001022000E112210C011F00FC010F00EC0CF
:10262A000FF00E6A05500102F3CF18F0F4CF19F03B
:10263A0018500E2619500F22000E1022000E1122D9
:10264A0007500202F3CF18F0F4CF19F018501426ED
:10265A0019501522000E1622000E172206500302E8
:10266A00F3CF18F0F4CF19F0185014261950152288
:10267A00000E1622000E172207500302F3CF18F09D
:10268A00F4CF19F01850096E19500A6E0B6A0C6AC9
:10269A000BC00CF00AC00BF009C00AF0096A095015
:1026AA0014260A5015220B5016220C5017220EC05F
:1026BA0009F00FC00AF010C00BF011C00CF0190E8F
:1026CA006CEF13F0D8900C320B320A320932E82E32
:1026DA0067EF13F0095014260A5015220B501622E0
:1026EA000C50172210C011F00FC010F00EC00FF0DE
:1026FA000E6A125013C009F00A6A0926000E0A224D
:10270A00820E0924186EFF0E0A20196EA2EF13F02A
:10271A00D890143615361636173611AE97EF13F0D1
:10272A0099EF13F09AEF13F01480D8900E360F3603
:10273A00103611361806D8A0190616AEA7EF13F0F0
:10274A00A9EF13F08DEF13F0000E126E11AEB0EF79
:10275A0013F0B2EF13F0D6EF13F0FF0E0E14096E5A
:10276A00FF0E0F140A6EFF0E10140B6E7F0E11145B
:10277A000C6E09500A100B100C10D8B4C7EF13F0E6
:10278A00C9EF13F0CDEF13F0010E126ED6EF13F06E
:10279A0014A0D2EF13F0D4EF13F0D6EF13F0C9EF71
:1027AA0013F01250D8B4DCEF13F0DEEF13F002EF9F
:1027BA0014F0010E1426000E15221622172217A055
:1027CA00E9EF13F0EBEF13F002EF14F014C009F085
:1027DA0015C00AF016C00BF017C00CF00C340C32FE
:1027EA000B320A32093209C014F00AC015F00BC0C4
:1027FA0016F00CC017F0184A192A19BE0DEF14F07A
:10280A00195008E11828D8A00DEF14F00FEF14F0B2
:10281A0019EF14F0000E146E000E156E800E166E6F
:10282A007F0E176E47EF14F019BE26EF14F01950F9
:10283A0006E11804D8B024EF14F026EF14F032EFB2
:10284A0014F0000E146E000E156E000E166E000EB9
:10285A00176E000E0D6E47EF14F018C013F0FF0E3E
:10286A001416FF0E15167F0E1616000E171613A055
:10287A0041EF14F043EF14F044EF14F0168ED890A1
:10288A001330176E0D50171214C001F015C002F064
:10289A0016C003F017C004F012000450800B116E2A
:1028AA0004500424186E03AE5DEF14F05FEF14F0C9
:1028BA0060EF14F018801850D8B466EF14F068EF7F
:1028CA0014F07DEF14F01828D8A46EEF14F070EF0E
:1028DA0014F078EF14F0000E016E000E026E000E76
:1028EA00036E000E046E038E000E046E85EF14F064
:1028FA00000E016E000E026E000E036E000E046ED4
:10290A000850800B111A08500824196E07AE90EF70
:10291A0014F092EF14F093EF14F019801950D8B410
:10292A0099EF14F09BEF14F0B0EF14F01928D8A423
:10293A00A1EF14F0A3EF14F0ABEF14F0000E056E44
:10294A00000E066E000E076E000E086E078E000E51
:10295A00086EB8EF14F0000E056E000E066E000E3B
:10296A00076E000E086E0550061007100810D8A44E
:10297A00C1EF14F0C3EF14F0DBEF14F0000E016E98
:10298A00000E026E000E036E000E046E800E03121D
:10299A007F0E04121150041201C001F002C002F0AD
:1029AA0003C003F004C004F01EEF16F01850D8A4B8
:1029BA00E1EF14F0E3EF14F0EDEF14F0000E016E06
:1029CA00000E026E000E036E000E046E1EEF16F06D
:1029DA00195018C009F00A6A095E000E0A5A7F0ED9
:1029EA000924126E000E0A20136E01C00DF002C0F7
:1029FA000EF003C00FF004C010F0000E016E000EBE
:102A0A00026E000E036E000E046E000E146E000EAF
:102A1A00156E000E166E000E176E000E196E4EEF32
:102A2A0015F01950D8B41CEF15F01EEF15F035EF5C
:102A3A0015F0D8900D360E360F361036D89001366E
:102A4A0002360336043617AE2DEF15F02FEF15F0C8
:102A5A0030EF15F00180D890143615361636173631
:102A6A0005500D5C06500E5807500F580850105864
:102A7A00D8A042EF15F044EF15F04DEF15F0178C82
:102A8A0005500D5E06500E5A07500F5A0850105A3C
:102A9A00192A190E196454EF15F056EF15F016EFAE
:102AAA0015F00D500E100F101010D8B45FEF15F07E
:102ABA0061EF15F079EF15F0148079EF15F0D890E1
:102ACA00013602360336043617AE6EEF15F070EF94
:102ADA0015F071EF15F00180D890143615361636B8
:102AEA0017361206D8A0130603AE7EEF15F080EF54
:102AFA0015F064EF15F0000E196E17AE87EF15F09A
:102B0A0089EF15F0ADEF15F0FF0E1414096EFF0EE4
:102B1A0015140A6EFF0E16140B6E7F0E17140C6E28
:102B2A0009500A100B100C10D8B49EEF15F0A0EF44
:102B3A0015F0A4EF15F0010E196EADEF15F001A016
:102B4A00A9EF15F0ABEF15F0ADEF15F0A0EF15F00A
:102B5A001950D8B4B3EF15F0B5EF15F0D9EF15F059
:102B6A00010E0126000E02220322042204A0C0EF55
:102B7A0015F0C2EF15F0D9EF15F001C009F002C047
:102B8A000AF003C00BF004C00CF00C340C320B3208
:102B9A000A32093209C001F00AC002F00BC003F080
:102BAA000CC004F0124A132A13BEE4EF15F01350B6
:102BBA0008E11228D8A0E4EF15F0E6EF15F0F1EFDE
:102BCA0015F0000E136E1268000E016E000E026EF2
:102BDA00000E036E000E046E13BEFEEF15F01350C6
:102BEA0006E11204D8B0FCEF15F0FEEF15F00CEF79
:102BFA0016F0000E136E000E126E000E016E000E1D
:102C0A00026E000E036E000E046E000E116E12C0EC
:102C1A0018F018A013EF16F015EF16F018EF16F0CB
:102C2A00038E19EF16F0039ED8901830046ECFEF7A
:102C3A0014F01200BEC02AF0BFC02BF0C0C02CF0A6
:102C4A00C1C02DF01AC02AF01BC02BF01CC02CF0FA
:102C5A001DC02DF0810E1E6EFF0E1F6E2AC020F0C1
:102C6A002BC021F02CC022F02DC023F0180E43EF08
:102C7A0016F0D8902332223221322032E82E3EEF4B
:102C8A0016F020501E24286E000E1F20296E29BE21
:102C9A0058EF16F0295009E1170E285CD8A058EF12
:102CAA0016F05AEF16F064EF16F01AC01AF01BC0AD
:102CBA001BF01CC01CF01DC01DF027EF17F029BE29
:102CCA0069EF16F06BEF16F0DBEF16F028C01EF076
:102CDA00FF0E1F6EFF0E206E7F0E216E000E226EFB
:102CEA001E667AEF16F082EF16F022342232213273
:102CFA0020321F321E2E75EF16F01FC024F020C09E
:102D0A0025F021C026F022C027F024502A141E6E76
:102D1A0025502B141F6E26502C14206E27502D146C
:102D2A00216E1E501F1020102110D8A49FEF16F0FC
:102D3A00A1EF16F0A3EF16F05AEF16F02AC01EF014
:102D4A002BC01FF02CC020F02DC021F0200EB3EFB5
:102D5A0016F0D890213220321F321E32E82EAEEF02
:102D6A0016F01E501F1020102110D8B4BFEF16F015
:102D7A00C1EF16F0C9EF16F024502A2625502B224F
:102D8A0026502C2227502D22241C1E6E251C1F6E15
:102D9A00261C206E271C216E1E502A161F502B1629
:102DAA0020502C1621502D161FEF17F02AC01EF0A6
:102DBA002BC01FF02CC020F02DC021F0200EEBEF0D
:102DCA0016F0D890213220321F321E32E82EE6EF5A
:102DDA0016F01E501F1020102110D8A4F7EF16F07D
:102DEA00F9EF16F003EF17F0000E2A6E000E2B6EA5
:102DFA00000E2C6E000E2D6E1FEF17F0D8902A349D
:102E0A001E6E2B341F6E2C34206E2D34216E1E50F4
:102E1A001F1020102110D8B415EF17F017EF17F074
:102E2A001FEF17F0000E2A6E000E2B6E800E2C6E0E
:102E3A00BF0E2D6E2AC01AF02BC01BF02CC01CF03E
:102E4A002DC01DF01200116E1150D8B42FEF17F0DB
:102E5A0031EF17F053EF17F00CBE38EF17F036EFDB
:102E6A0017F053EF17F009C00DF00AC00EF00BC0AF
:102E7A000FF00CC010F00D1E0E1E0F1E101E0D2A94
:102E8A00000E0E220F2210220DC013F00EC014F0F5
:102E9A000FC015F010C016F05BEF17F009C013F061
:102EAA000AC014F00BC015F00CC016F009500A1035
:102EBA000B100C10D8A464EF17F066EF17F070EF40
:102ECA0017F0000E096E000E0A6E000E0B6E000E51
:102EDA000C6E01EF18F0960E126E7AEF17F0122AA6
:102EEA00D8901632153214321332000E13140D6EA6
:102EFA00000E14140E6E000E15140F6EFE0E16142C
:102F0A00106E0D500E100F101010D8A48FEF17F07E
:102F1A0091EF17F074EF17F09FEF17F0122A010ED6
:102F2A001326000E142215221622D89016321532B4
:102F3A0014321332000E13140D6E000E14140E6E9A
:102F4A00000E15140F6EFF0E1614106E0D500E1093
:102F5A000F101010D8A4B4EF17F0B6EF17F093EFD4
:102F6A0017F0BEEF17F01206D8901336143615363E
:102F7A00163615BEC3EF17F0C5EF17F0CDEF17F0F1
:102F8A00020E1260CBEF17F0CDEF17F0B8EF17F083
:102F9A0012B0D2EF17F0D4EF17F0D5EF17F0159E55
:102FAA00D890123212C00DF00E6A0F6A106A0DC064
:102FBA0010F00F6A0E6A0D6A0D5013120E50141299
:102FCA000F501512105016121150D8B4EFEF17F017
:102FDA00F1EF17F0F9EF17F00CBEF8EF17F0F6EF74
:102FEA0017F0F9EF17F0168E13C009F014C00AF0A3
:102FFA0015C00BF016C00CF01200096E09C012F0D1
:10300A00040E01180210D8A40DEF18F00FEF18F0F3
:10301A00CEEF18F012380F0B126E000E146E000E5F
:10302A00136E13C003F013C004F0010E056E042AD8
:10303A0021EF18F0D8900536042E1FEF18F005502E
:10304A001214066E032A2CEF18F0D8900632032EBB
:10305A002AEF18F00650076E086AD8901334D96E12
:10306A001434DA6E0A0ED926000EDA2207C0DEFF01
:10307A0008C0DDFF134A142A14BE4DEF18F014508D
:10308A0009E1040E135CD8A04DEF18F04FEF18F0C9
:10309A0016EF18F00AB002D0949001D094800CB0C8
:1030AA0002D0949201D094820EB002D0949401D0AE
:1030BA00948410B002D0949601D094868882819626
:1030CA0088800D0E036EC30EE82EFED7032EFCD7A2
:1030DA0000F0889009C012F0000E166E000E156EF0
:1030EA0015C003F015C004F0010E056E042A80EF26
:1030FA0018F0D8900536042E7EEF18F005501214F9
:10310A00066E032A8BEF18F0D8900632032E89EF49
:10311A0018F00650076E086AD8901534D96E16341E
:10312A00DA6E0A0ED926000EDA2207C0DEFF08C0C0
:10313A00DDFF154A162A16BEACEF18F0165009E143
:10314A00040E155CD8A0ACEF18F0AEEF18F075EFCE
:10315A0018F00AB002D0949001D094800CB002D03A
:10316A00949201D094820EB002D0949401D09484A7
:10317A0010B002D0949601D0948688828196888075
:10318A000D0E036EC30EE82EFED7032EFCD700F0F9
:10319A0088901200076E07C010F010380F0B106EDF
:1031AA00000E126E000E116E11C001F011C002F075
:1031BA00010E036E022AE4EF18F0D8900336022EAD
:1031CA00E2EF18F003501014046E012AEFEF18F022
:1031DA00D8900432012EEDEF18F00450056E066AFD
:1031EA00D8901134D96E1234DA6E080ED926000E30
:1031FA00DA2205C0DEFF06C0DDFF114A122A12BE1E
:10320A0010EF19F0125009E1040E115CD8A010EF6A
:10321A0019F012EF19F0D9EF18F008B002D0949013
:10322A0001D094800AB002D0949201D094820CB05A
:10323A0002D0949401D094840EB002D0949601D016
:10324A0094868892819688800D0E016EC30EE82EB0
:10325A00FED7012EFCD700F0889007C010F0000EB0
:10326A00146E000E136E13C001F013C002F0010EAB
:10327A00036E022A43EF19F0D8900336022E41EF6B
:10328A0019F003501014046E012A4EEF19F0D89069
:10329A000432012E4CEF19F00450056E066AD890DC
:1032AA001334D96E1434DA6E080ED926000EDA22D7
:1032BA0005C0DEFF06C0DDFF134A142A14BE6FEFF5
:1032CA0019F0145009E1040E135CD8A06FEF19F03D
:1032DA0071EF19F038EF19F008B002D0949001D0CC
:1032EA0094800AB002D0949201D094820CB002D099
:1032FA00949401D094840EB002D0949601D094860E
:10330A008892819688800D0E016EC30EE82EFED734
:10331A00012EFCD700F088901200000E116E000EEC
:10332A00106E000E0F6E000E0E6E9EEF19F0084A18
:10333A00092A08C0F6FF09C0F7FF000EF86E080058
:10334A00F550200AD8B4ACEF19F0AEEF19F09CEFA3
:10335A0019F0F70E0A6EFF0E0B6E08C0F6FF09C0D1
:10336A00F7FF000EF86E0800F5500C6E0D6A0A5051
:10337A000C260B500D220D5009E1050E0C5CD8A04D
:10338A00C9EF19F0CBEF19F09CEF19F0D5EF19F04E
:10339A00000E0F6E010E0E6E084A092A0EEF1AF081
:1033AA0008C0F6FF09C0F7FF000EF86E0800F550D6
:1033BA000A6E0B6A0B50000AD8B4E6EF19F00EEF4A
:1033CA001AF00A502B0AD8B4D1EF19F0060AD8B469
:1033DA00CDEF19F00EEF1AF010C001F011C002F093
:1033EA00000E046E0A0E036EF3EC20F008C0F6FF1E
:1033FA0009C0F7FF000EF86E0800F550015E000ED6
:10340A00025A300E0124106E000E0220116ED1EF06
:10341A0019F0D00E0A6EFF0E0B6E08C0F6FF09C037
:10342A00F7FF000EF86E0800F5500C6E0D6A0A5090
:10343A000C260B500D220D5009E10A0E0C5CD8A087
:10344A0029EF1AF02BEF1AF0F1EF19F00E500F10C6
:10345A00D8A432EF1AF034EF1AF042EF1AF010C083
:10346A000AF011C00BF00A1E0B1E0A4A0B2A0AC0E8
:10347A0008F00BC009F046EF1AF010C008F011C0AE
:10348A0009F01200033404340A6E0A50D8A450EF2B
:10349A001AF052EF1AF05CEF1AF0000E016E000EED
:1034AA00026E000E036E000E046EC9EF1AF001C020
:1034BA0005F002C006F003C007F004C008F0200EB1
:1034CA006CEF1AF0D8900832073206320532E82E2D
:1034DA0067EF1AF00550096E038EFF0E0116FF0EF4
:1034EA000216FF0E0316000E0416960E0A5E0ABE98
:1034FA0083EF1AF081EF1AF099EF1AF00A50800A56
:10350A00970FD8B08BEF1AF08DEF1AF08FEF1AF0F1
:10351A0052EF1AF0D89004320332023201320A3ED4
:10352A008FEF1AF0B1EF1AF01F0E0A649FEF1AF02C
:10353A00A1EF1AF0A9EF1AF052EF1AF0D89001365B
:10354A000236033604360A060A50D8A4AFEF1AF038
:10355A00B1EF1AF0A3EF1AF00950D8B4B7EF1AF086
:10356A00B9EF1AF0C1EF1AF0041E031E021E016C15
:10357A00000E02220322042201C001F002C002F05E
:10358A0003C003F004C004F01200000E1A14226EE5
:10359A00000E1B14236E800E1C14246E7F0E1D1445
:1035AA00256E2250231024102510D8A4DFEF1AF01C
:1035BA00E1EF1AF0E9EF1AF0000E1A6E000E1B6E18
:1035CA00000E1C6E000E1D6E000E1E14226E000EE2
:1035DA001F14236E800E2014246E7F0E2114256E74
:1035EA002250231024102510D8A4FEEF1AF000EF61
:1035FA001BF008EF1BF0000E1E6E000E1F6E000E71
:10360A00206E000E216E1DAE0DEF1BF00FEF1BF0AA
:10361A0018EF1BF01A6C1B1ED8B01B2A1C1ED8B040
:10362A001C2A800E1D5621AE1DEF1BF01FEF1BF04A
:10363A0028EF1BF01E6C1F1ED8B01F2A201ED8B000
:10364A00202A800E2156000E1A1A000E1B1A000E8E
:10365A001C1A800E1D1A000E1E1A000E1F1A000ECA
:10366A00201A800E211A1E501A5C1F501B58205017
:10367A001C5821501D58D8B045EF1BF047EF1BF0DE
:10368A004AEF1BF0D8904BEF1BF0D88012009280C3
:10369A00000E956EDFEC20F0CBEC20F017EC21F059
:1036AA0059C001F05AC002F05BC003F05CC004F0DC
:1036BA0047EC1AF00150836E000E026E000E016E86
:1036CA0090EC1EF001C009F002C00AF0000E0ABE1A
:1036DA00FF0E0B6E0C6E010E28EC17F009C059F0A4
:1036EA000AC05AF00BC05BF00CC05CF059C001F084
:1036FA005AC002F05BC003F05CC004F00A0E056E0B
:10370A00280E066EA00E076E3B0E086E3DEC12F0F8
:10371A0001C055F002C056F003C057F004C058F07B
:10372A002FEC21F0010E176E0F0E186EDEEC1EF054
:10373A002BEC21F0160E176E0F0E186EDEEC1EF033
:10374A0059C0A6F05AC0A7F05BC0A8F05CC0A9F0A7
:10375A00B1EC20F027EC21F0220E176E0F0E186E36
:10376A00DEEC1EF055C0A6F056C0A7F057C0A8F070
:10377A0058C0A9F0B1EC20F0450E176E0F0E186E66
:10378A00DEEC1EF055EF1BF001EF00F0C2C00BF0AB
:10379A00C3C00CF0C4C00DF0C5C00EF001C00BF0E0
:1037AA0002C00CF003C00DF004C00EF00BC005F00F
:1037BA000CC006F00DC007F00EC008F0180EEBEFB3
:1037CA001BF0D8900832073206320532E82EE6EFAF
:1037DA001BF00550096E0A6A09500A10D8A4F8EFBE
:1037EA001BF0FAEF1BF01AEF1CF0D8900B34056EA1
:1037FA000C34066E0D34076E0E34086E0550061032
:10380A0007100810D8A40CEF1CF00EEF1CF014EFF0
:10381A001CF0000E026E020E016E49EF1CF0000E43
:10382A00026E030E016E49EF1CF009280A10D8A493
:10383A0021EF1CF023EF1CF045EF1CF00BC005F044
:10384A000CC006F00DC007F00EC008F0090ED890A3
:10385A000536063607360836E82E2CEF1CF00550DA
:10386A00061007100810D8B43DEF1CF040EF1CF00A
:10387A00010E41EF1CF0000E016E026A49EF1CF0C6
:10388A00000E026E040E016E120001C008F002C0A2
:10389A0009F003C00AF004C00BF00506D8A006061A
:1038AA00052806E10628D8A45DEF1CF05FEF1CF09E
:1038BA006CEF1CF0000E026E000E016EBAEF1CF0E7
:1038CA00084A092A0A4A0B2A0506D8A0060608C089
:1038DA00D9FF09C0DAFFDF50D8B476EF1CF078EFD1
:1038EA001CF0A7EF1CF00AC0F6FF0BC0F7FF000E92
:1038FA00F86E0800F5500009D8B486EF1CF088EF7E
:10390A001CF0A7EF1CF005500610D8B48FEF1CF07E
:10391A0091EF1CF0A7EF1CF008C0D9FF09C0DAFF2D
:10392A00DF50076E0AC0F6FF0BC0F7FF000EF86EF5
:10393A000800F5500718D8B4A5EF1CF0A7EF1CF043
:10394A0065EF1CF008C0D9FF09C0DAFFDF50076E27
:10395A000AC0F6FF0BC0F7FF000EF86E0800F5501C
:10396A00075C016E026AD8A0020612000350041016
:10397A00D8B4C2EF1CF0C4EF1CF0CDEF1CF003501A
:10398A000410D8A4CBEF1CF0CDEF1CF0D2EF1CF042
:10399A00015033EC21F01FEF1DF020EE09F0035027
:1039AA00D9260450DA22DE50DE10D8B4DFEF1CF03C
:1039BA00E1EF1CF0FCEF1CF020EE09F00350D926D1
:1039CA000450DA2210EE03F00350E1260450E222FA
:1039DA00DE50E65CE650800A096EDE50800A09581D
:1039EA00D8B0FAEF1CF0FCEF1CF01FEF1DF020EE30
:1039FA0003F00350D9260450DA22DECF05F0DDCFDA
:103A0A0006F003C0D9FF04C0DAFFDECF07F0DDCF2E
:103A1A0008F005500724D96E06500820DA6E01C056
:103A2A00DFFF20EE03F00350D9260450DA22DE2A03
:103A3A00000EDD221200000E066E04BE29EF1DF0F4
:103A4A0027EF1DF02FEF1DF0036C041ED8B0042AD7
:103A5A00010E066E02BE36EF1DF034EF1DF03CEF8C
:103A6A001DF0016C021ED8B0022A010E061A000EC1
:103A7A00086E000E076E03500410D8B447EF1DF00D
:103A8A0049EF1DF071EF1DF0010E056E51EF1DF0AB
:103A9A00D89003360436052A04AE56EF1DF058EFC7
:103AAA001DF04DEF1DF0D890073608360350015C23
:103ABA0004500258D8A064EF1DF066EF1DF06BEFBA
:103ACA001DF00350015E0450025A0780D890043258
:103ADA000332052E58EF1DF00650D8B477EF1DF0CB
:103AEA0079EF1DF07DEF1DF0076C081ED8B0082A8B
:103AFA0007C001F008C002F012005DA087EF1DF0B8
:103B0A0089EF1DF093EF1DF013C00AF014C00BF0FB
:103B1A0011C00CF012C00DF03BEC20F016BE98EF6D
:103B2A001DF09AEF1DF0A0EF1DF015C01AF016C097
:103B3A001BF0A4EF1DF0000E1B6E000E1A6E000E95
:103B4A00196E000E186EB6EF1DF0000E026E200EF2
:103B5A00016E11C003F012C004F0BBEC1CF0184A4D
:103B6A00192A1A50185C1950800A176E1B50800ABD
:103B7A001758D8A0C3EF1DF0C5EF1DF0AAEF1DF02E
:103B8A005DB0CAEF1DF0CCEF1DF0D6EF1DF013C0EB
:103B9A000AF014C00BF011C00CF012C00DF03BEC8F
:103BAA0020F013C001F014C002F0CDEC1FF01A503F
:103BBA000124116E1B500220126E1200000E066EB6
:103BCA0002BEECEF1DF0EAEF1DF0F2EF1DF0016C02
:103BDA00021ED8B0022A010E066E04BEF9EF1DF0CD
:103BEA00F7EF1DF0FDEF1DF0036C041ED8B0042A98
:103BFA0003500410D8B404EF1EF006EF1EF02AEFAB
:103C0A001EF0010E056E0EEF1EF0D8900336043634
:103C1A00052A04AE13EF1EF015EF1EF00AEF1EF090
:103C2A000350015C04500258D8A01EEF1EF020EF8A
:103C3A001EF024EF1EF00350015E0450025AD89081
:103C4A0004320332052E15EF1EF00650D8B430EFB9
:103C5A001EF032EF1EF036EF1EF0016C021ED8B0D5
:103C6A00022A01C001F002C002F01200000E011483
:103C7A00096E000E02140A6E800E03140B6E7F0E7C
:103C8A0004140C6E09500A100B100C10D8A450EF33
:103C9A001EF052EF1EF05AEF1EF0000E016E000EDB
:103CAA00026E000E036E000E046E000E0514096EFD
:103CBA00000E06140A6E800E07140B6E7F0E08148F
:103CCA000C6E09500A100B100C10D8A46FEF1EF0DE
:103CDA0071EF1EF079EF1EF0000E056E000E066EF3
:103CEA00000E076E000E086E055001180FE106500F
:103CFA0002180CE10750031809E108500418D8B457
:103D0A0089EF1EF08BEF1EF08EEF1EF0D8908FEF2A
:103D1A001EF0D880120001C003F0D8900336D89064
:103D2A0003363C0E0316C250C30B0310C26EC2B256
:103D3A00A1EF1EF0A5EF1EF0036A032AA6EF1EF0FC
:103D4A00036A010E046E032AADEF1EF0D890043602
:103D5A00032EABEF1EF0C2B0B5EF1EF0B9EF1EF0A6
:103D6A00056A052ABAEF1EF0056A010E066E052AD3
:103D7A00C1EF1EF0D8900636052EBFEF1EF0065092
:103D8A000410C212C2B2CCEF1EF0CEEF1EF0C7EF83
:103D9A001EF0C350C4CF03F0046A03C004F0036AE0
:103DAA000310076E0450086E07C001F008C002F045
:103DBA00120017C001F018C002F0CDEC1FF001C0CC
:103DCA001BF002C01CF0000E1E6E000E1D6E0DEFE1
:103DDA001FF0000E026E040E016E1D501724196E9C
:103DEA001E5018201A6E19C0F6FF1AC0F7FF000EEF
:103DFA00F86E0E0EF76403D00800F55005D0F6CF22
:103E0A00E1FFF7CFE2FFE75002EC18F01D4A1E2A45
:103E1A001B501D5C1C501E58D8A016EF1FF018EF3F
:103E2A001FF0EEEF1EF012009AC046F09BC047F05A
:103E3A00000E0001C76F000EC66F37EF1FF098C063
:103E4A0092F099C093F0460E946F000E956F9CC045
:103E5A0096F09DC097F00DEC10F000019251C62724
:103E6A009351C72346C0F6FF47C0F7FF000EF86E0E
:103E7A000800F5500009D8A445EF1FF047EF1FF0DE
:103E8A0024EF1FF0C6C098F0C7C099F0120003C013
:103E9A0007F004C008F001C009F002C00AF0075098
:103EAA00056E0850066E074A082A05C0F6FF06C0C6
:103EBA00F7FF000EF86E09C0D9FF0AC0DAFF094AF7
:103ECA000A2A0E0EF76403D00800F55005D0F6CF83
:103EDA00E1FFF7CFE2FFE750DF6EDF50D8A478EFBB
:103EEA001FF07AEF1FF054EF1FF01200A20E486E77
:103EFA00000E496E9EC04AF09FC04BF0000E4E6EF7
:103F0A00000E4D6E000E546E000E536E4A0E0001E6
:103F1A00986F000E996FA0C09AF0A1C09BF0480E4E
:103F2A009C6F000E9D6F19EC1FF04D5000019E25ED
:103F3A00D96E4E509F21DA6E000EDF6E1200010E0E
:103F4A00076E200E01180210D8B4AEEF1FF0B0EFC2
:103F5A001FF0C9EF1FF0F70E036EFF0E046E01C0CB
:103F6A0005F002C006F0035005260450062206504A
:103F7A0009E1050E055CD8A0C5EF1FF0C7EF1FF0D9
:103F8A00C9EF1FF0000E076E07C001F0026A1200A7
:103F9A0001C003F002C004F0D5EF1FF0014A022A63
:103FAA0001C0F6FF02C0F7FF000EF86E0E0EF764AE
:103FBA0003D00800F55005D0F6CFE1FFF7CFE2FFB6
:103FCA00E7500009D8A4ECEF1FF0EEEF1FF0D3EF93
:103FDA001FF00350015C016E04500258026E120079
:103FEA00BF0E096EFF0E0A6E07C00BF008C00CF078
:103FFA0009500B260A500C220C5007E11A0E0B5CD2
:10400A00D8B00AEF20F00CEF20F013EF20F0200ECA
:10401A000710076E0850086E17EF20F007C007F068
:10402A0008C008F01200000E1E1A000E1F1A000E19
:10403A00201A800E211A1AC001F01BC002F01CC0FF
:10404A0003F01DC004F01EC005F01FC006F020C01A
:10405A0007F021C008F0ADEC0DF001C01AF002C063
:10406A001BF003C01CF004C01DF01200000E106EFD
:10407A00000E0F6E4CEF20F00EC001F0026A0CC069
:10408A0003F00DC004F0BBEC1CF00F4A102A0F50CD
:10409A000A24D96E10500B20DA6EDF500E6E0E50C5
:1040AA00D8A45AEF20F05CEF20F041EF20F0120084
:1040BA00BF0E036EFF0E046E01C005F002C006F0CB
:1040CA00035005260450062206500AE11A0E055C22
:1040DA00D8A072EF20F075EF20F0010E76EF20F0F5
:1040EA00000E016E026A1200015002100310041041
:1040FA00D8B482EF20F084EF20F08CEF20F0000E8D
:10410A00011A000E021A000E031A800E041A01C0C8
:10411A0001F002C002F003C003F004C004F0120070
:10412A00D00E036EFF0E046E01C005F002C006F049
:10413A00035005260450062206500AE10A0E055CC1
:10414A00D8A0AAEF20F0ADEF20F0010EAEEF20F0DC
:10415A00000E016E026A1200AA0E00019E6F000E86
:10416A009F6F2D0EA06F0F0EA16FA6C0A2F0A7C061
:10417A00A3F0A8C0A4F0A9C0A5F07BEC1FF0AA0E7A
:10418A00176E000E186EDEEC1EF01200BA90BA928C
:10419A00BA94BA96BD90BD92BD94BD96C69AAB9E8E
:1041AA006B9ECD969A909A929396949094929494A8
:1041BA0094961200C280C294C296C298C29AC180D2
:1041CA00C182C184C196C198C19AC08EC090C08272
:1041DA00C094000EC46E000EC36E1200015003029A
:1041EA00F3CF05F0F4CF06F001500402F35006268F
:1041FA0002500302F350062605C001F006C002F081
:10420A00120001EE00F0500EEE6AE806FDE100EE43
:10421A00BEF00E0EEE6AE806FDE15E6A5D6A000116
:10422A004CEF1BF0020ECFEC18F0280ECFEC18F072
:10423A000C0ECFEC18F0060ECFEC18F0010ECFECF6
:10424A0018F01200D40ECFEC18F01200940ECFEC36
:0E425A0018F01200800ECFEC18F012001200C7
:020000040020DA
:08000000FFFFFFFFFFFFFFFF00
:020000040030CA
:0E000000FF220D0E830280FFFFC0FFE0FF40D5
:00000001FF
